{
  "contractName": "NFTSplitterFactory",
  "abi": [
    {
      "inputs": [
        {
          "internalType": "address",
          "name": "_settings",
          "type": "address"
        }
      ],
      "stateMutability": "nonpayable",
      "type": "constructor"
    },
    {
      "anonymous": false,
      "inputs": [
        {
          "indexed": true,
          "internalType": "address",
          "name": "nft",
          "type": "address"
        },
        {
          "indexed": true,
          "internalType": "address",
          "name": "proxyAddress",
          "type": "address"
        },
        {
          "indexed": true,
          "internalType": "address",
          "name": "NFTOwner",
          "type": "address"
        }
      ],
      "name": "ProxyCreated",
      "type": "event"
    },
    {
      "stateMutability": "payable",
      "type": "fallback",
      "payable": true
    },
    {
      "stateMutability": "payable",
      "type": "receive",
      "payable": true
    },
    {
      "inputs": [
        {
          "internalType": "address",
          "name": "_nft",
          "type": "address"
        },
        {
          "internalType": "uint256",
          "name": "_tokenId",
          "type": "uint256"
        }
      ],
      "name": "createNFTSplitter",
      "outputs": [
        {
          "internalType": "contract NFTSplitterProxy",
          "name": "prx",
          "type": "address"
        }
      ],
      "stateMutability": "nonpayable",
      "type": "function"
    },
    {
      "inputs": [],
      "name": "getNFTSplitterBase",
      "outputs": [
        {
          "internalType": "address",
          "name": "",
          "type": "address"
        }
      ],
      "stateMutability": "view",
      "type": "function",
      "constant": true
    },
    {
      "inputs": [
        {
          "internalType": "address",
          "name": "_nft",
          "type": "address"
        },
        {
          "internalType": "uint256",
          "name": "_tokenId",
          "type": "uint256"
        }
      ],
      "name": "getProxyAddressByNFT",
      "outputs": [
        {
          "internalType": "address",
          "name": "",
          "type": "address"
        }
      ],
      "stateMutability": "view",
      "type": "function",
      "constant": true
    },
    {
      "inputs": [],
      "name": "getBalance",
      "outputs": [
        {
          "internalType": "uint256",
          "name": "",
          "type": "uint256"
        }
      ],
      "stateMutability": "view",
      "type": "function",
      "constant": true
    },
    {
      "inputs": [],
      "name": "withdraw",
      "outputs": [],
      "stateMutability": "nonpayable",
      "type": "function"
    }
  ],
  "bytecode": "0x608060405234801561001057600080fd5b5060405161182b38038061182b833981810160405281019061003291906101ae565b336000806101000a81548173ffffffffffffffffffffffffffffffffffffffff021916908373ffffffffffffffffffffffffffffffffffffffff16021790555080600160006101000a81548173ffffffffffffffffffffffffffffffffffffffff021916908373ffffffffffffffffffffffffffffffffffffffff160217905550600160009054906101000a900473ffffffffffffffffffffffffffffffffffffffff1673ffffffffffffffffffffffffffffffffffffffff1663aaf10f426040518163ffffffff1660e01b815260040160206040518083038186803b15801561011b57600080fd5b505afa15801561012f573d6000803e3d6000fd5b505050506040513d601f19601f8201168201806040525081019061015391906101ae565b600260006101000a81548173ffffffffffffffffffffffffffffffffffffffff021916908373ffffffffffffffffffffffffffffffffffffffff16021790555050610220565b6000815190506101a881610209565b92915050565b6000602082840312156101c057600080fd5b60006101ce84828501610199565b91505092915050565b60006101e2826101e9565b9050919050565b600073ffffffffffffffffffffffffffffffffffffffff82169050919050565b610212816101d7565b811461021d57600080fd5b50565b6115fc8061022f6000396000f3fe608060405260043610620000555760003560e01c806312065fe0146200005f5780633ccfd60b146200008f578063abc725c914620000a9578063b8f99b7114620000ed578063e92a42ce1462000131576200005d565b366200005d57005b005b3480156200006c57600080fd5b506200007762000161565b6040516200008691906200078a565b60405180910390f35b3480156200009c57600080fd5b50620000a762000169565b005b348015620000b657600080fd5b50620000d56004803603810190620000cf919062000564565b6200016b565b604051620000e491906200074b565b60405180910390f35b348015620000fa57600080fd5b5062000119600480360381019062000113919062000564565b620003e7565b60405162000128919062000652565b60405180910390f35b3480156200013e57600080fd5b5062000149620004a4565b60405162000158919062000652565b60405180910390f35b600047905090565b565b6000600160009054906101000a900473ffffffffffffffffffffffffffffffffffffffff1673ffffffffffffffffffffffffffffffffffffffff1663b187bd266040518163ffffffff1660e01b815260040160206040518083038186803b158015620001d657600080fd5b505afa158015620001eb573d6000803e3d6000fd5b505050506040513d601f19601f82011682018060405250810190620002119190620005a5565b1562000254576040517f08c379a00000000000000000000000000000000000000000000000000000000081526004016200024b9062000768565b60405180910390fd5b828233600260009054906101000a900473ffffffffffffffffffffffffffffffffffffffff16600160009054906101000a900473ffffffffffffffffffffffffffffffffffffffff16604051620002ab90620004ce565b620002bb959493929190620006d9565b604051809103906000f080158015620002d8573d6000803e3d6000fd5b509050600160009054906101000a900473ffffffffffffffffffffffffffffffffffffffff1673ffffffffffffffffffffffffffffffffffffffff1663586206318484846040518463ffffffff1660e01b81526004016200033c939291906200069c565b600060405180830381600087803b1580156200035757600080fd5b505af11580156200036c573d6000803e3d6000fd5b505050503373ffffffffffffffffffffffffffffffffffffffff168173ffffffffffffffffffffffffffffffffffffffff168473ffffffffffffffffffffffffffffffffffffffff167f5983cdcaa370320b76fe01a3a32a0430e6a13b9f47a55e806afb13b5aef95a1260405160405180910390a492915050565b6000600160009054906101000a900473ffffffffffffffffffffffffffffffffffffffff1673ffffffffffffffffffffffffffffffffffffffff1663b8f99b7184846040518363ffffffff1660e01b8152600401620004489291906200066f565b60206040518083038186803b1580156200046157600080fd5b505afa15801562000476573d6000803e3d6000fd5b505050506040513d601f19601f820116820180604052508101906200049c919062000538565b905092915050565b6000600260009054906101000a900473ffffffffffffffffffffffffffffffffffffffff16905090565b610ceb80620008dc83390190565b600081359050620004ed816200088d565b92915050565b60008151905062000504816200088d565b92915050565b6000815190506200051b81620008a7565b92915050565b6000813590506200053281620008c1565b92915050565b6000602082840312156200054b57600080fd5b60006200055b84828501620004f3565b91505092915050565b600080604083850312156200057857600080fd5b60006200058885828601620004dc565b92505060206200059b8582860162000521565b9150509250929050565b600060208284031215620005b857600080fd5b6000620005c8848285016200050a565b91505092915050565b620005dc81620007c9565b82525050565b620005ed8162000813565b82525050565b600062000602602583620007b8565b91506200060f826200083b565b604082019050919050565b600062000629600083620007a7565b915062000636826200088a565b600082019050919050565b6200064c8162000809565b82525050565b6000602082019050620006696000830184620005d1565b92915050565b6000604082019050620006866000830185620005d1565b62000695602083018462000641565b9392505050565b6000606082019050620006b36000830186620005d1565b620006c2602083018562000641565b620006d16040830184620005d1565b949350505050565b600060c082019050620006f06000830188620005d1565b620006ff602083018762000641565b6200070e6040830186620005d1565b6200071d6060830185620005d1565b6200072c6080830184620005d1565b81810360a08301526200073f816200061a565b90509695505050505050565b6000602082019050620007626000830184620005e2565b92915050565b600060208201905081810360008301526200078381620005f3565b9050919050565b6000602082019050620007a1600083018462000641565b92915050565b600082825260208201905092915050565b600082825260208201905092915050565b6000620007d682620007e9565b9050919050565b60008115159050919050565b600073ffffffffffffffffffffffffffffffffffffffff82169050919050565b6000819050919050565b6000620008208262000827565b9050919050565b60006200083482620007e9565b9050919050565b7f4e465453706c6974746572466163746f72793a20466163746f7279206973207060008201527f6175736564000000000000000000000000000000000000000000000000000000602082015250565b50565b6200089881620007c9565b8114620008a457600080fd5b50565b620008b281620007dd565b8114620008be57600080fd5b50565b620008cc8162000809565b8114620008d857600080fd5b5056fe608060405260405162000ceb38038062000ceb83398181016040528101906200002991906200032c565b81600560006101000a81548173ffffffffffffffffffffffffffffffffffffffff021916908373ffffffffffffffffffffffffffffffffffffffff16021790555082600860006101000a81548173ffffffffffffffffffffffffffffffffffffffff021916908373ffffffffffffffffffffffffffffffffffffffff1602179055506040518060400160405280600581526020017f70726f787900000000000000000000000000000000000000000000000000000081525060069080519060200190620000f8929190620001dc565b506040518060400160405280600381526020017f50525800000000000000000000000000000000000000000000000000000000008152506007908051906020019062000146929190620001dc565b5083600460006101000a81548173ffffffffffffffffffffffffffffffffffffffff021916908373ffffffffffffffffffffffffffffffffffffffff16021790555085600360006101000a81548173ffffffffffffffffffffffffffffffffffffffff021916908373ffffffffffffffffffffffffffffffffffffffff16021790555084600281905550505050505050620005bd565b828054620001ea90620004ae565b90600052602060002090601f0160209004810192826200020e57600085556200025a565b82601f106200022957805160ff19168380011785556200025a565b828001600101855582156200025a579182015b82811115620002595782518255916020019190600101906200023c565b5b5090506200026991906200026d565b5090565b5b80821115620002885760008160009055506001016200026e565b5090565b6000620002a36200029d8462000404565b620003db565b905082815260208101848484011115620002bc57600080fd5b620002c984828562000478565b509392505050565b600081519050620002e28162000589565b92915050565b600082601f830112620002fa57600080fd5b81516200030c8482602086016200028c565b91505092915050565b6000815190506200032681620005a3565b92915050565b60008060008060008060c087890312156200034657600080fd5b60006200035689828a01620002d1565b96505060206200036989828a0162000315565b95505060406200037c89828a01620002d1565b94505060606200038f89828a01620002d1565b9350506080620003a289828a01620002d1565b92505060a087015167ffffffffffffffff811115620003c057600080fd5b620003ce89828a01620002e8565b9150509295509295509295565b6000620003e7620003fa565b9050620003f58282620004e4565b919050565b6000604051905090565b600067ffffffffffffffff82111562000422576200042162000549565b5b6200042d8262000578565b9050602081019050919050565b600062000447826200044e565b9050919050565b600073ffffffffffffffffffffffffffffffffffffffff82169050919050565b6000819050919050565b60005b83811015620004985780820151818401526020810190506200047b565b83811115620004a8576000848401525b50505050565b60006002820490506001821680620004c757607f821691505b60208210811415620004de57620004dd6200051a565b5b50919050565b620004ef8262000578565b810181811067ffffffffffffffff8211171562000511576200051062000549565b5b80604052505050565b7f4e487b7100000000000000000000000000000000000000000000000000000000600052602260045260246000fd5b7f4e487b7100000000000000000000000000000000000000000000000000000000600052604160045260246000fd5b6000601f19601f8301169050919050565b62000594816200043a565b8114620005a057600080fd5b50565b620005ae816200046e565b8114620005ba57600080fd5b50565b61071e80620005cd6000396000f3fe6080604052600436106100955760003560e01c806385b4bb531161005957806385b4bb531461018557806395d89b41146101b0578063e06174e4146101db578063e73faa2d14610206578063f1fffdcb14610231576100a4565b806304e9da5a146100ae57806306fdde03146100d9578063176740361461010457806317d70f7c1461012f5780631d3d81d61461015a576100a4565b366100a4576100a261025c565b005b6100ac61025c565b005b3480156100ba57600080fd5b506100c3610276565b6040516100d09190610571565b60405180910390f35b3480156100e557600080fd5b506100ee610298565b6040516100fb919061054f565b60405180910390f35b34801561011057600080fd5b50610119610326565b60405161012691906105a7565b60405180910390f35b34801561013b57600080fd5b50610144610337565b604051610151919061058c565b60405180910390f35b34801561016657600080fd5b5061016f61033d565b60405161017c9190610534565b60405180910390f35b34801561019157600080fd5b5061019a610363565b6040516101a79190610534565b60405180910390f35b3480156101bc57600080fd5b506101c561038d565b6040516101d2919061054f565b60405180910390f35b3480156101e757600080fd5b506101f061041b565b6040516101fd9190610534565b60405180910390f35b34801561021257600080fd5b5061021b610441565b604051610228919061058c565b60405180910390f35b34801561023d57600080fd5b50610246610447565b6040516102539190610534565b60405180910390f35b61026461046d565b61027461026f61046f565b610499565b565b600060019054906101000a90046fffffffffffffffffffffffffffffffff1681565b600680546102a590610676565b80601f01602080910402602001604051908101604052809291908181526020018280546102d190610676565b801561031e5780601f106102f35761010080835404028352916020019161031e565b820191906000526020600020905b81548152906001019060200180831161030157829003601f168201915b505050505081565b60008054906101000a900460ff1681565b60025481565b600360009054906101000a900473ffffffffffffffffffffffffffffffffffffffff1681565b6000600560009054906101000a900473ffffffffffffffffffffffffffffffffffffffff16905090565b6007805461039a90610676565b80601f01602080910402602001604051908101604052809291908181526020018280546103c690610676565b80156104135780601f106103e857610100808354040283529160200191610413565b820191906000526020600020905b8154815290600101906020018083116103f657829003601f168201915b505050505081565b600560009054906101000a900473ffffffffffffffffffffffffffffffffffffffff1681565b60015481565b600460009054906101000a900473ffffffffffffffffffffffffffffffffffffffff1681565b565b6000600860009054906101000a900473ffffffffffffffffffffffffffffffffffffffff16905090565b3660008037600080366000845af43d6000803e80600081146104ba573d6000f35b3d6000fd5b6104c8816105de565b82525050565b60006104d9826105c2565b6104e381856105cd565b93506104f3818560208601610643565b6104fc816106d7565b840191505092915050565b610510816105f0565b82525050565b61051f8161062c565b82525050565b61052e81610636565b82525050565b600060208201905061054960008301846104bf565b92915050565b6000602082019050818103600083015261056981846104ce565b905092915050565b60006020820190506105866000830184610507565b92915050565b60006020820190506105a16000830184610516565b92915050565b60006020820190506105bc6000830184610525565b92915050565b600081519050919050565b600082825260208201905092915050565b60006105e98261060c565b9050919050565b60006fffffffffffffffffffffffffffffffff82169050919050565b600073ffffffffffffffffffffffffffffffffffffffff82169050919050565b6000819050919050565b600060ff82169050919050565b60005b83811015610661578082015181840152602081019050610646565b83811115610670576000848401525b50505050565b6000600282049050600182168061068e57607f821691505b602082108114156106a2576106a16106a8565b5b50919050565b7f4e487b7100000000000000000000000000000000000000000000000000000000600052602260045260246000fd5b6000601f19601f830116905091905056fea2646970667358221220e2a57d7912131169a548dcf69be12fae72fb9ff0da41fb3e8f4d81fabfd121c464736f6c63430008030033a264697066735822122001c51ab3c3568ed6cece1b91e74f96adbe8788894a12126a5dcd77a577b18d1364736f6c63430008030033",
  "immutableReferences": {},
  "source": "// SPDX-License-Identifier: MIT\npragma solidity >=0.4.22 <0.9.0;\nimport \"./NFTSplitterAdmin.sol\";\nimport \"./NFTSplitterProxy.sol\";\n\ncontract NFTSplitterFactory {\n  address private owner;\n  address private settings;\n  address private NFTSplitterBase;\n\n\n  //is the app in pause state??\n  modifier isNotPaused(){\n    require (!NFTSplitterAdmin(settings).isPaused(), 'NFTSplitterFactory: Factory is paused');\n    _;\n  }\n  modifier onlyOwner(){\n    require (msg.sender == owner, 'NFTSplitterFactory: Factory is paused');\n    _;\n  }\n    /**\n     * @dev emitted everytime a splitter proxy is created\n     */\n    event ProxyCreated(\n        address indexed nft,\n        address indexed proxyAddress,\n        address indexed NFTOwner\n    );\n\n  constructor(address _settings) {\n    owner = msg.sender; // factory owner\n    settings = _settings; // admin contract address\n    NFTSplitterBase = NFTSplitterAdmin(settings).getImplementation(); //logic implementation\n  }\n\n  /**\n   * @dev function that creates a new splitter proxy contract\n   *\n   */\n  function createNFTSplitter(address _nft, uint _tokenId) public  isNotPaused returns (NFTSplitterProxy prx){\n    prx = new NFTSplitterProxy (_nft, _tokenId, msg.sender, NFTSplitterBase, settings, \"\");\n    NFTSplitterAdmin(settings).registerProxy(_nft, _tokenId,  address(prx));\n    emit ProxyCreated(_nft, address(prx), msg.sender);\n    return prx;\n  }\n\n  function getNFTSplitterBase() external view returns (address) {\n    return NFTSplitterBase;\n  }\n\n  function getProxyAddressByNFT(address _nft, uint _tokenId) external view returns (address) {\n    return NFTSplitterAdmin(settings).getProxyAddressByNFT(_nft, _tokenId);\n  }\n\n  // Function to receive Ether. msg.data must be empty\n  receive() external payable {}\n\n  // Fallback function is called when msg.data is not empty\n  fallback() external payable {}\n\n  function getBalance() public view returns (uint256) {\n    return address(this).balance;\n  }\n\n  /// @notice Withdraw any contract funds\n  function withdraw() public {\n    //TODO: implement withdraw and send founds to owner\n  }\n}\n",
  "sourcePath": "/home/dtutila/src/bootcamp/blockchain-developer-bootcamp-final-project/contracts/contracts/NFTSplitterFactory.sol",
  "compiler": {
    "name": "solc",
    "version": "0.8.3+commit.8d00100c.Emscripten.clang"
  },
  "schemaVersion": "3.4.3",
  "updatedAt": "2021-11-27T22:33:01.467Z",
  "networkType": "ethereum",
  "devdoc": {
    "events": {
      "ProxyCreated(address,address,address)": {
        "details": "emitted everytime a splitter proxy is created"
      }
    },
    "kind": "dev",
    "methods": {
      "createNFTSplitter(address,uint256)": {
        "details": "function that creates a new splitter proxy contract"
      }
    },
    "version": 1
  },
  "userdoc": {
    "kind": "user",
    "methods": {
      "withdraw()": {
        "notice": "Withdraw any contract funds"
      }
    },
    "version": 1
  }
}