{
  "contractName": "NFTSplitter",
  "abi": [
    {
      "inputs": [],
      "stateMutability": "nonpayable",
      "type": "constructor"
    },
    {
      "anonymous": false,
      "inputs": [
        {
          "indexed": true,
          "internalType": "address",
          "name": "account",
          "type": "address"
        },
        {
          "indexed": true,
          "internalType": "address",
          "name": "operator",
          "type": "address"
        },
        {
          "indexed": false,
          "internalType": "bool",
          "name": "approved",
          "type": "bool"
        }
      ],
      "name": "ApprovalForAll",
      "type": "event"
    },
    {
      "anonymous": false,
      "inputs": [
        {
          "indexed": true,
          "internalType": "address",
          "name": "originalNFTAddress",
          "type": "address"
        },
        {
          "indexed": true,
          "internalType": "uint256",
          "name": "id",
          "type": "uint256"
        },
        {
          "indexed": true,
          "internalType": "uint256",
          "name": "pieces",
          "type": "uint256"
        },
        {
          "indexed": false,
          "internalType": "uint256",
          "name": "price",
          "type": "uint256"
        },
        {
          "indexed": false,
          "internalType": "uint256",
          "name": "percentage",
          "type": "uint256"
        },
        {
          "indexed": false,
          "internalType": "uint256",
          "name": "lockTime",
          "type": "uint256"
        },
        {
          "indexed": false,
          "internalType": "string",
          "name": "name",
          "type": "string"
        }
      ],
      "name": "NFTSplit",
      "type": "event"
    },
    {
      "anonymous": false,
      "inputs": [
        {
          "indexed": true,
          "internalType": "address",
          "name": "originalNFTAddress",
          "type": "address"
        },
        {
          "indexed": true,
          "internalType": "address",
          "name": "buyer",
          "type": "address"
        },
        {
          "indexed": false,
          "internalType": "uint256",
          "name": "amount",
          "type": "uint256"
        },
        {
          "indexed": false,
          "internalType": "uint256",
          "name": "price",
          "type": "uint256"
        }
      ],
      "name": "NFTSplitBuyBack",
      "type": "event"
    },
    {
      "anonymous": false,
      "inputs": [
        {
          "indexed": true,
          "internalType": "address",
          "name": "pieceOwner",
          "type": "address"
        },
        {
          "indexed": true,
          "internalType": "address",
          "name": "buyer",
          "type": "address"
        },
        {
          "indexed": true,
          "internalType": "uint256",
          "name": "amount",
          "type": "uint256"
        },
        {
          "indexed": false,
          "internalType": "uint256",
          "name": "price",
          "type": "uint256"
        }
      ],
      "name": "NFTSplitSold",
      "type": "event"
    },
    {
      "anonymous": false,
      "inputs": [
        {
          "indexed": true,
          "internalType": "address",
          "name": "originalNFTAddress",
          "type": "address"
        },
        {
          "indexed": true,
          "internalType": "address",
          "name": "buyer",
          "type": "address"
        },
        {
          "indexed": false,
          "internalType": "uint256",
          "name": "amount",
          "type": "uint256"
        }
      ],
      "name": "NFTWithdraw",
      "type": "event"
    },
    {
      "anonymous": false,
      "inputs": [
        {
          "indexed": true,
          "internalType": "address",
          "name": "operator",
          "type": "address"
        },
        {
          "indexed": true,
          "internalType": "address",
          "name": "from",
          "type": "address"
        },
        {
          "indexed": true,
          "internalType": "address",
          "name": "to",
          "type": "address"
        },
        {
          "indexed": false,
          "internalType": "uint256[]",
          "name": "ids",
          "type": "uint256[]"
        },
        {
          "indexed": false,
          "internalType": "uint256[]",
          "name": "values",
          "type": "uint256[]"
        }
      ],
      "name": "TransferBatch",
      "type": "event"
    },
    {
      "anonymous": false,
      "inputs": [
        {
          "indexed": true,
          "internalType": "address",
          "name": "operator",
          "type": "address"
        },
        {
          "indexed": true,
          "internalType": "address",
          "name": "from",
          "type": "address"
        },
        {
          "indexed": true,
          "internalType": "address",
          "name": "to",
          "type": "address"
        },
        {
          "indexed": false,
          "internalType": "uint256",
          "name": "id",
          "type": "uint256"
        },
        {
          "indexed": false,
          "internalType": "uint256",
          "name": "value",
          "type": "uint256"
        }
      ],
      "name": "TransferSingle",
      "type": "event"
    },
    {
      "anonymous": false,
      "inputs": [
        {
          "indexed": false,
          "internalType": "string",
          "name": "value",
          "type": "string"
        },
        {
          "indexed": true,
          "internalType": "uint256",
          "name": "id",
          "type": "uint256"
        }
      ],
      "name": "URI",
      "type": "event"
    },
    {
      "anonymous": false,
      "inputs": [
        {
          "indexed": false,
          "internalType": "address",
          "name": "currentOwner",
          "type": "address"
        },
        {
          "indexed": false,
          "internalType": "uint256",
          "name": "amount",
          "type": "uint256"
        }
      ],
      "name": "log",
      "type": "event"
    },
    {
      "stateMutability": "payable",
      "type": "fallback",
      "payable": true
    },
    {
      "inputs": [],
      "name": "NFTPrice",
      "outputs": [
        {
          "internalType": "uint256",
          "name": "",
          "type": "uint256"
        }
      ],
      "stateMutability": "view",
      "type": "function",
      "constant": true
    },
    {
      "inputs": [
        {
          "internalType": "address",
          "name": "account",
          "type": "address"
        },
        {
          "internalType": "uint256",
          "name": "id",
          "type": "uint256"
        }
      ],
      "name": "balanceOf",
      "outputs": [
        {
          "internalType": "uint256",
          "name": "",
          "type": "uint256"
        }
      ],
      "stateMutability": "view",
      "type": "function",
      "constant": true
    },
    {
      "inputs": [
        {
          "internalType": "address[]",
          "name": "accounts",
          "type": "address[]"
        },
        {
          "internalType": "uint256[]",
          "name": "ids",
          "type": "uint256[]"
        }
      ],
      "name": "balanceOfBatch",
      "outputs": [
        {
          "internalType": "uint256[]",
          "name": "",
          "type": "uint256[]"
        }
      ],
      "stateMutability": "view",
      "type": "function",
      "constant": true
    },
    {
      "inputs": [],
      "name": "buyPercentage",
      "outputs": [
        {
          "internalType": "uint128",
          "name": "",
          "type": "uint128"
        }
      ],
      "stateMutability": "view",
      "type": "function",
      "constant": true
    },
    {
      "inputs": [],
      "name": "initialSellSupply",
      "outputs": [
        {
          "internalType": "uint8",
          "name": "",
          "type": "uint8"
        }
      ],
      "stateMutability": "view",
      "type": "function",
      "constant": true
    },
    {
      "inputs": [
        {
          "internalType": "address",
          "name": "account",
          "type": "address"
        },
        {
          "internalType": "address",
          "name": "operator",
          "type": "address"
        }
      ],
      "name": "isApprovedForAll",
      "outputs": [
        {
          "internalType": "bool",
          "name": "",
          "type": "bool"
        }
      ],
      "stateMutability": "view",
      "type": "function",
      "constant": true
    },
    {
      "inputs": [],
      "name": "lockEndDate",
      "outputs": [
        {
          "internalType": "uint256",
          "name": "",
          "type": "uint256"
        }
      ],
      "stateMutability": "view",
      "type": "function",
      "constant": true
    },
    {
      "inputs": [],
      "name": "name",
      "outputs": [
        {
          "internalType": "string",
          "name": "",
          "type": "string"
        }
      ],
      "stateMutability": "view",
      "type": "function",
      "constant": true
    },
    {
      "inputs": [],
      "name": "originalNFT",
      "outputs": [
        {
          "internalType": "address",
          "name": "",
          "type": "address"
        }
      ],
      "stateMutability": "view",
      "type": "function",
      "constant": true
    },
    {
      "inputs": [],
      "name": "originalOwner",
      "outputs": [
        {
          "internalType": "address",
          "name": "",
          "type": "address"
        }
      ],
      "stateMutability": "view",
      "type": "function",
      "constant": true
    },
    {
      "inputs": [],
      "name": "pieces",
      "outputs": [
        {
          "internalType": "uint8",
          "name": "",
          "type": "uint8"
        }
      ],
      "stateMutability": "view",
      "type": "function",
      "constant": true
    },
    {
      "inputs": [
        {
          "internalType": "address",
          "name": "from",
          "type": "address"
        },
        {
          "internalType": "address",
          "name": "to",
          "type": "address"
        },
        {
          "internalType": "uint256[]",
          "name": "ids",
          "type": "uint256[]"
        },
        {
          "internalType": "uint256[]",
          "name": "amounts",
          "type": "uint256[]"
        },
        {
          "internalType": "bytes",
          "name": "data",
          "type": "bytes"
        }
      ],
      "name": "safeBatchTransferFrom",
      "outputs": [],
      "stateMutability": "nonpayable",
      "type": "function"
    },
    {
      "inputs": [
        {
          "internalType": "address",
          "name": "operator",
          "type": "address"
        },
        {
          "internalType": "bool",
          "name": "approved",
          "type": "bool"
        }
      ],
      "name": "setApprovalForAll",
      "outputs": [],
      "stateMutability": "nonpayable",
      "type": "function"
    },
    {
      "inputs": [],
      "name": "settings",
      "outputs": [
        {
          "internalType": "address",
          "name": "",
          "type": "address"
        }
      ],
      "stateMutability": "view",
      "type": "function",
      "constant": true
    },
    {
      "inputs": [],
      "name": "symbol",
      "outputs": [
        {
          "internalType": "string",
          "name": "",
          "type": "string"
        }
      ],
      "stateMutability": "view",
      "type": "function",
      "constant": true
    },
    {
      "inputs": [],
      "name": "tokenId",
      "outputs": [
        {
          "internalType": "uint256",
          "name": "",
          "type": "uint256"
        }
      ],
      "stateMutability": "view",
      "type": "function",
      "constant": true
    },
    {
      "inputs": [],
      "name": "version",
      "outputs": [
        {
          "internalType": "uint8",
          "name": "",
          "type": "uint8"
        }
      ],
      "stateMutability": "view",
      "type": "function",
      "constant": true
    },
    {
      "stateMutability": "payable",
      "type": "receive",
      "payable": true
    },
    {
      "inputs": [
        {
          "internalType": "string",
          "name": "newuri",
          "type": "string"
        }
      ],
      "name": "setURI",
      "outputs": [],
      "stateMutability": "nonpayable",
      "type": "function"
    },
    {
      "inputs": [
        {
          "internalType": "address",
          "name": "account",
          "type": "address"
        },
        {
          "internalType": "uint256",
          "name": "id",
          "type": "uint256"
        },
        {
          "internalType": "uint256",
          "name": "amount",
          "type": "uint256"
        },
        {
          "internalType": "bytes",
          "name": "data",
          "type": "bytes"
        }
      ],
      "name": "mint",
      "outputs": [],
      "stateMutability": "nonpayable",
      "type": "function"
    },
    {
      "inputs": [
        {
          "internalType": "address",
          "name": "to",
          "type": "address"
        },
        {
          "internalType": "uint256[]",
          "name": "ids",
          "type": "uint256[]"
        },
        {
          "internalType": "uint256[]",
          "name": "amounts",
          "type": "uint256[]"
        },
        {
          "internalType": "bytes",
          "name": "data",
          "type": "bytes"
        }
      ],
      "name": "mintBatch",
      "outputs": [],
      "stateMutability": "nonpayable",
      "type": "function"
    },
    {
      "inputs": [
        {
          "internalType": "bytes4",
          "name": "interfaceId",
          "type": "bytes4"
        }
      ],
      "name": "supportsInterface",
      "outputs": [
        {
          "internalType": "bool",
          "name": "",
          "type": "bool"
        }
      ],
      "stateMutability": "view",
      "type": "function",
      "constant": true
    },
    {
      "inputs": [
        {
          "internalType": "uint256",
          "name": "id",
          "type": "uint256"
        }
      ],
      "name": "uri",
      "outputs": [
        {
          "internalType": "string",
          "name": "",
          "type": "string"
        }
      ],
      "stateMutability": "view",
      "type": "function",
      "constant": true
    },
    {
      "inputs": [
        {
          "internalType": "address",
          "name": "account",
          "type": "address"
        },
        {
          "internalType": "uint256",
          "name": "id",
          "type": "uint256"
        },
        {
          "internalType": "uint256",
          "name": "value",
          "type": "uint256"
        }
      ],
      "name": "burn",
      "outputs": [],
      "stateMutability": "nonpayable",
      "type": "function"
    },
    {
      "inputs": [
        {
          "internalType": "address",
          "name": "account",
          "type": "address"
        },
        {
          "internalType": "uint256[]",
          "name": "ids",
          "type": "uint256[]"
        },
        {
          "internalType": "uint256[]",
          "name": "values",
          "type": "uint256[]"
        }
      ],
      "name": "burnBatch",
      "outputs": [],
      "stateMutability": "nonpayable",
      "type": "function"
    },
    {
      "inputs": [
        {
          "internalType": "address",
          "name": "from",
          "type": "address"
        },
        {
          "internalType": "address",
          "name": "to",
          "type": "address"
        },
        {
          "internalType": "uint256",
          "name": "id",
          "type": "uint256"
        },
        {
          "internalType": "uint256",
          "name": "amount",
          "type": "uint256"
        },
        {
          "internalType": "bytes",
          "name": "data",
          "type": "bytes"
        }
      ],
      "name": "safeTransferFrom",
      "outputs": [],
      "stateMutability": "nonpayable",
      "type": "function"
    },
    {
      "inputs": [
        {
          "internalType": "uint256",
          "name": "_tokenId",
          "type": "uint256"
        },
        {
          "internalType": "uint256",
          "name": "_price",
          "type": "uint256"
        },
        {
          "internalType": "uint128",
          "name": "_buyPercentage",
          "type": "uint128"
        },
        {
          "internalType": "uint8",
          "name": "_pieces",
          "type": "uint8"
        },
        {
          "internalType": "uint8",
          "name": "_initialSellAmount",
          "type": "uint8"
        },
        {
          "internalType": "uint256",
          "name": "_lockTimeInDays",
          "type": "uint256"
        }
      ],
      "name": "splitMyNFT",
      "outputs": [],
      "stateMutability": "nonpayable",
      "type": "function"
    },
    {
      "inputs": [
        {
          "internalType": "address",
          "name": "_from",
          "type": "address"
        },
        {
          "internalType": "uint256",
          "name": "amount",
          "type": "uint256"
        }
      ],
      "name": "buyBackPieces",
      "outputs": [],
      "stateMutability": "payable",
      "type": "function",
      "payable": true
    },
    {
      "inputs": [
        {
          "internalType": "uint256",
          "name": "amount",
          "type": "uint256"
        }
      ],
      "name": "buyPiecesFromOwner",
      "outputs": [],
      "stateMutability": "payable",
      "type": "function",
      "payable": true
    },
    {
      "inputs": [],
      "name": "withdrawOriginalNFT",
      "outputs": [],
      "stateMutability": "nonpayable",
      "type": "function"
    },
    {
      "inputs": [
        {
          "internalType": "address",
          "name": "",
          "type": "address"
        },
        {
          "internalType": "address",
          "name": "",
          "type": "address"
        },
        {
          "internalType": "uint256",
          "name": "_id",
          "type": "uint256"
        },
        {
          "internalType": "uint256",
          "name": "",
          "type": "uint256"
        },
        {
          "internalType": "bytes",
          "name": "",
          "type": "bytes"
        }
      ],
      "name": "onERC1155Received",
      "outputs": [
        {
          "internalType": "bytes4",
          "name": "",
          "type": "bytes4"
        }
      ],
      "stateMutability": "nonpayable",
      "type": "function"
    },
    {
      "inputs": [
        {
          "internalType": "address",
          "name": "",
          "type": "address"
        },
        {
          "internalType": "address",
          "name": "",
          "type": "address"
        },
        {
          "internalType": "uint256[]",
          "name": "",
          "type": "uint256[]"
        },
        {
          "internalType": "uint256[]",
          "name": "",
          "type": "uint256[]"
        },
        {
          "internalType": "bytes",
          "name": "",
          "type": "bytes"
        }
      ],
      "name": "onERC1155BatchReceived",
      "outputs": [
        {
          "internalType": "bytes4",
          "name": "",
          "type": "bytes4"
        }
      ],
      "stateMutability": "pure",
      "type": "function",
      "constant": true
    },
    {
      "inputs": [],
      "name": "getBalance",
      "outputs": [
        {
          "internalType": "uint256",
          "name": "",
          "type": "uint256"
        }
      ],
      "stateMutability": "view",
      "type": "function",
      "constant": true
    }
  ],
  "bytecode": "0x60806040523480156200001157600080fd5b50604051806020016040528060008152506200003381620000d660201b60201c565b506040518060400160405280600c81526020017f4e46542053706c69747465720000000000000000000000000000000000000000815250600a908051906020019062000081929190620000f2565b506040518060400160405280600481526020017f4e46545300000000000000000000000000000000000000000000000000000000815250600b9080519060200190620000cf929190620000f2565b5062000207565b80600e9080519060200190620000ee929190620000f2565b5050565b8280546200010090620001a2565b90600052602060002090601f01602090048101928262000124576000855562000170565b82601f106200013f57805160ff191683800117855562000170565b8280016001018555821562000170579182015b828111156200016f57825182559160200191906001019062000152565b5b5090506200017f919062000183565b5090565b5b808211156200019e57600081600090555060010162000184565b5090565b60006002820490506001821680620001bb57607f821691505b60208210811415620001d257620001d1620001d8565b5b50919050565b7f4e487b7100000000000000000000000000000000000000000000000000000000600052602260045260246000fd5b61588d80620002176000396000f3fe6080604052600436106101e65760003560e01c806372b6068211610102578063c22378cc11610095578063f1fffdcb11610064578063f1fffdcb146106cf578063f23a6e61146106fa578063f242432a14610737578063f5298aca14610760576101ed565b8063c22378cc14610622578063ccfb9ff11461063e578063e06174e414610667578063e985e9c514610692576101ed565b8063a22cb465116100d1578063a22cb4651461057a578063a38bffda146105a3578063b875a94f146105ce578063bc197c81146105e5576101ed565b806372b60682146104d0578063731133e9146104fb57806395d89b411461052457806399b3878f1461054f576101ed565b8063176740361161017a5780632eb2c2d6116101495780632eb2c2d6146104165780634e1273f41461043f57806354fd4d501461047c5780636b20c454146104a7576101ed565b8063176740361461036c57806317d70f7c146103975780631d3d81d6146103c25780631f7fdffa146103ed576101ed565b806306fdde03116101b657806306fdde03146102bd5780630e89341c146102e857806312065fe01461032557806316f8bfcc14610350576101ed565b8062fdd58e146101ef57806301ffc9a71461022c57806302fe53051461026957806304e9da5a14610292576101ed565b366101ed57005b005b3480156101fb57600080fd5b5061021660048036038101906102119190613b34565b610789565b60405161022391906149f5565b60405180910390f35b34801561023857600080fd5b50610253600480360381019061024e9190613ccf565b610853565b6040516102609190614679565b60405180910390f35b34801561027557600080fd5b50610290600480360381019061028b9190613d21565b610865565b005b34801561029e57600080fd5b506102a761086a565b6040516102b491906149b1565b60405180910390f35b3480156102c957600080fd5b506102d261088c565b6040516102df91906146af565b60405180910390f35b3480156102f457600080fd5b5061030f600480360381019061030a9190613da3565b61091a565b60405161031c91906146af565b60405180910390f35b34801561033157600080fd5b5061033a6109d1565b60405161034791906149f5565b60405180910390f35b61036a60048036038101906103659190613b34565b6109d9565b005b34801561037857600080fd5b50610381610cba565b60405161038e9190614a85565b60405180910390f35b3480156103a357600080fd5b506103ac610ccd565b6040516103b991906149f5565b60405180910390f35b3480156103ce57600080fd5b506103d7610cd3565b6040516103e49190614499565b60405180910390f35b3480156103f957600080fd5b50610414600480360381019061040f9190613a4d565b610cf7565b005b34801561042257600080fd5b5061043d600480360381019061043891906137ee565b610d32565b005b34801561044b57600080fd5b5061046660048036038101906104619190613c3a565b610dd3565b6040516104739190614620565b60405180910390f35b34801561048857600080fd5b50610491610f84565b60405161049e9190614a85565b60405180910390f35b3480156104b357600080fd5b506104ce60048036038101906104c991906139ce565b610f89565b005b3480156104dc57600080fd5b506104e5611026565b6040516104f291906149f5565b60405180910390f35b34801561050757600080fd5b50610522600480360381019061051d9190613bbf565b61102c565b005b34801561053057600080fd5b50610539611067565b60405161054691906146af565b60405180910390f35b34801561055b57600080fd5b506105646110f5565b6040516105719190614a85565b60405180910390f35b34801561058657600080fd5b506105a1600480360381019061059c9190613af8565b611108565b005b3480156105af57600080fd5b506105b8611289565b6040516105c591906149f5565b60405180910390f35b3480156105da57600080fd5b506105e361128f565b005b3480156105f157600080fd5b5061060c600480360381019061060791906137ee565b6114d6565b6040516106199190614694565b60405180910390f35b61063c60048036038101906106379190613da3565b6114eb565b005b34801561064a57600080fd5b5061066560048036038101906106609190613df5565b6118ae565b005b34801561067357600080fd5b5061067c611e39565b6040516106899190614499565b60405180910390f35b34801561069e57600080fd5b506106b960048036038101906106b491906137b2565b611e5f565b6040516106c69190614679565b60405180910390f35b3480156106db57600080fd5b506106e4611ef3565b6040516106f19190614499565b60405180910390f35b34801561070657600080fd5b50610721600480360381019061071c91906138ad565b611f19565b60405161072e9190614694565b60405180910390f35b34801561074357600080fd5b5061075e6004803603810190610759919061393f565b611f2f565b005b34801561076c57600080fd5b5061078760048036038101906107829190613b70565b612051565b005b60008073ffffffffffffffffffffffffffffffffffffffff168373ffffffffffffffffffffffffffffffffffffffff1614156107fa576040517f08c379a00000000000000000000000000000000000000000000000000000000081526004016107f190614731565b60405180910390fd5b600c600083815260200190815260200160002060008473ffffffffffffffffffffffffffffffffffffffff1673ffffffffffffffffffffffffffffffffffffffff16815260200190815260200160002054905092915050565b600061085e826120ee565b9050919050565b600080fd5b600560009054906101000a90046fffffffffffffffffffffffffffffffff1681565b600a805461089990614e21565b80601f01602080910402602001604051908101604052809291908181526020018280546108c590614e21565b80156109125780601f106108e757610100808354040283529160200191610912565b820191906000526020600020905b8154815290600101906020018083116108f557829003601f168201915b505050505081565b606060008054906101000a900473ffffffffffffffffffffffffffffffffffffffff1673ffffffffffffffffffffffffffffffffffffffff16630e89341c836040518263ffffffff1660e01b815260040161097591906149f5565b60006040518083038186803b15801561098d57600080fd5b505afa1580156109a1573d6000803e3d6000fd5b505050506040513d6000823e3d601f19601f820116820180604052508101906109ca9190613d62565b9050919050565b600047905090565b3373ffffffffffffffffffffffffffffffffffffffff16600160009054906101000a900473ffffffffffffffffffffffffffffffffffffffff1673ffffffffffffffffffffffffffffffffffffffff1614610a69576040517f08c379a0000000000000000000000000000000000000000000000000000000008152600401610a6090614851565b60405180910390fd5b6000610a76836001610789565b90506000600160149054906101000a900460ff1660ff16600454610a9a9190614c71565b90506000836064600560009054906101000a90046fffffffffffffffffffffffffffffffff166fffffffffffffffffffffffffffffffff1684610add9190614ca2565b610ae79190614c71565b83610af29190614c1b565b610afc9190614ca2565b905081341015610b41576040517f08c379a0000000000000000000000000000000000000000000000000000000008152600401610b3890614711565b60405180910390fd5b610b5e853360018760405180602001604052806000815250611f2f565b6000808673ffffffffffffffffffffffffffffffffffffffff1683604051610b8590614484565b60006040518083038185875af1925050503d8060008114610bc2576040519150601f19603f3d011682016040523d82523d6000602084013e610bc7565b606091505b509150915081610c0c576040517f08c379a0000000000000000000000000000000000000000000000000000000008152600401610c0390614791565b60405180910390fd5b3373ffffffffffffffffffffffffffffffffffffffff1660008054906101000a900473ffffffffffffffffffffffffffffffffffffffff1673ffffffffffffffffffffffffffffffffffffffff167fd5663b7e74dd83da02889d52250b473b5039a7eff2bd9d93534e2a947fb32a79600560009054906101000a90046fffffffffffffffffffffffffffffffff1686604051610ca99291906149cc565b60405180910390a350505050505050565b600160149054906101000a900460ff1681565b60065481565b60008054906101000a900473ffffffffffffffffffffffffffffffffffffffff1681565b6040517f08c379a0000000000000000000000000000000000000000000000000000000008152600401610d2990614831565b60405180910390fd5b610d3a6121d0565b73ffffffffffffffffffffffffffffffffffffffff168573ffffffffffffffffffffffffffffffffffffffff161480610d805750610d7f85610d7a6121d0565b611e5f565b5b610dbf576040517f08c379a0000000000000000000000000000000000000000000000000000000008152600401610db690614811565b60405180910390fd5b610dcc85858585856121d8565b5050505050565b60608151835114610e19576040517f08c379a0000000000000000000000000000000000000000000000000000000008152600401610e1090614931565b60405180910390fd5b6000835167ffffffffffffffff811115610e5c577f4e487b7100000000000000000000000000000000000000000000000000000000600052604160045260246000fd5b604051908082528060200260200182016040528015610e8a5781602001602082028036833780820191505090505b50905060005b8451811015610f7957610f23858281518110610ed5577f4e487b7100000000000000000000000000000000000000000000000000000000600052603260045260246000fd5b6020026020010151858381518110610f16577f4e487b7100000000000000000000000000000000000000000000000000000000600052603260045260246000fd5b6020026020010151610789565b828281518110610f5c577f4e487b7100000000000000000000000000000000000000000000000000000000600052603260045260246000fd5b60200260200101818152505080610f7290614e84565b9050610e90565b508091505092915050565b600181565b610f916121d0565b73ffffffffffffffffffffffffffffffffffffffff168373ffffffffffffffffffffffffffffffffffffffff161480610fd75750610fd683610fd16121d0565b611e5f565b5b611016576040517f08c379a000000000000000000000000000000000000000000000000000000000815260040161100d906148b1565b60405180910390fd5b61102183838361253b565b505050565b60025481565b6040517f08c379a000000000000000000000000000000000000000000000000000000000815260040161105e90614831565b60405180910390fd5b600b805461107490614e21565b80601f01602080910402602001604051908101604052809291908181526020018280546110a090614e21565b80156110ed5780601f106110c2576101008083540402835291602001916110ed565b820191906000526020600020905b8154815290600101906020018083116110d057829003601f168201915b505050505081565b600360009054906101000a900460ff1681565b8173ffffffffffffffffffffffffffffffffffffffff166111276121d0565b73ffffffffffffffffffffffffffffffffffffffff16141561117e576040517f08c379a000000000000000000000000000000000000000000000000000000000815260040161117590614911565b60405180910390fd5b80600d600061118b6121d0565b73ffffffffffffffffffffffffffffffffffffffff1673ffffffffffffffffffffffffffffffffffffffff16815260200190815260200160002060008473ffffffffffffffffffffffffffffffffffffffff1673ffffffffffffffffffffffffffffffffffffffff16815260200190815260200160002060006101000a81548160ff0219169083151502179055508173ffffffffffffffffffffffffffffffffffffffff166112386121d0565b73ffffffffffffffffffffffffffffffffffffffff167f17307eab39ab6107e8899845ad3d59bd9653f200f220920489ca2b5937696c318360405161127d9190614679565b60405180910390a35050565b60045481565b600160149054906101000a900460ff1660ff166112ad336001610789565b146112ed576040517f08c379a00000000000000000000000000000000000000000000000000000000081526004016112e4906148d1565b60405180910390fd5b60008060009054906101000a900473ffffffffffffffffffffffffffffffffffffffff1673ffffffffffffffffffffffffffffffffffffffff1662fdd58e306006546040518363ffffffff1660e01b815260040161134c9291906145f7565b60206040518083038186803b15801561136457600080fd5b505afa158015611378573d6000803e3d6000fd5b505050506040513d601f19601f8201168201806040525081019061139c9190613dcc565b905060008054906101000a900473ffffffffffffffffffffffffffffffffffffffff1673ffffffffffffffffffffffffffffffffffffffff1663f242432a3033600654856040518563ffffffff1660e01b81526004016113ff949392919061459f565b600060405180830381600087803b15801561141957600080fd5b505af115801561142d573d6000803e3d6000fd5b5050505061144e3360018060149054906101000a900460ff1660ff1661283a565b3373ffffffffffffffffffffffffffffffffffffffff1660008054906101000a900473ffffffffffffffffffffffffffffffffffffffff1673ffffffffffffffffffffffffffffffffffffffff167fb072771ef078d0df5c946e8bf51bf87fbfb3beb54a70e74964bb1c278999e1f5836040516114cb91906149f5565b60405180910390a350565b600063bc197c8160e01b905095945050505050565b3373ffffffffffffffffffffffffffffffffffffffff16600160009054906101000a900473ffffffffffffffffffffffffffffffffffffffff1673ffffffffffffffffffffffffffffffffffffffff16141561157c576040517f08c379a0000000000000000000000000000000000000000000000000000000008152600401611573906148f1565b60405180910390fd5b60006115ab600160009054906101000a900473ffffffffffffffffffffffffffffffffffffffff166001610789565b905081600360009054906101000a900460ff1660ff16826115cc9190614cfc565b101561160d576040517f08c379a000000000000000000000000000000000000000000000000000000000815260040161160490614771565b60405180910390fd5b3373ffffffffffffffffffffffffffffffffffffffff16600160009054906101000a900473ffffffffffffffffffffffffffffffffffffffff1673ffffffffffffffffffffffffffffffffffffffff16141561169e576040517f08c379a000000000000000000000000000000000000000000000000000000000815260040161169590614991565b60405180910390fd5b600082600160149054906101000a900460ff1660ff166004546116c19190614c71565b6116cb9190614ca2565b905080341015611710576040517f08c379a0000000000000000000000000000000000000000000000000000000008152600401611707906147d1565b60405180910390fd5b61174f600160009054906101000a900473ffffffffffffffffffffffffffffffffffffffff163360018660405180602001604052806000815250611f2f565b600080600160009054906101000a900473ffffffffffffffffffffffffffffffffffffffff1673ffffffffffffffffffffffffffffffffffffffff163460405161179890614484565b60006040518083038185875af1925050503d80600081146117d5576040519150601f19603f3d011682016040523d82523d6000602084013e6117da565b606091505b5091509150843373ffffffffffffffffffffffffffffffffffffffff16600160009054906101000a900473ffffffffffffffffffffffffffffffffffffffff1673ffffffffffffffffffffffffffffffffffffffff167f70cd864c0863dd4b53c1c2e09e5affab9b63d1497282919be454186dbe56f80c8660405161185f91906149f5565b60405180910390a4816118a7576040517f08c379a000000000000000000000000000000000000000000000000000000000815260040161189e90614791565b60405180910390fd5b5050505050565b3373ffffffffffffffffffffffffffffffffffffffff16600160009054906101000a900473ffffffffffffffffffffffffffffffffffffffff1673ffffffffffffffffffffffffffffffffffffffff161461193e576040517f08c379a000000000000000000000000000000000000000000000000000000000815260040161193590614851565b60405180910390fd5b620151808161194d9190614ca2565b426119589190614c1b565b60028190555033600160006101000a81548173ffffffffffffffffffffffffffffffffffffffff021916908373ffffffffffffffffffffffffffffffffffffffff16021790555081600360006101000a81548160ff021916908360ff16021790555060008054906101000a900473ffffffffffffffffffffffffffffffffffffffff1673ffffffffffffffffffffffffffffffffffffffff166306fdde036040518163ffffffff1660e01b815260040160006040518083038186803b158015611a2057600080fd5b505afa158015611a34573d6000803e3d6000fd5b505050506040513d6000823e3d601f19601f82011682018060405250810190611a5d9190613d62565b604051602001611a6d9190614440565b604051602081830303815290604052600a9080519060200190611a919291906133a4565b5060008054906101000a900473ffffffffffffffffffffffffffffffffffffffff1673ffffffffffffffffffffffffffffffffffffffff166395d89b416040518163ffffffff1660e01b815260040160006040518083038186803b158015611af857600080fd5b505afa158015611b0c573d6000803e3d6000fd5b505050506040513d6000823e3d601f19601f82011682018060405250810190611b359190613d62565b604051602001611b459190614462565b604051602081830303815290604052600b9080519060200190611b699291906133a4565b508560068190555082600160146101000a81548160ff021916908360ff1602179055508460048190555083600560006101000a8154816fffffffffffffffffffffffffffffffff02191690836fffffffffffffffffffffffffffffffff16021790555060008060009054906101000a900473ffffffffffffffffffffffffffffffffffffffff1673ffffffffffffffffffffffffffffffffffffffff1662fdd58e336006546040518363ffffffff1660e01b8152600401611c2b9291906145f7565b60206040518083038186803b158015611c4357600080fd5b505afa158015611c57573d6000803e3d6000fd5b505050506040513d601f19601f82011682018060405250810190611c7b9190613dcc565b9050611cac33600654600160149054906101000a900460ff1660ff1660405180602001604052806000815250612a59565b60008054906101000a900473ffffffffffffffffffffffffffffffffffffffff1673ffffffffffffffffffffffffffffffffffffffff1663f242432a3330600654856040518563ffffffff1660e01b8152600401611d0d949392919061459f565b600060405180830381600087803b158015611d2757600080fd5b505af1158015611d3b573d6000803e3d6000fd5b5050505080600760003373ffffffffffffffffffffffffffffffffffffffff1673ffffffffffffffffffffffffffffffffffffffff16815260200190815260200160002081905550600160149054906101000a900460ff1660ff1660065460008054906101000a900473ffffffffffffffffffffffffffffffffffffffff1673ffffffffffffffffffffffffffffffffffffffff167f582733874e746ffdbda564a5a3d4a22bd9f73521c954fc6ec77cb26e8765fd9a600454600560009054906101000a90046fffffffffffffffffffffffffffffffff16600254600a604051611e289493929190614a10565b60405180910390a450505050505050565b600960009054906101000a900473ffffffffffffffffffffffffffffffffffffffff1681565b6000600d60008473ffffffffffffffffffffffffffffffffffffffff1673ffffffffffffffffffffffffffffffffffffffff16815260200190815260200160002060008373ffffffffffffffffffffffffffffffffffffffff1673ffffffffffffffffffffffffffffffffffffffff16815260200190815260200160002060009054906101000a900460ff16905092915050565b600160009054906101000a900473ffffffffffffffffffffffffffffffffffffffff1681565b600063f23a6e6160e01b90509695505050505050565b600960009054906101000a900473ffffffffffffffffffffffffffffffffffffffff1673ffffffffffffffffffffffffffffffffffffffff1663d37531aa60008054906101000a900473ffffffffffffffffffffffffffffffffffffffff16306040518363ffffffff1660e01b8152600401611fac9291906144b4565b602060405180830381600087803b158015611fc657600080fd5b505af1158015611fda573d6000803e3d6000fd5b505050506040513d601f19601f82011682018060405250810190611ffe9190613ca6565b61203d576040517f08c379a0000000000000000000000000000000000000000000000000000000008152600401612034906147b1565b60405180910390fd5b61204a8585858585612bf0565b5050505050565b6120596121d0565b73ffffffffffffffffffffffffffffffffffffffff168373ffffffffffffffffffffffffffffffffffffffff16148061209f575061209e836120996121d0565b611e5f565b5b6120de576040517f08c379a00000000000000000000000000000000000000000000000000000000081526004016120d5906148b1565b60405180910390fd5b6120e983838361283a565b505050565b60007fd9b67a26000000000000000000000000000000000000000000000000000000007bffffffffffffffffffffffffffffffffffffffffffffffffffffffff1916827bffffffffffffffffffffffffffffffffffffffffffffffffffffffff191614806121b957507f0e89341c000000000000000000000000000000000000000000000000000000007bffffffffffffffffffffffffffffffffffffffffffffffffffffffff1916827bffffffffffffffffffffffffffffffffffffffffffffffffffffffff1916145b806121c957506121c882612e75565b5b9050919050565b600033905090565b815183511461221c576040517f08c379a000000000000000000000000000000000000000000000000000000000815260040161221390614951565b60405180910390fd5b600073ffffffffffffffffffffffffffffffffffffffff168473ffffffffffffffffffffffffffffffffffffffff16141561228c576040517f08c379a0000000000000000000000000000000000000000000000000000000008152600401612283906147f1565b60405180910390fd5b60006122966121d0565b90506122a6818787878787612edf565b60005b84518110156124a65760008582815181106122ed577f4e487b7100000000000000000000000000000000000000000000000000000000600052603260045260246000fd5b602002602001015190506000858381518110612332577f4e487b7100000000000000000000000000000000000000000000000000000000600052603260045260246000fd5b602002602001015190506000600c600084815260200190815260200160002060008b73ffffffffffffffffffffffffffffffffffffffff1673ffffffffffffffffffffffffffffffffffffffff168152602001908152602001600020549050818110156123d4576040517f08c379a00000000000000000000000000000000000000000000000000000000081526004016123cb90614891565b60405180910390fd5b818103600c600085815260200190815260200160002060008c73ffffffffffffffffffffffffffffffffffffffff1673ffffffffffffffffffffffffffffffffffffffff1681526020019081526020016000208190555081600c600085815260200190815260200160002060008b73ffffffffffffffffffffffffffffffffffffffff1673ffffffffffffffffffffffffffffffffffffffff168152602001908152602001600020600082825461248b9190614c1b565b925050819055505050508061249f90614e84565b90506122a9565b508473ffffffffffffffffffffffffffffffffffffffff168673ffffffffffffffffffffffffffffffffffffffff168273ffffffffffffffffffffffffffffffffffffffff167f4a39dc06d4c0dbc64b70af90fd698a233a518aa5d07e595d983b8c0526c8f7fb878760405161251d929190614642565b60405180910390a4612533818787878787612ef5565b505050505050565b600073ffffffffffffffffffffffffffffffffffffffff168373ffffffffffffffffffffffffffffffffffffffff1614156125ab576040517f08c379a00000000000000000000000000000000000000000000000000000000081526004016125a290614871565b60405180910390fd5b80518251146125ef576040517f08c379a00000000000000000000000000000000000000000000000000000000081526004016125e690614951565b60405180910390fd5b60006125f96121d0565b905061261981856000868660405180602001604052806000815250612edf565b60005b83518110156127b4576000848281518110612660577f4e487b7100000000000000000000000000000000000000000000000000000000600052603260045260246000fd5b6020026020010151905060008483815181106126a5577f4e487b7100000000000000000000000000000000000000000000000000000000600052603260045260246000fd5b602002602001015190506000600c600084815260200190815260200160002060008973ffffffffffffffffffffffffffffffffffffffff1673ffffffffffffffffffffffffffffffffffffffff16815260200190815260200160002054905081811015612747576040517f08c379a000000000000000000000000000000000000000000000000000000000815260040161273e90614751565b60405180910390fd5b818103600c600085815260200190815260200160002060008a73ffffffffffffffffffffffffffffffffffffffff1673ffffffffffffffffffffffffffffffffffffffff1681526020019081526020016000208190555050505080806127ac90614e84565b91505061261c565b50600073ffffffffffffffffffffffffffffffffffffffff168473ffffffffffffffffffffffffffffffffffffffff168273ffffffffffffffffffffffffffffffffffffffff167f4a39dc06d4c0dbc64b70af90fd698a233a518aa5d07e595d983b8c0526c8f7fb868660405161282c929190614642565b60405180910390a450505050565b600073ffffffffffffffffffffffffffffffffffffffff168373ffffffffffffffffffffffffffffffffffffffff1614156128aa576040517f08c379a00000000000000000000000000000000000000000000000000000000081526004016128a190614871565b60405180910390fd5b60006128b46121d0565b90506128e4818560006128c6876130dc565b6128cf876130dc565b60405180602001604052806000815250612edf565b6000600c600085815260200190815260200160002060008673ffffffffffffffffffffffffffffffffffffffff1673ffffffffffffffffffffffffffffffffffffffff1681526020019081526020016000205490508281101561297c576040517f08c379a000000000000000000000000000000000000000000000000000000000815260040161297390614751565b60405180910390fd5b828103600c600086815260200190815260200160002060008773ffffffffffffffffffffffffffffffffffffffff1673ffffffffffffffffffffffffffffffffffffffff16815260200190815260200160002081905550600073ffffffffffffffffffffffffffffffffffffffff168573ffffffffffffffffffffffffffffffffffffffff168373ffffffffffffffffffffffffffffffffffffffff167fc3d58168c5ae7397731d063d5bbf3d657854427343f4c083240f7aacaa2d0f628787604051612a4a929190614a5c565b60405180910390a45050505050565b600073ffffffffffffffffffffffffffffffffffffffff168473ffffffffffffffffffffffffffffffffffffffff161415612ac9576040517f08c379a0000000000000000000000000000000000000000000000000000000008152600401612ac090614971565b60405180910390fd5b6000612ad36121d0565b9050612af481600087612ae5886130dc565b612aee886130dc565b87612edf565b82600c600086815260200190815260200160002060008773ffffffffffffffffffffffffffffffffffffffff1673ffffffffffffffffffffffffffffffffffffffff1681526020019081526020016000206000828254612b549190614c1b565b925050819055508473ffffffffffffffffffffffffffffffffffffffff16600073ffffffffffffffffffffffffffffffffffffffff168273ffffffffffffffffffffffffffffffffffffffff167fc3d58168c5ae7397731d063d5bbf3d657854427343f4c083240f7aacaa2d0f628787604051612bd2929190614a5c565b60405180910390a4612be9816000878787876131a2565b5050505050565b600073ffffffffffffffffffffffffffffffffffffffff168473ffffffffffffffffffffffffffffffffffffffff161415612c60576040517f08c379a0000000000000000000000000000000000000000000000000000000008152600401612c57906147f1565b60405180910390fd5b6000612c6a6121d0565b9050612c8a818787612c7b886130dc565b612c84886130dc565b87612edf565b6000600c600086815260200190815260200160002060008873ffffffffffffffffffffffffffffffffffffffff1673ffffffffffffffffffffffffffffffffffffffff16815260200190815260200160002054905083811015612d22576040517f08c379a0000000000000000000000000000000000000000000000000000000008152600401612d1990614891565b60405180910390fd5b838103600c600087815260200190815260200160002060008973ffffffffffffffffffffffffffffffffffffffff1673ffffffffffffffffffffffffffffffffffffffff1681526020019081526020016000208190555083600c600087815260200190815260200160002060008873ffffffffffffffffffffffffffffffffffffffff1673ffffffffffffffffffffffffffffffffffffffff1681526020019081526020016000206000828254612dd99190614c1b565b925050819055508573ffffffffffffffffffffffffffffffffffffffff168773ffffffffffffffffffffffffffffffffffffffff168373ffffffffffffffffffffffffffffffffffffffff167fc3d58168c5ae7397731d063d5bbf3d657854427343f4c083240f7aacaa2d0f628888604051612e56929190614a5c565b60405180910390a4612e6c8288888888886131a2565b50505050505050565b60007f01ffc9a7000000000000000000000000000000000000000000000000000000007bffffffffffffffffffffffffffffffffffffffffffffffffffffffff1916827bffffffffffffffffffffffffffffffffffffffffffffffffffffffff1916149050919050565b612eed868686868686613389565b505050505050565b612f148473ffffffffffffffffffffffffffffffffffffffff16613391565b156130d4578373ffffffffffffffffffffffffffffffffffffffff1663bc197c8187878686866040518663ffffffff1660e01b8152600401612f5a9594939291906144dd565b602060405180830381600087803b158015612f7457600080fd5b505af1925050508015612fa557506040513d601f19601f82011682018060405250810190612fa29190613cf8565b60015b61304b57612fb1614f89565b806308c379a0141561300e5750612fc6615737565b80612fd15750613010565b806040517f08c379a000000000000000000000000000000000000000000000000000000000815260040161300591906146af565b60405180910390fd5b505b6040517f08c379a0000000000000000000000000000000000000000000000000000000008152600401613042906146d1565b60405180910390fd5b63bc197c8160e01b7bffffffffffffffffffffffffffffffffffffffffffffffffffffffff1916817bffffffffffffffffffffffffffffffffffffffffffffffffffffffff1916146130d2576040517f08c379a00000000000000000000000000000000000000000000000000000000081526004016130c9906146f1565b60405180910390fd5b505b505050505050565b60606000600167ffffffffffffffff811115613121577f4e487b7100000000000000000000000000000000000000000000000000000000600052604160045260246000fd5b60405190808252806020026020018201604052801561314f5781602001602082028036833780820191505090505b509050828160008151811061318d577f4e487b7100000000000000000000000000000000000000000000000000000000600052603260045260246000fd5b60200260200101818152505080915050919050565b6131c18473ffffffffffffffffffffffffffffffffffffffff16613391565b15613381578373ffffffffffffffffffffffffffffffffffffffff1663f23a6e6187878686866040518663ffffffff1660e01b8152600401613207959493929190614545565b602060405180830381600087803b15801561322157600080fd5b505af192505050801561325257506040513d601f19601f8201168201806040525081019061324f9190613cf8565b60015b6132f85761325e614f89565b806308c379a014156132bb5750613273615737565b8061327e57506132bd565b806040517f08c379a00000000000000000000000000000000000000000000000000000000081526004016132b291906146af565b60405180910390fd5b505b6040517f08c379a00000000000000000000000000000000000000000000000000000000081526004016132ef906146d1565b60405180910390fd5b63f23a6e6160e01b7bffffffffffffffffffffffffffffffffffffffffffffffffffffffff1916817bffffffffffffffffffffffffffffffffffffffffffffffffffffffff19161461337f576040517f08c379a0000000000000000000000000000000000000000000000000000000008152600401613376906146f1565b60405180910390fd5b505b505050505050565b505050505050565b600080823b905060008111915050919050565b8280546133b090614e21565b90600052602060002090601f0160209004810192826133d25760008555613419565b82601f106133eb57805160ff1916838001178555613419565b82800160010185558215613419579182015b828111156134185782518255916020019190600101906133fd565b5b509050613426919061342a565b5090565b5b8082111561344357600081600090555060010161342b565b5090565b600061345a61345584614ac5565b614aa0565b9050808382526020820190508285602086028201111561347957600080fd5b60005b858110156134a9578161348f88826135d9565b84526020840193506020830192505060018101905061347c565b5050509392505050565b60006134c66134c184614af1565b614aa0565b905080838252602082019050828560208602820111156134e557600080fd5b60005b8581101561351557816134fb8882613773565b8452602084019350602083019250506001810190506134e8565b5050509392505050565b600061353261352d84614b1d565b614aa0565b90508281526020810184848401111561354a57600080fd5b613555848285614ddf565b509392505050565b600061357061356b84614b4e565b614aa0565b90508281526020810184848401111561358857600080fd5b613593848285614ddf565b509392505050565b60006135ae6135a984614b4e565b614aa0565b9050828152602081018484840111156135c657600080fd5b6135d1848285614dee565b509392505050565b6000813590506135e8816157cd565b92915050565b600082601f8301126135ff57600080fd5b813561360f848260208601613447565b91505092915050565b600082601f83011261362957600080fd5b81356136398482602086016134b3565b91505092915050565b600081359050613651816157e4565b92915050565b600081519050613666816157e4565b92915050565b60008135905061367b816157fb565b92915050565b600081519050613690816157fb565b92915050565b60008083601f8401126136a857600080fd5b8235905067ffffffffffffffff8111156136c157600080fd5b6020830191508360018202830111156136d957600080fd5b9250929050565b600082601f8301126136f157600080fd5b813561370184826020860161351f565b91505092915050565b600082601f83011261371b57600080fd5b813561372b84826020860161355d565b91505092915050565b600082601f83011261374557600080fd5b815161375584826020860161359b565b91505092915050565b60008135905061376d81615812565b92915050565b60008135905061378281615829565b92915050565b60008151905061379781615829565b92915050565b6000813590506137ac81615840565b92915050565b600080604083850312156137c557600080fd5b60006137d3858286016135d9565b92505060206137e4858286016135d9565b9150509250929050565b600080600080600060a0868803121561380657600080fd5b6000613814888289016135d9565b9550506020613825888289016135d9565b945050604086013567ffffffffffffffff81111561384257600080fd5b61384e88828901613618565b935050606086013567ffffffffffffffff81111561386b57600080fd5b61387788828901613618565b925050608086013567ffffffffffffffff81111561389457600080fd5b6138a0888289016136e0565b9150509295509295909350565b60008060008060008060a087890312156138c657600080fd5b60006138d489828a016135d9565b96505060206138e589828a016135d9565b95505060406138f689828a01613773565b945050606061390789828a01613773565b935050608087013567ffffffffffffffff81111561392457600080fd5b61393089828a01613696565b92509250509295509295509295565b600080600080600060a0868803121561395757600080fd5b6000613965888289016135d9565b9550506020613976888289016135d9565b945050604061398788828901613773565b935050606061399888828901613773565b925050608086013567ffffffffffffffff8111156139b557600080fd5b6139c1888289016136e0565b9150509295509295909350565b6000806000606084860312156139e357600080fd5b60006139f1868287016135d9565b935050602084013567ffffffffffffffff811115613a0e57600080fd5b613a1a86828701613618565b925050604084013567ffffffffffffffff811115613a3757600080fd5b613a4386828701613618565b9150509250925092565b60008060008060808587031215613a6357600080fd5b6000613a71878288016135d9565b945050602085013567ffffffffffffffff811115613a8e57600080fd5b613a9a87828801613618565b935050604085013567ffffffffffffffff811115613ab757600080fd5b613ac387828801613618565b925050606085013567ffffffffffffffff811115613ae057600080fd5b613aec878288016136e0565b91505092959194509250565b60008060408385031215613b0b57600080fd5b6000613b19858286016135d9565b9250506020613b2a85828601613642565b9150509250929050565b60008060408385031215613b4757600080fd5b6000613b55858286016135d9565b9250506020613b6685828601613773565b9150509250929050565b600080600060608486031215613b8557600080fd5b6000613b93868287016135d9565b9350506020613ba486828701613773565b9250506040613bb586828701613773565b9150509250925092565b60008060008060808587031215613bd557600080fd5b6000613be3878288016135d9565b9450506020613bf487828801613773565b9350506040613c0587828801613773565b925050606085013567ffffffffffffffff811115613c2257600080fd5b613c2e878288016136e0565b91505092959194509250565b60008060408385031215613c4d57600080fd5b600083013567ffffffffffffffff811115613c6757600080fd5b613c73858286016135ee565b925050602083013567ffffffffffffffff811115613c9057600080fd5b613c9c85828601613618565b9150509250929050565b600060208284031215613cb857600080fd5b6000613cc684828501613657565b91505092915050565b600060208284031215613ce157600080fd5b6000613cef8482850161366c565b91505092915050565b600060208284031215613d0a57600080fd5b6000613d1884828501613681565b91505092915050565b600060208284031215613d3357600080fd5b600082013567ffffffffffffffff811115613d4d57600080fd5b613d598482850161370a565b91505092915050565b600060208284031215613d7457600080fd5b600082015167ffffffffffffffff811115613d8e57600080fd5b613d9a84828501613734565b91505092915050565b600060208284031215613db557600080fd5b6000613dc384828501613773565b91505092915050565b600060208284031215613dde57600080fd5b6000613dec84828501613788565b91505092915050565b60008060008060008060c08789031215613e0e57600080fd5b6000613e1c89828a01613773565b9650506020613e2d89828a01613773565b9550506040613e3e89828a0161375e565b9450506060613e4f89828a0161379d565b9350506080613e6089828a0161379d565b92505060a0613e7189828a01613773565b9150509295509295509295565b6000613e8a8383614413565b60208301905092915050565b613e9f81614d30565b82525050565b6000613eb082614ba4565b613eba8185614bd2565b9350613ec583614b7f565b8060005b83811015613ef6578151613edd8882613e7e565b9750613ee883614bc5565b925050600181019050613ec9565b5085935050505092915050565b613f0c81614d42565b82525050565b613f1b81614d4e565b82525050565b6000613f2c82614baf565b613f368185614be3565b9350613f46818560208601614dee565b613f4f81614fab565b840191505092915050565b6000613f6582614bba565b613f6f8185614bff565b9350613f7f818560208601614dee565b613f8881614fab565b840191505092915050565b6000613f9e82614bba565b613fa88185614c10565b9350613fb8818560208601614dee565b80840191505092915050565b60008154613fd181614e21565b613fdb8186614bff565b94506001821660008114613ff657600181146140085761403b565b60ff198316865260208601935061403b565b61401185614b8f565b60005b8381101561403357815481890152600182019150602081019050614014565b808801955050505b50505092915050565b6000614051603483614bff565b915061405c82614fc9565b604082019050919050565b6000614074602883614bff565b915061407f82615018565b604082019050919050565b6000614097603483614bff565b91506140a282615067565b604082019050919050565b60006140ba602b83614bff565b91506140c5826150b6565b604082019050919050565b60006140dd602483614bff565b91506140e882615105565b604082019050919050565b6000614100602583614bff565b915061410b82615154565b604082019050919050565b6000614123601483614bff565b915061412e826151a3565b602082019050919050565b6000614146603d83614bff565b9150614151826151cc565b604082019050919050565b6000614169602b83614bff565b91506141748261521b565b604082019050919050565b600061418c600f83614c10565b91506141978261526a565b600f82019050919050565b60006141af602583614bff565b91506141ba82615293565b604082019050919050565b60006141d2603283614bff565b91506141dd826152e2565b604082019050919050565b60006141f5601883614bff565b915061420082615331565b602082019050919050565b6000614218603e83614bff565b91506142238261535a565b604082019050919050565b600061423b602383614bff565b9150614246826153a9565b604082019050919050565b600061425e602a83614bff565b9150614269826153f8565b604082019050919050565b6000614281600283614c10565b915061428c82615447565b600282019050919050565b60006142a4602d83614bff565b91506142af82615470565b604082019050919050565b60006142c7604383614bff565b91506142d2826154bf565b606082019050919050565b60006142ea600083614be3565b91506142f582615534565b600082019050919050565b600061430d600083614bf4565b915061431882615534565b600082019050919050565b6000614330604783614bff565b915061433b82615537565b606082019050919050565b6000614353602983614bff565b915061435e826155ac565b604082019050919050565b6000614376602983614bff565b9150614381826155fb565b604082019050919050565b6000614399602883614bff565b91506143a48261564a565b604082019050919050565b60006143bc602183614bff565b91506143c782615699565b604082019050919050565b60006143df602a83614bff565b91506143ea826156e8565b604082019050919050565b6143fe81614d7a565b82525050565b61440d81614dcd565b82525050565b61441c81614db6565b82525050565b61442b81614db6565b82525050565b61443a81614dc0565b82525050565b600061444b8261417f565b91506144578284613f93565b915081905092915050565b600061446d82614274565b91506144798284613f93565b915081905092915050565b600061448f82614300565b9150819050919050565b60006020820190506144ae6000830184613e96565b92915050565b60006040820190506144c96000830185613e96565b6144d66020830184613e96565b9392505050565b600060a0820190506144f26000830188613e96565b6144ff6020830187613e96565b81810360408301526145118186613ea5565b905081810360608301526145258185613ea5565b905081810360808301526145398184613f21565b90509695505050505050565b600060a08201905061455a6000830188613e96565b6145676020830187613e96565b6145746040830186614422565b6145816060830185614422565b81810360808301526145938184613f21565b90509695505050505050565b600060a0820190506145b46000830187613e96565b6145c16020830186613e96565b6145ce6040830185614422565b6145db6060830184614422565b81810360808301526145ec816142dd565b905095945050505050565b600060408201905061460c6000830185613e96565b6146196020830184614422565b9392505050565b6000602082019050818103600083015261463a8184613ea5565b905092915050565b6000604082019050818103600083015261465c8185613ea5565b905081810360208301526146708184613ea5565b90509392505050565b600060208201905061468e6000830184613f03565b92915050565b60006020820190506146a96000830184613f12565b92915050565b600060208201905081810360008301526146c98184613f5a565b905092915050565b600060208201905081810360008301526146ea81614044565b9050919050565b6000602082019050818103600083015261470a81614067565b9050919050565b6000602082019050818103600083015261472a8161408a565b9050919050565b6000602082019050818103600083015261474a816140ad565b9050919050565b6000602082019050818103600083015261476a816140d0565b9050919050565b6000602082019050818103600083015261478a816140f3565b9050919050565b600060208201905081810360008301526147aa81614116565b9050919050565b600060208201905081810360008301526147ca81614139565b9050919050565b600060208201905081810360008301526147ea8161415c565b9050919050565b6000602082019050818103600083015261480a816141a2565b9050919050565b6000602082019050818103600083015261482a816141c5565b9050919050565b6000602082019050818103600083015261484a816141e8565b9050919050565b6000602082019050818103600083015261486a8161420b565b9050919050565b6000602082019050818103600083015261488a8161422e565b9050919050565b600060208201905081810360008301526148aa81614251565b9050919050565b600060208201905081810360008301526148ca81614297565b9050919050565b600060208201905081810360008301526148ea816142ba565b9050919050565b6000602082019050818103600083015261490a81614323565b9050919050565b6000602082019050818103600083015261492a81614346565b9050919050565b6000602082019050818103600083015261494a81614369565b9050919050565b6000602082019050818103600083015261496a8161438c565b9050919050565b6000602082019050818103600083015261498a816143af565b9050919050565b600060208201905081810360008301526149aa816143d2565b9050919050565b60006020820190506149c660008301846143f5565b92915050565b60006040820190506149e16000830185614404565b6149ee6020830184614422565b9392505050565b6000602082019050614a0a6000830184614422565b92915050565b6000608082019050614a256000830187614422565b614a326020830186614404565b614a3f6040830185614422565b8181036060830152614a518184613fc4565b905095945050505050565b6000604082019050614a716000830185614422565b614a7e6020830184614422565b9392505050565b6000602082019050614a9a6000830184614431565b92915050565b6000614aaa614abb565b9050614ab68282614e53565b919050565b6000604051905090565b600067ffffffffffffffff821115614ae057614adf614f5a565b5b602082029050602081019050919050565b600067ffffffffffffffff821115614b0c57614b0b614f5a565b5b602082029050602081019050919050565b600067ffffffffffffffff821115614b3857614b37614f5a565b5b614b4182614fab565b9050602081019050919050565b600067ffffffffffffffff821115614b6957614b68614f5a565b5b614b7282614fab565b9050602081019050919050565b6000819050602082019050919050565b60008190508160005260206000209050919050565b600081519050919050565b600081519050919050565b600081519050919050565b6000602082019050919050565b600082825260208201905092915050565b600082825260208201905092915050565b600081905092915050565b600082825260208201905092915050565b600081905092915050565b6000614c2682614db6565b9150614c3183614db6565b9250827fffffffffffffffffffffffffffffffffffffffffffffffffffffffffffffffff03821115614c6657614c65614ecd565b5b828201905092915050565b6000614c7c82614db6565b9150614c8783614db6565b925082614c9757614c96614efc565b5b828204905092915050565b6000614cad82614db6565b9150614cb883614db6565b9250817fffffffffffffffffffffffffffffffffffffffffffffffffffffffffffffffff0483118215151615614cf157614cf0614ecd565b5b828202905092915050565b6000614d0782614db6565b9150614d1283614db6565b925082821015614d2557614d24614ecd565b5b828203905092915050565b6000614d3b82614d96565b9050919050565b60008115159050919050565b60007fffffffff0000000000000000000000000000000000000000000000000000000082169050919050565b60006fffffffffffffffffffffffffffffffff82169050919050565b600073ffffffffffffffffffffffffffffffffffffffff82169050919050565b6000819050919050565b600060ff82169050919050565b6000614dd882614d7a565b9050919050565b82818337600083830152505050565b60005b83811015614e0c578082015181840152602081019050614df1565b83811115614e1b576000848401525b50505050565b60006002820490506001821680614e3957607f821691505b60208210811415614e4d57614e4c614f2b565b5b50919050565b614e5c82614fab565b810181811067ffffffffffffffff82111715614e7b57614e7a614f5a565b5b80604052505050565b6000614e8f82614db6565b91507fffffffffffffffffffffffffffffffffffffffffffffffffffffffffffffffff821415614ec257614ec1614ecd565b5b600182019050919050565b7f4e487b7100000000000000000000000000000000000000000000000000000000600052601160045260246000fd5b7f4e487b7100000000000000000000000000000000000000000000000000000000600052601260045260246000fd5b7f4e487b7100000000000000000000000000000000000000000000000000000000600052602260045260246000fd5b7f4e487b7100000000000000000000000000000000000000000000000000000000600052604160045260246000fd5b600060033d1115614fa85760046000803e614fa5600051614fbc565b90505b90565b6000601f19601f8301169050919050565b60008160e01c9050919050565b7f455243313135353a207472616e7366657220746f206e6f6e204552433131353560008201527f526563656976657220696d706c656d656e746572000000000000000000000000602082015250565b7f455243313135353a204552433131353552656365697665722072656a6563746560008201527f6420746f6b656e73000000000000000000000000000000000000000000000000602082015250565b7f4e465453706c69747465723a20696e73756666696369656e742076616c75652060008201527f666f722074686973207472616e73616374696f6e000000000000000000000000602082015250565b7f455243313135353a2062616c616e636520717565727920666f7220746865207a60008201527f65726f2061646472657373000000000000000000000000000000000000000000602082015250565b7f455243313135353a206275726e20616d6f756e7420657863656564732062616c60008201527f616e636500000000000000000000000000000000000000000000000000000000602082015250565b7f4e465453706c69747465723a206e6f7420656e6f75676820706965636573207460008201527f6f20627579000000000000000000000000000000000000000000000000000000602082015250565b7f4661696c656420746f2073656e64204574686572000000000000000000000000600082015250565b7f4e465453706c69747465723a2063616c6c6572206973206e6f7420612076616c60008201527f69642070726f78792c206f776e6572206e6f7220617070726f76656420000000602082015250565b7f4e465453706c69747465723a206e6f7420656e6f7567682076616c756520746f60008201527f2062757920706965636573000000000000000000000000000000000000000000602082015250565b7f4e46542053706c6974746572202d200000000000000000000000000000000000600082015250565b7f455243313135353a207472616e7366657220746f20746865207a65726f20616460008201527f6472657373000000000000000000000000000000000000000000000000000000602082015250565b7f455243313135353a207472616e736665722063616c6c6572206973206e6f742060008201527f6f776e6572206e6f7220617070726f7665640000000000000000000000000000602082015250565b7f46756e6374696f6e206e6f7420696d706c656d656e7465640000000000000000600082015250565b7f4e465453706c69747465723a204f6e6c79206f726967696e616c204e4654206f60008201527f776e65722063616e206578656375746520746869732066756e6374696f6e0000602082015250565b7f455243313135353a206275726e2066726f6d20746865207a65726f206164647260008201527f6573730000000000000000000000000000000000000000000000000000000000602082015250565b7f455243313135353a20696e73756666696369656e742062616c616e636520666f60008201527f72207472616e7366657200000000000000000000000000000000000000000000602082015250565b7f4e53000000000000000000000000000000000000000000000000000000000000600082015250565b7f4e465453706c69747465723a2063616c6c6572206973206e6f74206f776e657260008201527f206e6f7220617070726f76656400000000000000000000000000000000000000602082015250565b7f4e465453706c69747465723a20796f752073686f756c64206f776e20616c6c2060008201527f70696563657320746f20776974686472617720746865206f726967696e616c2060208201527f4e46540000000000000000000000000000000000000000000000000000000000604082015250565b50565b7f4e465453706c69747465723a204f726967696e616c204e4654206f776e65722060008201527f6973206e6f7420616c6c6f77656420746f20657865637574652074686973206660208201527f756e6374696f6e00000000000000000000000000000000000000000000000000604082015250565b7f455243313135353a2073657474696e6720617070726f76616c2073746174757360008201527f20666f722073656c660000000000000000000000000000000000000000000000602082015250565b7f455243313135353a206163636f756e747320616e6420696473206c656e67746860008201527f206d69736d617463680000000000000000000000000000000000000000000000602082015250565b7f455243313135353a2069647320616e6420616d6f756e7473206c656e6774682060008201527f6d69736d61746368000000000000000000000000000000000000000000000000602082015250565b7f455243313135353a206d696e7420746f20746865207a65726f2061646472657360008201527f7300000000000000000000000000000000000000000000000000000000000000602082015250565b7f4e465453706c69747465723a20796f7520617265207468652063757272656e7460008201527f206e6674206f776e657200000000000000000000000000000000000000000000602082015250565b600060443d1015615747576157ca565b61574f614abb565b60043d036004823e80513d602482011167ffffffffffffffff821117156157775750506157ca565b808201805167ffffffffffffffff81111561579557505050506157ca565b80602083010160043d0385018111156157b25750505050506157ca565b6157c182602001850186614e53565b82955050505050505b90565b6157d681614d30565b81146157e157600080fd5b50565b6157ed81614d42565b81146157f857600080fd5b50565b61580481614d4e565b811461580f57600080fd5b50565b61581b81614d7a565b811461582657600080fd5b50565b61583281614db6565b811461583d57600080fd5b50565b61584981614dc0565b811461585457600080fd5b5056fea2646970667358221220285358fb611c74accda92162c4ae266764a59d7c231e1705d55ed9be4f2968f164736f6c63430008030033",
  "immutableReferences": {},
  "source": "// SPDX-License-Identifier: MIT\npragma solidity >=0.4.22 <0.9.0;\nimport \"./ERC1155.sol\";\nimport \"./NFTSplitterStorage.sol\";\nimport \"@openzeppelin/contracts/utils/introspection/ERC165.sol\";\nimport \"@openzeppelin/contracts/token/ERC1155/IERC1155Receiver.sol\";\nimport  \"./NFTSplitterAdmin.sol\";\n\ncontract NFTSplitter is\n    NFTSplitterStorage,\n    ERC165,\n    ERC1155,\n    IERC1155Receiver\n{\n   // bytes4 internal constant ERC1155_RECEIVED_SIG = 0xf23a6e61;\n   // bytes4 internal constant ERC1155_BATCH_RECEIVED_SIG = 0xbc197c81;\n    uint8 public constant version = 1;\n\n    //modifiers\n    /**\n     * @dev Modifier that checks that timestamp is greater than lock time\n     *\n     */\n    modifier isNotLocked() {\n        require(block.timestamp > lockEndDate, \"NFTSplitter: Lock time is not over\");\n        _;\n    }\n\n    modifier allowToBuy() {\n        if (block.timestamp < lockEndDate){\n            require(owners[originalOwner] < initialSellSupply, \"NFTSplitter: No more supply\");\n        } \n                \n        _;\n    }\n\n    /**\n     * @dev Modifier that checks that only the original NFT owner can execute the trx\n     *\n     */\n    modifier onlyOriginalNFTOwner() {\n        require(originalOwner == msg.sender, \"NFTSplitter: Only original NFT owner can execute this function\");\n        _;\n    }\n\n    /**\n     * @dev Modifier that checks that the original NFT owner is not executing the trx\n     *\n     */\n    modifier notOriginalNFTOwner() {\n        require(originalOwner != msg.sender, \"NFTSplitter: Original NFT owner is not allowed to execute this function\" );\n        _;\n    }\n\n    /**\n     * @dev Modifier that checks that all pieces are owned by the same address\n     *\n     */\n    modifier ownsAllPieces() {\n\n        require(balanceOf(msg.sender, 1) == pieces, \"NFTSplitter: you should own all pieces to withdraw the original NFT\");\n        _;\n    }\n\n\n    /**\n     * @dev \n     */\n    event NFTSplit(\n        address indexed originalNFTAddress,\n        uint indexed id,\n        uint indexed pieces,\n        uint  price,\n        uint  percentage,\n        uint  lockTime,\n        string name\n    );\n\n  /*  event NFTSplitDeployed(\n        address indexed originalNFTAddress,\n        address indexed NFTOwner\n    );*/\n\n    event NFTSplitSold(\n        address indexed pieceOwner,\n        address indexed buyer,\n        uint indexed amount,\n        uint  price\n    );\n\n    event NFTSplitBuyBack(\n        address indexed originalNFTAddress,\n        address indexed buyer,\n        uint  amount,\n        uint  price\n    );\n\n    event NFTWithdraw(\n        address indexed originalNFTAddress,\n        address indexed buyer,\n        uint  amount\n\n    );\n\n    constructor(\n        \n    ) ERC1155(\"\") {\n        name = \"NFT Splitter\";\n        symbol = \"NFTS\";\n    }\n\n    //no set uri function needed\n    function setURI(string memory newuri) public{\n        revert();\n    }\n\n\n    //mint function will not be needed after contract creation\n    function mint(\n        address account,\n        uint256 id,\n        uint256 amount,\n        bytes memory data\n    ) public  {\n        revert(\"Function not implemented\");\n    }\n\n    //mint function will not be needed after contract creation\n    function mintBatch(\n        address to,\n        uint256[] memory ids,\n        uint256[] memory amounts,\n        bytes memory data\n    ) public {\n        revert(\"Function not implemented\");\n    }\n\n    function _beforeTokenTransfer(\n        address operator,\n        address from,\n        address to,\n        uint256[] memory ids,\n        uint256[] memory amounts,\n        bytes memory data\n    ) internal override  {\n        super._beforeTokenTransfer(operator, from, to, ids, amounts, data);\n    }\n\n    function supportsInterface(bytes4 interfaceId)\n        public\n        view\n        override(ERC165, IERC165, ERC1155)\n        returns (bool)\n    {\n        return super.supportsInterface(interfaceId);\n    }\n\n    //it will return the original NFT uri\n    /**\n     * @dev this method will return the NFT uri\n     * @return Original NFT uri\n     */\n    function uri(uint256 id)\n        public\n        view\n        virtual\n        override\n        returns (string memory)\n    {\n        return ERC1155(originalNFT).uri(id);\n    }\n\n    function burn(\n        address account,\n        uint256 id,\n        uint256 value\n    ) public virtual {\n        require(\n            account == _msgSender() || isApprovedForAll(account, _msgSender()),\n            \"NFTSplitter: caller is not owner nor approved\"\n        );\n\n        _burn(account, id, value);\n    }\n\n    function burnBatch(\n        address account,\n        uint256[] memory ids,\n        uint256[] memory values\n    ) public virtual {\n        require(\n            account == _msgSender() || isApprovedForAll(account, _msgSender()),\n            \"NFTSplitter: caller is not owner nor approved\"\n        );\n\n        _burnBatch(account, ids, values);\n    }\n\n    /**\n     * @dev See {IERC1155-safeTransferFrom}.\n     */\n    function safeTransferFrom(\n        address from,\n        address to,\n        uint256 id,\n        uint256 amount,\n        bytes memory data\n    ) public  override {\n        require(\n            NFTSplitterAdmin(settings).isValidProxy(originalNFT, address(this))\n        ,\n        \"NFTSplitter: caller is not a valid proxy, owner nor approved \"\n        );\n        _safeTransferFrom(from, to, id, amount, data);\n    }\n\n    function splitMyNFT(\n\n        uint256 _tokenId,\n        uint256 _price,\n        uint128 _buyPercentage,\n        uint8 _pieces,\n        uint8 _initialSellAmount,\n        uint256 _lockTimeInDays\n    ) public onlyOriginalNFTOwner {\n        lockEndDate = block.timestamp + (_lockTimeInDays * 1 days);\n      //  originalNFT = _originalNFTAddress;\n        originalOwner = msg.sender;\n        initialSellSupply = _initialSellAmount;\n        name = string(abi.encodePacked(\"NFT Splitter - \", ERC1155(originalNFT).name()));\n        symbol = string(abi.encodePacked(\"NS\", ERC1155(originalNFT).symbol()));\n       \n        tokenId = _tokenId;\n        pieces = _pieces;\n        NFTPrice = _price;\n        buyPercentage = _buyPercentage;\n\n        uint256 amount = ERC1155(originalNFT).balanceOf(msg.sender, tokenId);\n        _mint(msg.sender, tokenId, pieces, \"\");\n        ERC1155(originalNFT).safeTransferFrom(\n            msg.sender,\n            address(this),\n            tokenId,\n            amount,\n            \"\"\n        );\n        owners[msg.sender] = amount;\n        //setting the owners\n\n\n        emit NFTSplit(originalNFT, tokenId, pieces, NFTPrice, buyPercentage, lockEndDate, name);\n    }\n\n    /**\n     * @dev method used by the original NFT to buy back any piece that was sold\n     *\n     */\n\n    function buyBackPieces(address _from, uint256 amount) public payable onlyOriginalNFTOwner {\n        uint currentBalance = balanceOf(_from, 1);\n\n       // require (currentBalance > 0 && currentBalance >= amount, 'NFTSplitter: not enough pieces to buy back');\n       \n\n        uint piecePrice = NFTPrice / pieces;//( (NFTPrice * buyPercentage) / ( 100 * pieces ));\n        uint buyBackPrice = (piecePrice + (piecePrice * buyPercentage  / 100 )) * amount;\n        require(msg.value  >= piecePrice, 'NFTSplitter: insufficient value for this transaction');\n\n        safeTransferFrom(_from, msg.sender, 1, amount, \"\");\n        (bool sent, bytes memory data) = _from.call{value: buyBackPrice}(\"\");\n\n        require(sent, \"Failed to send Ether\");\n        emit NFTSplitBuyBack(originalNFT, msg.sender, buyPercentage, buyBackPrice);\n\n    }\n\n    /**\n     * @dev method used to buy a piece of the original NFT from the original Owner\n     *\n     *\n     */\n\n    function buyPiecesFromOwner( uint256 amount) public payable notOriginalNFTOwner {\n        uint currentSupply = balanceOf(originalOwner, 1);\n        require(currentSupply - initialSellSupply >= amount, 'NFTSplitter: not enough pieces to buy');\n\n        require(originalOwner != msg.sender, 'NFTSplitter: you are the current nft owner');\n\n        uint piecePrice = (NFTPrice / pieces ) * amount;\n\n        require(msg.value >= piecePrice, 'NFTSplitter: not enough value to buy pieces');\n\n      //  ERC1155(address(this)).setApprovalForAll(buyer, true);\n        safeTransferFrom(originalOwner, msg.sender, 1, amount, \"\");\n        (bool sent, bytes memory data) = originalOwner.call{value: msg.value}(\"\");\n\n        emit NFTSplitSold(originalOwner, msg.sender, amount, piecePrice);\n        require(sent, \"Failed to send Ether\");\n    }\n\n    /**\n     * @dev this method will burn all the NFT pieces and it will transfer the original NFT to the new owner.\n     * This method can only be executed if the address owns all the pieces.\n     *\n     */\n    event log(address currentOwner, uint amount);\n    function withdrawOriginalNFT() public ownsAllPieces {\n\n        //require(pieces == ownedPieces, 'NFTSplitter: you should own all pieces to withdraw the original NFT');\n        uint256 amount = ERC1155(originalNFT).balanceOf(address(this), tokenId);\n        ERC1155(originalNFT).safeTransferFrom(\n            address(this),\n            msg.sender,\n            tokenId,\n            amount,\n            \"\"\n        );\n        //burn pieces\n        _burn(msg.sender, 1, pieces);\n        emit NFTWithdraw(originalNFT, msg.sender, amount);\n\n    }\n\n    function onERC1155Received(\n        address, /*_operator*/\n        address, /*_from*/\n        uint256 _id,\n        uint256, /*_amount*/\n        bytes calldata /*_data*/\n    ) external override returns (bytes4) {\n        return this.onERC1155Received.selector;\n    }\n\n    function onERC1155BatchReceived(\n        address, /*_operator*/\n        address, /*_from*/\n        uint256[] memory, /*_ids*/\n        uint256[] memory, /*_values*/\n        bytes memory /*_data*/\n    ) public pure override returns (bytes4) {\n         return this.onERC1155BatchReceived.selector;\n    }\n\n    // Function to receive Ether. msg.data must be empty\n    receive() external payable {}\n\n    // Fallback function is called when msg.data is not empty\n    fallback() external payable {}\n\n    function getBalance() public view returns (uint256) {\n        return address(this).balance;\n    }\n}\n",
  "sourcePath": "/home/dtutila/src/bootcamp/blockchain-developer-bootcamp-final-project/contracts/contracts/NFTSplitter.sol",
  "compiler": {
    "name": "solc",
    "version": "0.8.3+commit.8d00100c.Emscripten.clang"
  },
  "schemaVersion": "3.4.3",
  "updatedAt": "2021-11-24T23:09:28.845Z",
  "networkType": "ethereum",
  "devdoc": {
    "events": {
      "log(address,uint256)": {
        "details": "this method will burn all the NFT pieces and it will transfer the original NFT to the new owner. This method can only be executed if the address owns all the pieces."
      }
    },
    "kind": "dev",
    "methods": {
      "balanceOf(address,uint256)": {
        "details": "See {IERC1155-balanceOf}. Requirements: - `account` cannot be the zero address."
      },
      "balanceOfBatch(address[],uint256[])": {
        "details": "See {IERC1155-balanceOfBatch}. Requirements: - `accounts` and `ids` must have the same length."
      },
      "buyBackPieces(address,uint256)": {
        "details": "method used by the original NFT to buy back any piece that was sold"
      },
      "buyPiecesFromOwner(uint256)": {
        "details": "method used to buy a piece of the original NFT from the original Owner"
      },
      "isApprovedForAll(address,address)": {
        "details": "See {IERC1155-isApprovedForAll}."
      },
      "safeBatchTransferFrom(address,address,uint256[],uint256[],bytes)": {
        "details": "See {IERC1155-safeBatchTransferFrom}."
      },
      "safeTransferFrom(address,address,uint256,uint256,bytes)": {
        "details": "See {IERC1155-safeTransferFrom}."
      },
      "setApprovalForAll(address,bool)": {
        "details": "See {IERC1155-setApprovalForAll}."
      },
      "uri(uint256)": {
        "details": "this method will return the NFT uri",
        "returns": {
          "_0": "Original NFT uri"
        }
      }
    },
    "version": 1
  },
  "userdoc": {
    "kind": "user",
    "methods": {},
    "version": 1
  }
}