{
  "contractName": "NFTSplitter",
  "abi": [
    {
      "inputs": [],
      "stateMutability": "nonpayable",
      "type": "constructor"
    },
    {
      "anonymous": false,
      "inputs": [
        {
          "indexed": true,
          "internalType": "address",
          "name": "account",
          "type": "address"
        },
        {
          "indexed": true,
          "internalType": "address",
          "name": "operator",
          "type": "address"
        },
        {
          "indexed": false,
          "internalType": "bool",
          "name": "approved",
          "type": "bool"
        }
      ],
      "name": "ApprovalForAll",
      "type": "event"
    },
    {
      "anonymous": false,
      "inputs": [
        {
          "indexed": false,
          "internalType": "string",
          "name": "message",
          "type": "string"
        }
      ],
      "name": "Log",
      "type": "event"
    },
    {
      "anonymous": false,
      "inputs": [
        {
          "indexed": true,
          "internalType": "address",
          "name": "originalNFTAddress",
          "type": "address"
        },
        {
          "indexed": true,
          "internalType": "uint256",
          "name": "id",
          "type": "uint256"
        },
        {
          "indexed": true,
          "internalType": "uint256",
          "name": "pieces",
          "type": "uint256"
        },
        {
          "indexed": false,
          "internalType": "uint256",
          "name": "price",
          "type": "uint256"
        },
        {
          "indexed": false,
          "internalType": "uint256",
          "name": "percentage",
          "type": "uint256"
        }
      ],
      "name": "NFTSplit",
      "type": "event"
    },
    {
      "anonymous": false,
      "inputs": [
        {
          "indexed": true,
          "internalType": "address",
          "name": "originalNFTAddress",
          "type": "address"
        },
        {
          "indexed": true,
          "internalType": "address",
          "name": "buyer",
          "type": "address"
        },
        {
          "indexed": false,
          "internalType": "uint256",
          "name": "amount",
          "type": "uint256"
        },
        {
          "indexed": false,
          "internalType": "uint256",
          "name": "price",
          "type": "uint256"
        }
      ],
      "name": "NFTSplitBuyBack",
      "type": "event"
    },
    {
      "anonymous": false,
      "inputs": [
        {
          "indexed": true,
          "internalType": "address",
          "name": "pieceOwner",
          "type": "address"
        },
        {
          "indexed": true,
          "internalType": "address",
          "name": "buyer",
          "type": "address"
        },
        {
          "indexed": true,
          "internalType": "uint256",
          "name": "amount",
          "type": "uint256"
        },
        {
          "indexed": false,
          "internalType": "uint256",
          "name": "price",
          "type": "uint256"
        }
      ],
      "name": "NFTSplitSold",
      "type": "event"
    },
    {
      "anonymous": false,
      "inputs": [
        {
          "indexed": true,
          "internalType": "address",
          "name": "originalNFTAddress",
          "type": "address"
        },
        {
          "indexed": true,
          "internalType": "address",
          "name": "buyer",
          "type": "address"
        }
      ],
      "name": "NFTWithdraw",
      "type": "event"
    },
    {
      "anonymous": false,
      "inputs": [
        {
          "indexed": true,
          "internalType": "address",
          "name": "operator",
          "type": "address"
        },
        {
          "indexed": true,
          "internalType": "address",
          "name": "from",
          "type": "address"
        },
        {
          "indexed": true,
          "internalType": "address",
          "name": "to",
          "type": "address"
        },
        {
          "indexed": false,
          "internalType": "uint256[]",
          "name": "ids",
          "type": "uint256[]"
        },
        {
          "indexed": false,
          "internalType": "uint256[]",
          "name": "values",
          "type": "uint256[]"
        }
      ],
      "name": "TransferBatch",
      "type": "event"
    },
    {
      "anonymous": false,
      "inputs": [
        {
          "indexed": true,
          "internalType": "address",
          "name": "operator",
          "type": "address"
        },
        {
          "indexed": true,
          "internalType": "address",
          "name": "from",
          "type": "address"
        },
        {
          "indexed": true,
          "internalType": "address",
          "name": "to",
          "type": "address"
        },
        {
          "indexed": false,
          "internalType": "uint256",
          "name": "id",
          "type": "uint256"
        },
        {
          "indexed": false,
          "internalType": "uint256",
          "name": "value",
          "type": "uint256"
        }
      ],
      "name": "TransferSingle",
      "type": "event"
    },
    {
      "anonymous": false,
      "inputs": [
        {
          "indexed": false,
          "internalType": "string",
          "name": "value",
          "type": "string"
        },
        {
          "indexed": true,
          "internalType": "uint256",
          "name": "id",
          "type": "uint256"
        }
      ],
      "name": "URI",
      "type": "event"
    },
    {
      "stateMutability": "payable",
      "type": "fallback",
      "payable": true
    },
    {
      "inputs": [
        {
          "internalType": "address",
          "name": "account",
          "type": "address"
        },
        {
          "internalType": "uint256",
          "name": "id",
          "type": "uint256"
        }
      ],
      "name": "balanceOf",
      "outputs": [
        {
          "internalType": "uint256",
          "name": "",
          "type": "uint256"
        }
      ],
      "stateMutability": "view",
      "type": "function",
      "constant": true
    },
    {
      "inputs": [
        {
          "internalType": "address[]",
          "name": "accounts",
          "type": "address[]"
        },
        {
          "internalType": "uint256[]",
          "name": "ids",
          "type": "uint256[]"
        }
      ],
      "name": "balanceOfBatch",
      "outputs": [
        {
          "internalType": "uint256[]",
          "name": "",
          "type": "uint256[]"
        }
      ],
      "stateMutability": "view",
      "type": "function",
      "constant": true
    },
    {
      "inputs": [],
      "name": "buyPercentage",
      "outputs": [
        {
          "internalType": "uint128",
          "name": "",
          "type": "uint128"
        }
      ],
      "stateMutability": "view",
      "type": "function",
      "constant": true
    },
    {
      "inputs": [
        {
          "internalType": "address",
          "name": "account",
          "type": "address"
        },
        {
          "internalType": "address",
          "name": "operator",
          "type": "address"
        }
      ],
      "name": "isApprovedForAll",
      "outputs": [
        {
          "internalType": "bool",
          "name": "",
          "type": "bool"
        }
      ],
      "stateMutability": "view",
      "type": "function",
      "constant": true
    },
    {
      "inputs": [],
      "name": "name",
      "outputs": [
        {
          "internalType": "string",
          "name": "",
          "type": "string"
        }
      ],
      "stateMutability": "view",
      "type": "function",
      "constant": true
    },
    {
      "inputs": [],
      "name": "originalNFT",
      "outputs": [
        {
          "internalType": "address",
          "name": "",
          "type": "address"
        }
      ],
      "stateMutability": "view",
      "type": "function",
      "constant": true
    },
    {
      "inputs": [],
      "name": "originalOwner",
      "outputs": [
        {
          "internalType": "address",
          "name": "",
          "type": "address"
        }
      ],
      "stateMutability": "view",
      "type": "function",
      "constant": true
    },
    {
      "inputs": [],
      "name": "pieces",
      "outputs": [
        {
          "internalType": "uint8",
          "name": "",
          "type": "uint8"
        }
      ],
      "stateMutability": "view",
      "type": "function",
      "constant": true
    },
    {
      "inputs": [
        {
          "internalType": "address",
          "name": "from",
          "type": "address"
        },
        {
          "internalType": "address",
          "name": "to",
          "type": "address"
        },
        {
          "internalType": "uint256[]",
          "name": "ids",
          "type": "uint256[]"
        },
        {
          "internalType": "uint256[]",
          "name": "amounts",
          "type": "uint256[]"
        },
        {
          "internalType": "bytes",
          "name": "data",
          "type": "bytes"
        }
      ],
      "name": "safeBatchTransferFrom",
      "outputs": [],
      "stateMutability": "nonpayable",
      "type": "function"
    },
    {
      "inputs": [
        {
          "internalType": "address",
          "name": "operator",
          "type": "address"
        },
        {
          "internalType": "bool",
          "name": "approved",
          "type": "bool"
        }
      ],
      "name": "setApprovalForAll",
      "outputs": [],
      "stateMutability": "nonpayable",
      "type": "function"
    },
    {
      "inputs": [],
      "name": "settings",
      "outputs": [
        {
          "internalType": "address",
          "name": "",
          "type": "address"
        }
      ],
      "stateMutability": "view",
      "type": "function",
      "constant": true
    },
    {
      "inputs": [],
      "name": "symbol",
      "outputs": [
        {
          "internalType": "string",
          "name": "",
          "type": "string"
        }
      ],
      "stateMutability": "view",
      "type": "function",
      "constant": true
    },
    {
      "inputs": [],
      "name": "tokenId",
      "outputs": [
        {
          "internalType": "uint256",
          "name": "",
          "type": "uint256"
        }
      ],
      "stateMutability": "view",
      "type": "function",
      "constant": true
    },
    {
      "inputs": [],
      "name": "unitPrice",
      "outputs": [
        {
          "internalType": "uint256",
          "name": "",
          "type": "uint256"
        }
      ],
      "stateMutability": "view",
      "type": "function",
      "constant": true
    },
    {
      "inputs": [],
      "name": "version",
      "outputs": [
        {
          "internalType": "uint8",
          "name": "",
          "type": "uint8"
        }
      ],
      "stateMutability": "view",
      "type": "function",
      "constant": true
    },
    {
      "stateMutability": "payable",
      "type": "receive",
      "payable": true
    },
    {
      "inputs": [
        {
          "internalType": "string",
          "name": "newuri",
          "type": "string"
        }
      ],
      "name": "setURI",
      "outputs": [],
      "stateMutability": "nonpayable",
      "type": "function"
    },
    {
      "inputs": [
        {
          "internalType": "address",
          "name": "account",
          "type": "address"
        },
        {
          "internalType": "uint256",
          "name": "id",
          "type": "uint256"
        },
        {
          "internalType": "uint256",
          "name": "amount",
          "type": "uint256"
        },
        {
          "internalType": "bytes",
          "name": "data",
          "type": "bytes"
        }
      ],
      "name": "mint",
      "outputs": [],
      "stateMutability": "nonpayable",
      "type": "function"
    },
    {
      "inputs": [
        {
          "internalType": "address",
          "name": "to",
          "type": "address"
        },
        {
          "internalType": "uint256[]",
          "name": "ids",
          "type": "uint256[]"
        },
        {
          "internalType": "uint256[]",
          "name": "amounts",
          "type": "uint256[]"
        },
        {
          "internalType": "bytes",
          "name": "data",
          "type": "bytes"
        }
      ],
      "name": "mintBatch",
      "outputs": [],
      "stateMutability": "nonpayable",
      "type": "function"
    },
    {
      "inputs": [
        {
          "internalType": "bytes4",
          "name": "interfaceId",
          "type": "bytes4"
        }
      ],
      "name": "supportsInterface",
      "outputs": [
        {
          "internalType": "bool",
          "name": "",
          "type": "bool"
        }
      ],
      "stateMutability": "view",
      "type": "function",
      "constant": true
    },
    {
      "inputs": [
        {
          "internalType": "uint256",
          "name": "id",
          "type": "uint256"
        }
      ],
      "name": "uri",
      "outputs": [
        {
          "internalType": "string",
          "name": "",
          "type": "string"
        }
      ],
      "stateMutability": "view",
      "type": "function",
      "constant": true
    },
    {
      "inputs": [
        {
          "internalType": "address",
          "name": "account",
          "type": "address"
        },
        {
          "internalType": "uint256",
          "name": "id",
          "type": "uint256"
        },
        {
          "internalType": "uint256",
          "name": "value",
          "type": "uint256"
        }
      ],
      "name": "burn",
      "outputs": [],
      "stateMutability": "nonpayable",
      "type": "function"
    },
    {
      "inputs": [
        {
          "internalType": "address",
          "name": "account",
          "type": "address"
        },
        {
          "internalType": "uint256[]",
          "name": "ids",
          "type": "uint256[]"
        },
        {
          "internalType": "uint256[]",
          "name": "values",
          "type": "uint256[]"
        }
      ],
      "name": "burnBatch",
      "outputs": [],
      "stateMutability": "nonpayable",
      "type": "function"
    },
    {
      "inputs": [
        {
          "internalType": "address",
          "name": "from",
          "type": "address"
        },
        {
          "internalType": "address",
          "name": "to",
          "type": "address"
        },
        {
          "internalType": "uint256",
          "name": "id",
          "type": "uint256"
        },
        {
          "internalType": "uint256",
          "name": "amount",
          "type": "uint256"
        },
        {
          "internalType": "bytes",
          "name": "data",
          "type": "bytes"
        }
      ],
      "name": "safeTransferFrom",
      "outputs": [],
      "stateMutability": "nonpayable",
      "type": "function"
    },
    {
      "inputs": [
        {
          "internalType": "uint256",
          "name": "_tokenId",
          "type": "uint256"
        },
        {
          "internalType": "uint256",
          "name": "_price",
          "type": "uint256"
        },
        {
          "internalType": "uint128",
          "name": "_buyPercentage",
          "type": "uint128"
        },
        {
          "internalType": "uint8",
          "name": "_pieces",
          "type": "uint8"
        }
      ],
      "name": "splitMyNFT",
      "outputs": [],
      "stateMutability": "nonpayable",
      "type": "function"
    },
    {
      "inputs": [
        {
          "internalType": "address",
          "name": "_from",
          "type": "address"
        },
        {
          "internalType": "uint256",
          "name": "amount",
          "type": "uint256"
        }
      ],
      "name": "buyBackPieces",
      "outputs": [],
      "stateMutability": "payable",
      "type": "function",
      "payable": true
    },
    {
      "inputs": [
        {
          "internalType": "uint256",
          "name": "amount",
          "type": "uint256"
        }
      ],
      "name": "buyPiecesFromOwner",
      "outputs": [],
      "stateMutability": "payable",
      "type": "function",
      "payable": true
    },
    {
      "inputs": [],
      "name": "withdrawOriginalNFT",
      "outputs": [],
      "stateMutability": "nonpayable",
      "type": "function"
    },
    {
      "inputs": [
        {
          "internalType": "address",
          "name": "",
          "type": "address"
        },
        {
          "internalType": "address",
          "name": "",
          "type": "address"
        },
        {
          "internalType": "uint256",
          "name": "_id",
          "type": "uint256"
        },
        {
          "internalType": "uint256",
          "name": "",
          "type": "uint256"
        },
        {
          "internalType": "bytes",
          "name": "",
          "type": "bytes"
        }
      ],
      "name": "onERC1155Received",
      "outputs": [
        {
          "internalType": "bytes4",
          "name": "",
          "type": "bytes4"
        }
      ],
      "stateMutability": "nonpayable",
      "type": "function"
    },
    {
      "inputs": [
        {
          "internalType": "address",
          "name": "",
          "type": "address"
        },
        {
          "internalType": "address",
          "name": "",
          "type": "address"
        },
        {
          "internalType": "uint256[]",
          "name": "",
          "type": "uint256[]"
        },
        {
          "internalType": "uint256[]",
          "name": "",
          "type": "uint256[]"
        },
        {
          "internalType": "bytes",
          "name": "",
          "type": "bytes"
        }
      ],
      "name": "onERC1155BatchReceived",
      "outputs": [
        {
          "internalType": "bytes4",
          "name": "",
          "type": "bytes4"
        }
      ],
      "stateMutability": "pure",
      "type": "function",
      "constant": true
    },
    {
      "inputs": [],
      "name": "getBalance",
      "outputs": [
        {
          "internalType": "uint256",
          "name": "",
          "type": "uint256"
        }
      ],
      "stateMutability": "view",
      "type": "function",
      "constant": true
    },
    {
      "inputs": [],
      "name": "withdraw",
      "outputs": [],
      "stateMutability": "nonpayable",
      "type": "function"
    }
  ],
  "bytecode": "0x60806040523480156200001157600080fd5b50604051806020016040528060008152506200003381620000de60201b60201c565b506001600c819055506040518060400160405280600c81526020017f4e46542053706c697474657200000000000000000000000000000000000000008152506006908051906020019062000089929190620000fa565b506040518060400160405280600481526020017f4e4654530000000000000000000000000000000000000000000000000000000081525060079080519060200190620000d7929190620000fa565b506200020f565b80600a9080519060200190620000f6929190620000fa565b5050565b8280546200010890620001aa565b90600052602060002090601f0160209004810192826200012c576000855562000178565b82601f106200014757805160ff191683800117855562000178565b8280016001018555821562000178579182015b82811115620001775782518255916020019190600101906200015a565b5b5090506200018791906200018b565b5090565b5b80821115620001a65760008160009055506001016200018c565b5090565b60006002820490506001821680620001c357607f821691505b60208210811415620001da57620001d9620001e0565b5b50919050565b7f4e487b7100000000000000000000000000000000000000000000000000000000600052602260045260246000fd5b6157da806200021f6000396000f3fe6080604052600436106101db5760003560e01c806354fd4d5011610102578063c22378cc11610095578063f1fffdcb11610064578063f1fffdcb14610685578063f23a6e61146106b0578063f242432a146106ed578063f5298aca14610716576101e2565b8063c22378cc146105d6578063e06174e4146105f2578063e73faa2d1461061d578063e985e9c514610648576101e2565b806395d89b41116100d157806395d89b411461052e578063a22cb46514610559578063b875a94f14610582578063bc197c8114610599576101e2565b806354fd4d501461048857806367306916146104b35780636b20c454146104dc578063731133e914610505576101e2565b806316f8bfcc1161017a5780631f7fdffa116101495780631f7fdffa146103e25780632eb2c2d61461040b5780633ccfd60b146104345780634e1273f41461044b576101e2565b806316f8bfcc14610345578063176740361461036157806317d70f7c1461038c5780631d3d81d6146103b7576101e2565b806304e9da5a116101b657806304e9da5a1461028757806306fdde03146102b25780630e89341c146102dd57806312065fe01461031a576101e2565b8062fdd58e146101e457806301ffc9a71461022157806302fe53051461025e576101e2565b366101e257005b005b3480156101f057600080fd5b5061020b60048036038101906102069190613951565b61073f565b60405161021891906148bb565b60405180910390f35b34801561022d57600080fd5b5061024860048036038101906102439190613aec565b610809565b604051610255919061449f565b60405180910390f35b34801561026a57600080fd5b5061028560048036038101906102809190613b3e565b61081b565b005b34801561029357600080fd5b5061029c610820565b6040516102a99190614877565b60405180910390f35b3480156102be57600080fd5b506102c7610842565b6040516102d491906144d5565b60405180910390f35b3480156102e957600080fd5b5061030460048036038101906102ff9190613bc0565b6108d0565b60405161031191906144d5565b60405180910390f35b34801561032657600080fd5b5061032f610989565b60405161033c91906148bb565b60405180910390f35b61035f600480360381019061035a9190613951565b610991565b005b34801561036d57600080fd5b50610376610cab565b6040516103839190614928565b60405180910390f35b34801561039857600080fd5b506103a1610cbc565b6040516103ae91906148bb565b60405180910390f35b3480156103c357600080fd5b506103cc610cc2565b6040516103d991906142bf565b60405180910390f35b3480156103ee57600080fd5b506104096004803603810190610404919061386a565b610ce8565b005b34801561041757600080fd5b50610432600480360381019061042d919061360b565b610d23565b005b34801561044057600080fd5b50610449610dc4565b005b34801561045757600080fd5b50610472600480360381019061046d9190613a57565b610e56565b60405161047f9190614446565b60405180910390f35b34801561049457600080fd5b5061049d611007565b6040516104aa9190614928565b60405180910390f35b3480156104bf57600080fd5b506104da60048036038101906104d59190613c12565b61100c565b005b3480156104e857600080fd5b5061050360048036038101906104fe91906137eb565b6116a4565b005b34801561051157600080fd5b5061052c600480360381019061052791906139dc565b6116df565b005b34801561053a57600080fd5b5061054361171a565b60405161055091906144d5565b60405180910390f35b34801561056557600080fd5b50610580600480360381019061057b9190613915565b6117a8565b005b34801561058e57600080fd5b50610597611929565b005b3480156105a557600080fd5b506105c060048036038101906105bb919061360b565b611bb9565b6040516105cd91906144ba565b60405180910390f35b6105f060048036038101906105eb9190613bc0565b611bce565b005b3480156105fe57600080fd5b50610607611faf565b60405161061491906142bf565b60405180910390f35b34801561062957600080fd5b50610632611fd5565b60405161063f91906148bb565b60405180910390f35b34801561065457600080fd5b5061066f600480360381019061066a91906135cf565b611fdb565b60405161067c919061449f565b60405180910390f35b34801561069157600080fd5b5061069a61206f565b6040516106a791906142bf565b60405180910390f35b3480156106bc57600080fd5b506106d760048036038101906106d291906136ca565b612095565b6040516106e491906144ba565b60405180910390f35b3480156106f957600080fd5b50610714600480360381019061070f919061375c565b6120ab565b005b34801561072257600080fd5b5061073d6004803603810190610738919061398d565b6121cf565b005b60008073ffffffffffffffffffffffffffffffffffffffff168373ffffffffffffffffffffffffffffffffffffffff1614156107b0576040517f08c379a00000000000000000000000000000000000000000000000000000000081526004016107a790614557565b60405180910390fd5b6008600083815260200190815260200160002060008473ffffffffffffffffffffffffffffffffffffffff1673ffffffffffffffffffffffffffffffffffffffff16815260200190815260200160002054905092915050565b60006108148261220a565b9050919050565b600080fd5b600060019054906101000a90046fffffffffffffffffffffffffffffffff1681565b6006805461084f90614c7b565b80601f016020809104026020016040519081016040528092919081815260200182805461087b90614c7b565b80156108c85780601f1061089d576101008083540402835291602001916108c8565b820191906000526020600020905b8154815290600101906020018083116108ab57829003601f168201915b505050505081565b6060600360009054906101000a900473ffffffffffffffffffffffffffffffffffffffff1673ffffffffffffffffffffffffffffffffffffffff16630e89341c836040518263ffffffff1660e01b815260040161092d91906148bb565b60006040518083038186803b15801561094557600080fd5b505afa158015610959573d6000803e3d6000fd5b505050506040513d6000823e3d601f19601f820116820180604052508101906109829190613b7f565b9050919050565b600047905090565b3373ffffffffffffffffffffffffffffffffffffffff16600460009054906101000a900473ffffffffffffffffffffffffffffffffffffffff1673ffffffffffffffffffffffffffffffffffffffff1614610a21576040517f08c379a0000000000000000000000000000000000000000000000000000000008152600401610a1890614697565b60405180910390fd5b6002600c541415610a67576040517f08c379a0000000000000000000000000000000000000000000000000000000008152600401610a5e90614837565b60405180910390fd5b6002600c819055506000610a7d8360025461073f565b90506000826064600060019054906101000a90046fffffffffffffffffffffffffffffffff166fffffffffffffffffffffffffffffffff16600154610ac29190614b30565b610acc9190614aff565b600154610ad99190614aa9565b610ae39190614b30565b905080341015610b28576040517f08c379a0000000000000000000000000000000000000000000000000000000008152600401610b1f90614537565b60405180910390fd5b610b46843360025486604051806020016040528060008152506122ec565b6000808573ffffffffffffffffffffffffffffffffffffffff1683604051610b6d906142aa565b60006040518083038185875af1925050503d8060008114610baa576040519150601f19603f3d011682016040523d82523d6000602084013e610baf565b606091505b509150915081610bf4576040517f08c379a0000000000000000000000000000000000000000000000000000000008152600401610beb906145b7565b60405180910390fd5b3373ffffffffffffffffffffffffffffffffffffffff16600360009054906101000a900473ffffffffffffffffffffffffffffffffffffffff1673ffffffffffffffffffffffffffffffffffffffff167fd5663b7e74dd83da02889d52250b473b5039a7eff2bd9d93534e2a947fb32a79600060019054906101000a90046fffffffffffffffffffffffffffffffff1686604051610c93929190614892565b60405180910390a3505050506001600c819055505050565b60008054906101000a900460ff1681565b60025481565b600360009054906101000a900473ffffffffffffffffffffffffffffffffffffffff1681565b6040517f08c379a0000000000000000000000000000000000000000000000000000000008152600401610d1a90614677565b60405180910390fd5b610d2b612571565b73ffffffffffffffffffffffffffffffffffffffff168573ffffffffffffffffffffffffffffffffffffffff161480610d715750610d7085610d6b612571565b611fdb565b5b610db0576040517f08c379a0000000000000000000000000000000000000000000000000000000008152600401610da790614657565b60405180910390fd5b610dbd8585858585612579565b5050505050565b3373ffffffffffffffffffffffffffffffffffffffff16600460009054906101000a900473ffffffffffffffffffffffffffffffffffffffff1673ffffffffffffffffffffffffffffffffffffffff1614610e54576040517f08c379a0000000000000000000000000000000000000000000000000000000008152600401610e4b90614697565b60405180910390fd5b565b60608151835114610e9c576040517f08c379a0000000000000000000000000000000000000000000000000000000008152600401610e93906147b7565b60405180910390fd5b6000835167ffffffffffffffff811115610edf577f4e487b7100000000000000000000000000000000000000000000000000000000600052604160045260246000fd5b604051908082528060200260200182016040528015610f0d5781602001602082028036833780820191505090505b50905060005b8451811015610ffc57610fa6858281518110610f58577f4e487b7100000000000000000000000000000000000000000000000000000000600052603260045260246000fd5b6020026020010151858381518110610f99577f4e487b7100000000000000000000000000000000000000000000000000000000600052603260045260246000fd5b602002602001015161073f565b828281518110610fdf577f4e487b7100000000000000000000000000000000000000000000000000000000600052603260045260246000fd5b60200260200101818152505080610ff590614cde565b9050610f13565b508091505092915050565b600181565b3373ffffffffffffffffffffffffffffffffffffffff16600460009054906101000a900473ffffffffffffffffffffffffffffffffffffffff1673ffffffffffffffffffffffffffffffffffffffff161461109c576040517f08c379a000000000000000000000000000000000000000000000000000000000815260040161109390614697565b60405180910390fd5b6000600154146110e1576040517f08c379a00000000000000000000000000000000000000000000000000000000081526004016110d890614737565b60405180910390fd5b60008311611124576040517f08c379a000000000000000000000000000000000000000000000000000000000815260040161111b906147d7565b60405180910390fd5b60008160ff161161116a576040517f08c379a0000000000000000000000000000000000000000000000000000000008152600401611161906146b7565b60405180910390fd5b6000826fffffffffffffffffffffffffffffffff16116111bf576040517f08c379a00000000000000000000000000000000000000000000000000000000081526004016111b690614757565b60405180910390fd5b8260018190555083600281905550806000806101000a81548160ff021916908360ff16021790555081600060016101000a8154816fffffffffffffffffffffffffffffffff02191690836fffffffffffffffffffffffffffffffff16021790555033600460006101000a81548173ffffffffffffffffffffffffffffffffffffffff021916908373ffffffffffffffffffffffffffffffffffffffff160217905550600360009054906101000a900473ffffffffffffffffffffffffffffffffffffffff1673ffffffffffffffffffffffffffffffffffffffff166306fdde036040518163ffffffff1660e01b815260040160006040518083038186803b1580156112c957600080fd5b505afa9250505080156112ff57506040513d6000823e3d601f19601f820116820180604052508101906112fc9190613b7f565b60015b61133d577fcf34ef537ac33ee1ac626ca1587a0a7e8e51561e5514f8cb36afa1c5102b3bab60405161133090614617565b60405180910390a1611375565b8060405160200161134e9190614266565b604051602081830303815290604052600690805190602001906113729291906131c1565b50505b600360009054906101000a900473ffffffffffffffffffffffffffffffffffffffff1673ffffffffffffffffffffffffffffffffffffffff166395d89b416040518163ffffffff1660e01b815260040160006040518083038186803b1580156113dd57600080fd5b505afa92505050801561141357506040513d6000823e3d601f19601f820116820180604052508101906114109190613b7f565b60015b611451577fcf34ef537ac33ee1ac626ca1587a0a7e8e51561e5514f8cb36afa1c5102b3bab60405161144490614617565b60405180910390a1611489565b806040516020016114629190614288565b604051602081830303815290604052600790805190602001906114869291906131c1565b50505b6114b63360025460008054906101000a900460ff1660ff16604051806020016040528060008152506128dc565b600360009054906101000a900473ffffffffffffffffffffffffffffffffffffffff1673ffffffffffffffffffffffffffffffffffffffff1663f242432a3330600254600360009054906101000a900473ffffffffffffffffffffffffffffffffffffffff1673ffffffffffffffffffffffffffffffffffffffff1662fdd58e336002546040518363ffffffff1660e01b815260040161155792919061441d565b60206040518083038186803b15801561156f57600080fd5b505afa158015611583573d6000803e3d6000fd5b505050506040513d601f19601f820116820180604052508101906115a79190613be9565b6040518563ffffffff1660e01b81526004016115c694939291906143c5565b600060405180830381600087803b1580156115e057600080fd5b505af11580156115f4573d6000803e3d6000fd5b5050505060008054906101000a900460ff1660ff16600254600360009054906101000a900473ffffffffffffffffffffffffffffffffffffffff1673ffffffffffffffffffffffffffffffffffffffff167f8eda9f7baecedb63b5885e935f8ec07ef838565094b025bc96b75ca8a1eaab34600154600060019054906101000a90046fffffffffffffffffffffffffffffffff166040516116969291906148d6565b60405180910390a450505050565b6040517f08c379a00000000000000000000000000000000000000000000000000000000081526004016116d690614677565b60405180910390fd5b6040517f08c379a000000000000000000000000000000000000000000000000000000000815260040161171190614677565b60405180910390fd5b6007805461172790614c7b565b80601f016020809104026020016040519081016040528092919081815260200182805461175390614c7b565b80156117a05780601f10611775576101008083540402835291602001916117a0565b820191906000526020600020905b81548152906001019060200180831161178357829003601f168201915b505050505081565b8173ffffffffffffffffffffffffffffffffffffffff166117c7612571565b73ffffffffffffffffffffffffffffffffffffffff16141561181e576040517f08c379a000000000000000000000000000000000000000000000000000000000815260040161181590614797565b60405180910390fd5b806009600061182b612571565b73ffffffffffffffffffffffffffffffffffffffff1673ffffffffffffffffffffffffffffffffffffffff16815260200190815260200160002060008473ffffffffffffffffffffffffffffffffffffffff1673ffffffffffffffffffffffffffffffffffffffff16815260200190815260200160002060006101000a81548160ff0219169083151502179055508173ffffffffffffffffffffffffffffffffffffffff166118d8612571565b73ffffffffffffffffffffffffffffffffffffffff167f17307eab39ab6107e8899845ad3d59bd9653f200f220920489ca2b5937696c318360405161191d919061449f565b60405180910390a35050565b60008054906101000a900460ff1660ff166119463360025461073f565b14611986576040517f08c379a000000000000000000000000000000000000000000000000000000000815260040161197d90614717565b60405180910390fd5b6002600c5414156119cc576040517f08c379a00000000000000000000000000000000000000000000000000000000081526004016119c390614837565b60405180910390fd5b6002600c819055506119f13360025460008054906101000a900460ff1660ff16612a73565b600360009054906101000a900473ffffffffffffffffffffffffffffffffffffffff1673ffffffffffffffffffffffffffffffffffffffff1663f242432a3033600254600360009054906101000a900473ffffffffffffffffffffffffffffffffffffffff1673ffffffffffffffffffffffffffffffffffffffff1662fdd58e306002546040518363ffffffff1660e01b8152600401611a9292919061441d565b60206040518083038186803b158015611aaa57600080fd5b505afa158015611abe573d6000803e3d6000fd5b505050506040513d601f19601f82011682018060405250810190611ae29190613be9565b6040518563ffffffff1660e01b8152600401611b0194939291906143c5565b600060405180830381600087803b158015611b1b57600080fd5b505af1158015611b2f573d6000803e3d6000fd5b505050503373ffffffffffffffffffffffffffffffffffffffff16600360009054906101000a900473ffffffffffffffffffffffffffffffffffffffff1673ffffffffffffffffffffffffffffffffffffffff167f31feb898858079f9a65f9613eee76e0b1a19364a4d3af0a2f959adef6d8af82660405160405180910390a36001600c81905550565b600063bc197c8160e01b905095945050505050565b3373ffffffffffffffffffffffffffffffffffffffff16600460009054906101000a900473ffffffffffffffffffffffffffffffffffffffff1673ffffffffffffffffffffffffffffffffffffffff161415611c5f576040517f08c379a0000000000000000000000000000000000000000000000000000000008152600401611c5690614777565b60405180910390fd5b6002600c541415611ca5576040517f08c379a0000000000000000000000000000000000000000000000000000000008152600401611c9c90614837565b60405180910390fd5b6002600c819055506000611cdd600460009054906101000a900473ffffffffffffffffffffffffffffffffffffffff1660025461073f565b905081811015611d22576040517f08c379a0000000000000000000000000000000000000000000000000000000008152600401611d1990614597565b60405180910390fd5b3373ffffffffffffffffffffffffffffffffffffffff16600460009054906101000a900473ffffffffffffffffffffffffffffffffffffffff1673ffffffffffffffffffffffffffffffffffffffff161415611db3576040517f08c379a0000000000000000000000000000000000000000000000000000000008152600401611daa90614857565b60405180910390fd5b600082600154611dc39190614b30565b905080341015611e08576040517f08c379a0000000000000000000000000000000000000000000000000000000008152600401611dff906145f7565b60405180910390fd5b611e48600460009054906101000a900473ffffffffffffffffffffffffffffffffffffffff163360025486604051806020016040528060008152506122ec565b600080600460009054906101000a900473ffffffffffffffffffffffffffffffffffffffff1673ffffffffffffffffffffffffffffffffffffffff1634604051611e91906142aa565b60006040518083038185875af1925050503d8060008114611ece576040519150601f19603f3d011682016040523d82523d6000602084013e611ed3565b606091505b5091509150843373ffffffffffffffffffffffffffffffffffffffff16600460009054906101000a900473ffffffffffffffffffffffffffffffffffffffff1673ffffffffffffffffffffffffffffffffffffffff167f70cd864c0863dd4b53c1c2e09e5affab9b63d1497282919be454186dbe56f80c86604051611f5891906148bb565b60405180910390a481611fa0576040517f08c379a0000000000000000000000000000000000000000000000000000000008152600401611f97906145b7565b60405180910390fd5b505050506001600c8190555050565b600560009054906101000a900473ffffffffffffffffffffffffffffffffffffffff1681565b60015481565b6000600960008473ffffffffffffffffffffffffffffffffffffffff1673ffffffffffffffffffffffffffffffffffffffff16815260200190815260200160002060008373ffffffffffffffffffffffffffffffffffffffff1673ffffffffffffffffffffffffffffffffffffffff16815260200190815260200160002060009054906101000a900460ff16905092915050565b600460009054906101000a900473ffffffffffffffffffffffffffffffffffffffff1681565b600063f23a6e6160e01b90509695505050505050565b600560009054906101000a900473ffffffffffffffffffffffffffffffffffffffff1673ffffffffffffffffffffffffffffffffffffffff1663d37531aa600360009054906101000a900473ffffffffffffffffffffffffffffffffffffffff16306040518363ffffffff1660e01b815260040161212a9291906142da565b602060405180830381600087803b15801561214457600080fd5b505af1158015612158573d6000803e3d6000fd5b505050506040513d601f19601f8201168201806040525081019061217c9190613ac3565b6121bb576040517f08c379a00000000000000000000000000000000000000000000000000000000081526004016121b2906145d7565b60405180910390fd5b6121c885858585856122ec565b5050505050565b6040517f08c379a000000000000000000000000000000000000000000000000000000000815260040161220190614677565b60405180910390fd5b60007fd9b67a26000000000000000000000000000000000000000000000000000000007bffffffffffffffffffffffffffffffffffffffffffffffffffffffff1916827bffffffffffffffffffffffffffffffffffffffffffffffffffffffff191614806122d557507f0e89341c000000000000000000000000000000000000000000000000000000007bffffffffffffffffffffffffffffffffffffffffffffffffffffffff1916827bffffffffffffffffffffffffffffffffffffffffffffffffffffffff1916145b806122e557506122e482612c92565b5b9050919050565b600073ffffffffffffffffffffffffffffffffffffffff168473ffffffffffffffffffffffffffffffffffffffff16141561235c576040517f08c379a000000000000000000000000000000000000000000000000000000000815260040161235390614637565b60405180910390fd5b6000612366612571565b905061238681878761237788612cfc565b61238088612cfc565b87612dc2565b60006008600086815260200190815260200160002060008873ffffffffffffffffffffffffffffffffffffffff1673ffffffffffffffffffffffffffffffffffffffff1681526020019081526020016000205490508381101561241e576040517f08c379a0000000000000000000000000000000000000000000000000000000008152600401612415906146f7565b60405180910390fd5b8381036008600087815260200190815260200160002060008973ffffffffffffffffffffffffffffffffffffffff1673ffffffffffffffffffffffffffffffffffffffff16815260200190815260200160002081905550836008600087815260200190815260200160002060008873ffffffffffffffffffffffffffffffffffffffff1673ffffffffffffffffffffffffffffffffffffffff16815260200190815260200160002060008282546124d59190614aa9565b925050819055508573ffffffffffffffffffffffffffffffffffffffff168773ffffffffffffffffffffffffffffffffffffffff168373ffffffffffffffffffffffffffffffffffffffff167fc3d58168c5ae7397731d063d5bbf3d657854427343f4c083240f7aacaa2d0f6288886040516125529291906148ff565b60405180910390a4612568828888888888612dd8565b50505050505050565b600033905090565b81518351146125bd576040517f08c379a00000000000000000000000000000000000000000000000000000000081526004016125b4906147f7565b60405180910390fd5b600073ffffffffffffffffffffffffffffffffffffffff168473ffffffffffffffffffffffffffffffffffffffff16141561262d576040517f08c379a000000000000000000000000000000000000000000000000000000000815260040161262490614637565b60405180910390fd5b6000612637612571565b9050612647818787878787612dc2565b60005b845181101561284757600085828151811061268e577f4e487b7100000000000000000000000000000000000000000000000000000000600052603260045260246000fd5b6020026020010151905060008583815181106126d3577f4e487b7100000000000000000000000000000000000000000000000000000000600052603260045260246000fd5b6020026020010151905060006008600084815260200190815260200160002060008b73ffffffffffffffffffffffffffffffffffffffff1673ffffffffffffffffffffffffffffffffffffffff16815260200190815260200160002054905081811015612775576040517f08c379a000000000000000000000000000000000000000000000000000000000815260040161276c906146f7565b60405180910390fd5b8181036008600085815260200190815260200160002060008c73ffffffffffffffffffffffffffffffffffffffff1673ffffffffffffffffffffffffffffffffffffffff16815260200190815260200160002081905550816008600085815260200190815260200160002060008b73ffffffffffffffffffffffffffffffffffffffff1673ffffffffffffffffffffffffffffffffffffffff168152602001908152602001600020600082825461282c9190614aa9565b925050819055505050508061284090614cde565b905061264a565b508473ffffffffffffffffffffffffffffffffffffffff168673ffffffffffffffffffffffffffffffffffffffff168273ffffffffffffffffffffffffffffffffffffffff167f4a39dc06d4c0dbc64b70af90fd698a233a518aa5d07e595d983b8c0526c8f7fb87876040516128be929190614468565b60405180910390a46128d4818787878787612fbf565b505050505050565b600073ffffffffffffffffffffffffffffffffffffffff168473ffffffffffffffffffffffffffffffffffffffff16141561294c576040517f08c379a000000000000000000000000000000000000000000000000000000000815260040161294390614817565b60405180910390fd5b6000612956612571565b90506129778160008761296888612cfc565b61297188612cfc565b87612dc2565b826008600086815260200190815260200160002060008773ffffffffffffffffffffffffffffffffffffffff1673ffffffffffffffffffffffffffffffffffffffff16815260200190815260200160002060008282546129d79190614aa9565b925050819055508473ffffffffffffffffffffffffffffffffffffffff16600073ffffffffffffffffffffffffffffffffffffffff168273ffffffffffffffffffffffffffffffffffffffff167fc3d58168c5ae7397731d063d5bbf3d657854427343f4c083240f7aacaa2d0f628787604051612a559291906148ff565b60405180910390a4612a6c81600087878787612dd8565b5050505050565b600073ffffffffffffffffffffffffffffffffffffffff168373ffffffffffffffffffffffffffffffffffffffff161415612ae3576040517f08c379a0000000000000000000000000000000000000000000000000000000008152600401612ada906146d7565b60405180910390fd5b6000612aed612571565b9050612b1d81856000612aff87612cfc565b612b0887612cfc565b60405180602001604052806000815250612dc2565b60006008600085815260200190815260200160002060008673ffffffffffffffffffffffffffffffffffffffff1673ffffffffffffffffffffffffffffffffffffffff16815260200190815260200160002054905082811015612bb5576040517f08c379a0000000000000000000000000000000000000000000000000000000008152600401612bac90614577565b60405180910390fd5b8281036008600086815260200190815260200160002060008773ffffffffffffffffffffffffffffffffffffffff1673ffffffffffffffffffffffffffffffffffffffff16815260200190815260200160002081905550600073ffffffffffffffffffffffffffffffffffffffff168573ffffffffffffffffffffffffffffffffffffffff168373ffffffffffffffffffffffffffffffffffffffff167fc3d58168c5ae7397731d063d5bbf3d657854427343f4c083240f7aacaa2d0f628787604051612c839291906148ff565b60405180910390a45050505050565b60007f01ffc9a7000000000000000000000000000000000000000000000000000000007bffffffffffffffffffffffffffffffffffffffffffffffffffffffff1916827bffffffffffffffffffffffffffffffffffffffffffffffffffffffff1916149050919050565b60606000600167ffffffffffffffff811115612d41577f4e487b7100000000000000000000000000000000000000000000000000000000600052604160045260246000fd5b604051908082528060200260200182016040528015612d6f5781602001602082028036833780820191505090505b5090508281600081518110612dad577f4e487b7100000000000000000000000000000000000000000000000000000000600052603260045260246000fd5b60200260200101818152505080915050919050565b612dd08686868686866131a6565b505050505050565b612df78473ffffffffffffffffffffffffffffffffffffffff166131ae565b15612fb7578373ffffffffffffffffffffffffffffffffffffffff1663f23a6e6187878686866040518663ffffffff1660e01b8152600401612e3d95949392919061436b565b602060405180830381600087803b158015612e5757600080fd5b505af1925050508015612e8857506040513d601f19601f82011682018060405250810190612e859190613b15565b60015b612f2e57612e94614de3565b806308c379a01415612ef15750612ea9615684565b80612eb45750612ef3565b806040517f08c379a0000000000000000000000000000000000000000000000000000000008152600401612ee891906144d5565b60405180910390fd5b505b6040517f08c379a0000000000000000000000000000000000000000000000000000000008152600401612f25906144f7565b60405180910390fd5b63f23a6e6160e01b7bffffffffffffffffffffffffffffffffffffffffffffffffffffffff1916817bffffffffffffffffffffffffffffffffffffffffffffffffffffffff191614612fb5576040517f08c379a0000000000000000000000000000000000000000000000000000000008152600401612fac90614517565b60405180910390fd5b505b505050505050565b612fde8473ffffffffffffffffffffffffffffffffffffffff166131ae565b1561319e578373ffffffffffffffffffffffffffffffffffffffff1663bc197c8187878686866040518663ffffffff1660e01b8152600401613024959493929190614303565b602060405180830381600087803b15801561303e57600080fd5b505af192505050801561306f57506040513d601f19601f8201168201806040525081019061306c9190613b15565b60015b6131155761307b614de3565b806308c379a014156130d85750613090615684565b8061309b57506130da565b806040517f08c379a00000000000000000000000000000000000000000000000000000000081526004016130cf91906144d5565b60405180910390fd5b505b6040517f08c379a000000000000000000000000000000000000000000000000000000000815260040161310c906144f7565b60405180910390fd5b63bc197c8160e01b7bffffffffffffffffffffffffffffffffffffffffffffffffffffffff1916817bffffffffffffffffffffffffffffffffffffffffffffffffffffffff19161461319c576040517f08c379a000000000000000000000000000000000000000000000000000000000815260040161319390614517565b60405180910390fd5b505b505050505050565b505050505050565b600080823b905060008111915050919050565b8280546131cd90614c7b565b90600052602060002090601f0160209004810192826131ef5760008555613236565b82601f1061320857805160ff1916838001178555613236565b82800160010185558215613236579182015b8281111561323557825182559160200191906001019061321a565b5b5090506132439190613247565b5090565b5b80821115613260576000816000905550600101613248565b5090565b600061327761327284614968565b614943565b9050808382526020820190508285602086028201111561329657600080fd5b60005b858110156132c657816132ac88826133f6565b845260208401935060208301925050600181019050613299565b5050509392505050565b60006132e36132de84614994565b614943565b9050808382526020820190508285602086028201111561330257600080fd5b60005b8581101561333257816133188882613590565b845260208401935060208301925050600181019050613305565b5050509392505050565b600061334f61334a846149c0565b614943565b90508281526020810184848401111561336757600080fd5b613372848285614c39565b509392505050565b600061338d613388846149f1565b614943565b9050828152602081018484840111156133a557600080fd5b6133b0848285614c39565b509392505050565b60006133cb6133c6846149f1565b614943565b9050828152602081018484840111156133e357600080fd5b6133ee848285614c48565b509392505050565b6000813590506134058161571a565b92915050565b600082601f83011261341c57600080fd5b813561342c848260208601613264565b91505092915050565b600082601f83011261344657600080fd5b81356134568482602086016132d0565b91505092915050565b60008135905061346e81615731565b92915050565b60008151905061348381615731565b92915050565b60008135905061349881615748565b92915050565b6000815190506134ad81615748565b92915050565b60008083601f8401126134c557600080fd5b8235905067ffffffffffffffff8111156134de57600080fd5b6020830191508360018202830111156134f657600080fd5b9250929050565b600082601f83011261350e57600080fd5b813561351e84826020860161333c565b91505092915050565b600082601f83011261353857600080fd5b813561354884826020860161337a565b91505092915050565b600082601f83011261356257600080fd5b81516135728482602086016133b8565b91505092915050565b60008135905061358a8161575f565b92915050565b60008135905061359f81615776565b92915050565b6000815190506135b481615776565b92915050565b6000813590506135c98161578d565b92915050565b600080604083850312156135e257600080fd5b60006135f0858286016133f6565b9250506020613601858286016133f6565b9150509250929050565b600080600080600060a0868803121561362357600080fd5b6000613631888289016133f6565b9550506020613642888289016133f6565b945050604086013567ffffffffffffffff81111561365f57600080fd5b61366b88828901613435565b935050606086013567ffffffffffffffff81111561368857600080fd5b61369488828901613435565b925050608086013567ffffffffffffffff8111156136b157600080fd5b6136bd888289016134fd565b9150509295509295909350565b60008060008060008060a087890312156136e357600080fd5b60006136f189828a016133f6565b965050602061370289828a016133f6565b955050604061371389828a01613590565b945050606061372489828a01613590565b935050608087013567ffffffffffffffff81111561374157600080fd5b61374d89828a016134b3565b92509250509295509295509295565b600080600080600060a0868803121561377457600080fd5b6000613782888289016133f6565b9550506020613793888289016133f6565b94505060406137a488828901613590565b93505060606137b588828901613590565b925050608086013567ffffffffffffffff8111156137d257600080fd5b6137de888289016134fd565b9150509295509295909350565b60008060006060848603121561380057600080fd5b600061380e868287016133f6565b935050602084013567ffffffffffffffff81111561382b57600080fd5b61383786828701613435565b925050604084013567ffffffffffffffff81111561385457600080fd5b61386086828701613435565b9150509250925092565b6000806000806080858703121561388057600080fd5b600061388e878288016133f6565b945050602085013567ffffffffffffffff8111156138ab57600080fd5b6138b787828801613435565b935050604085013567ffffffffffffffff8111156138d457600080fd5b6138e087828801613435565b925050606085013567ffffffffffffffff8111156138fd57600080fd5b613909878288016134fd565b91505092959194509250565b6000806040838503121561392857600080fd5b6000613936858286016133f6565b92505060206139478582860161345f565b9150509250929050565b6000806040838503121561396457600080fd5b6000613972858286016133f6565b925050602061398385828601613590565b9150509250929050565b6000806000606084860312156139a257600080fd5b60006139b0868287016133f6565b93505060206139c186828701613590565b92505060406139d286828701613590565b9150509250925092565b600080600080608085870312156139f257600080fd5b6000613a00878288016133f6565b9450506020613a1187828801613590565b9350506040613a2287828801613590565b925050606085013567ffffffffffffffff811115613a3f57600080fd5b613a4b878288016134fd565b91505092959194509250565b60008060408385031215613a6a57600080fd5b600083013567ffffffffffffffff811115613a8457600080fd5b613a908582860161340b565b925050602083013567ffffffffffffffff811115613aad57600080fd5b613ab985828601613435565b9150509250929050565b600060208284031215613ad557600080fd5b6000613ae384828501613474565b91505092915050565b600060208284031215613afe57600080fd5b6000613b0c84828501613489565b91505092915050565b600060208284031215613b2757600080fd5b6000613b358482850161349e565b91505092915050565b600060208284031215613b5057600080fd5b600082013567ffffffffffffffff811115613b6a57600080fd5b613b7684828501613527565b91505092915050565b600060208284031215613b9157600080fd5b600082015167ffffffffffffffff811115613bab57600080fd5b613bb784828501613551565b91505092915050565b600060208284031215613bd257600080fd5b6000613be084828501613590565b91505092915050565b600060208284031215613bfb57600080fd5b6000613c09848285016135a5565b91505092915050565b60008060008060808587031215613c2857600080fd5b6000613c3687828801613590565b9450506020613c4787828801613590565b9350506040613c588782880161357b565b9250506060613c69878288016135ba565b91505092959194509250565b6000613c818383614239565b60208301905092915050565b613c9681614b8a565b82525050565b6000613ca782614a32565b613cb18185614a60565b9350613cbc83614a22565b8060005b83811015613ced578151613cd48882613c75565b9750613cdf83614a53565b925050600181019050613cc0565b5085935050505092915050565b613d0381614b9c565b82525050565b613d1281614ba8565b82525050565b6000613d2382614a3d565b613d2d8185614a71565b9350613d3d818560208601614c48565b613d4681614e05565b840191505092915050565b6000613d5c82614a48565b613d668185614a8d565b9350613d76818560208601614c48565b613d7f81614e05565b840191505092915050565b6000613d9582614a48565b613d9f8185614a9e565b9350613daf818560208601614c48565b80840191505092915050565b6000613dc8603483614a8d565b9150613dd382614e23565b604082019050919050565b6000613deb602883614a8d565b9150613df682614e72565b604082019050919050565b6000613e0e603483614a8d565b9150613e1982614ec1565b604082019050919050565b6000613e31602b83614a8d565b9150613e3c82614f10565b604082019050919050565b6000613e54602483614a8d565b9150613e5f82614f5f565b604082019050919050565b6000613e77602583614a8d565b9150613e8282614fae565b604082019050919050565b6000613e9a601483614a8d565b9150613ea582614ffd565b602082019050919050565b6000613ebd603d83614a8d565b9150613ec882615026565b604082019050919050565b6000613ee0602b83614a8d565b9150613eeb82615075565b604082019050919050565b6000613f03602183614a8d565b9150613f0e826150c4565b604082019050919050565b6000613f26600f83614a9e565b9150613f3182615113565b600f82019050919050565b6000613f49602583614a8d565b9150613f548261513c565b604082019050919050565b6000613f6c603283614a8d565b9150613f778261518b565b604082019050919050565b6000613f8f601883614a8d565b9150613f9a826151da565b602082019050919050565b6000613fb2603e83614a8d565b9150613fbd82615203565b604082019050919050565b6000613fd5601b83614a8d565b9150613fe082615252565b602082019050919050565b6000613ff8602383614a8d565b91506140038261527b565b604082019050919050565b600061401b602a83614a8d565b9150614026826152ca565b604082019050919050565b600061403e600283614a9e565b915061404982615319565b600282019050919050565b6000614061604383614a8d565b915061406c82615342565b606082019050919050565b6000614084602583614a8d565b915061408f826153b7565b604082019050919050565b60006140a7600083614a71565b91506140b282615406565b600082019050919050565b60006140ca600083614a82565b91506140d582615406565b600082019050919050565b60006140ed602083614a8d565b91506140f882615409565b602082019050919050565b6000614110604783614a8d565b915061411b82615432565b606082019050919050565b6000614133602983614a8d565b915061413e826154a7565b604082019050919050565b6000614156602983614a8d565b9150614161826154f6565b604082019050919050565b6000614179601a83614a8d565b915061418482615545565b602082019050919050565b600061419c602883614a8d565b91506141a78261556e565b604082019050919050565b60006141bf602183614a8d565b91506141ca826155bd565b604082019050919050565b60006141e2601f83614a8d565b91506141ed8261560c565b602082019050919050565b6000614205602a83614a8d565b915061421082615635565b604082019050919050565b61422481614bd4565b82525050565b61423381614c27565b82525050565b61424281614c10565b82525050565b61425181614c10565b82525050565b61426081614c1a565b82525050565b600061427182613f19565b915061427d8284613d8a565b915081905092915050565b600061429382614031565b915061429f8284613d8a565b915081905092915050565b60006142b5826140bd565b9150819050919050565b60006020820190506142d46000830184613c8d565b92915050565b60006040820190506142ef6000830185613c8d565b6142fc6020830184613c8d565b9392505050565b600060a0820190506143186000830188613c8d565b6143256020830187613c8d565b81810360408301526143378186613c9c565b9050818103606083015261434b8185613c9c565b9050818103608083015261435f8184613d18565b90509695505050505050565b600060a0820190506143806000830188613c8d565b61438d6020830187613c8d565b61439a6040830186614248565b6143a76060830185614248565b81810360808301526143b98184613d18565b90509695505050505050565b600060a0820190506143da6000830187613c8d565b6143e76020830186613c8d565b6143f46040830185614248565b6144016060830184614248565b81810360808301526144128161409a565b905095945050505050565b60006040820190506144326000830185613c8d565b61443f6020830184614248565b9392505050565b600060208201905081810360008301526144608184613c9c565b905092915050565b600060408201905081810360008301526144828185613c9c565b905081810360208301526144968184613c9c565b90509392505050565b60006020820190506144b46000830184613cfa565b92915050565b60006020820190506144cf6000830184613d09565b92915050565b600060208201905081810360008301526144ef8184613d51565b905092915050565b6000602082019050818103600083015261451081613dbb565b9050919050565b6000602082019050818103600083015261453081613dde565b9050919050565b6000602082019050818103600083015261455081613e01565b9050919050565b6000602082019050818103600083015261457081613e24565b9050919050565b6000602082019050818103600083015261459081613e47565b9050919050565b600060208201905081810360008301526145b081613e6a565b9050919050565b600060208201905081810360008301526145d081613e8d565b9050919050565b600060208201905081810360008301526145f081613eb0565b9050919050565b6000602082019050818103600083015261461081613ed3565b9050919050565b6000602082019050818103600083015261463081613ef6565b9050919050565b6000602082019050818103600083015261465081613f3c565b9050919050565b6000602082019050818103600083015261467081613f5f565b9050919050565b6000602082019050818103600083015261469081613f82565b9050919050565b600060208201905081810360008301526146b081613fa5565b9050919050565b600060208201905081810360008301526146d081613fc8565b9050919050565b600060208201905081810360008301526146f081613feb565b9050919050565b600060208201905081810360008301526147108161400e565b9050919050565b6000602082019050818103600083015261473081614054565b9050919050565b6000602082019050818103600083015261475081614077565b9050919050565b60006020820190508181036000830152614770816140e0565b9050919050565b6000602082019050818103600083015261479081614103565b9050919050565b600060208201905081810360008301526147b081614126565b9050919050565b600060208201905081810360008301526147d081614149565b9050919050565b600060208201905081810360008301526147f08161416c565b9050919050565b600060208201905081810360008301526148108161418f565b9050919050565b60006020820190508181036000830152614830816141b2565b9050919050565b60006020820190508181036000830152614850816141d5565b9050919050565b60006020820190508181036000830152614870816141f8565b9050919050565b600060208201905061488c600083018461421b565b92915050565b60006040820190506148a7600083018561422a565b6148b46020830184614248565b9392505050565b60006020820190506148d06000830184614248565b92915050565b60006040820190506148eb6000830185614248565b6148f8602083018461422a565b9392505050565b60006040820190506149146000830185614248565b6149216020830184614248565b9392505050565b600060208201905061493d6000830184614257565b92915050565b600061494d61495e565b90506149598282614cad565b919050565b6000604051905090565b600067ffffffffffffffff82111561498357614982614db4565b5b602082029050602081019050919050565b600067ffffffffffffffff8211156149af576149ae614db4565b5b602082029050602081019050919050565b600067ffffffffffffffff8211156149db576149da614db4565b5b6149e482614e05565b9050602081019050919050565b600067ffffffffffffffff821115614a0c57614a0b614db4565b5b614a1582614e05565b9050602081019050919050565b6000819050602082019050919050565b600081519050919050565b600081519050919050565b600081519050919050565b6000602082019050919050565b600082825260208201905092915050565b600082825260208201905092915050565b600081905092915050565b600082825260208201905092915050565b600081905092915050565b6000614ab482614c10565b9150614abf83614c10565b9250827fffffffffffffffffffffffffffffffffffffffffffffffffffffffffffffffff03821115614af457614af3614d27565b5b828201905092915050565b6000614b0a82614c10565b9150614b1583614c10565b925082614b2557614b24614d56565b5b828204905092915050565b6000614b3b82614c10565b9150614b4683614c10565b9250817fffffffffffffffffffffffffffffffffffffffffffffffffffffffffffffffff0483118215151615614b7f57614b7e614d27565b5b828202905092915050565b6000614b9582614bf0565b9050919050565b60008115159050919050565b60007fffffffff0000000000000000000000000000000000000000000000000000000082169050919050565b60006fffffffffffffffffffffffffffffffff82169050919050565b600073ffffffffffffffffffffffffffffffffffffffff82169050919050565b6000819050919050565b600060ff82169050919050565b6000614c3282614bd4565b9050919050565b82818337600083830152505050565b60005b83811015614c66578082015181840152602081019050614c4b565b83811115614c75576000848401525b50505050565b60006002820490506001821680614c9357607f821691505b60208210811415614ca757614ca6614d85565b5b50919050565b614cb682614e05565b810181811067ffffffffffffffff82111715614cd557614cd4614db4565b5b80604052505050565b6000614ce982614c10565b91507fffffffffffffffffffffffffffffffffffffffffffffffffffffffffffffffff821415614d1c57614d1b614d27565b5b600182019050919050565b7f4e487b7100000000000000000000000000000000000000000000000000000000600052601160045260246000fd5b7f4e487b7100000000000000000000000000000000000000000000000000000000600052601260045260246000fd5b7f4e487b7100000000000000000000000000000000000000000000000000000000600052602260045260246000fd5b7f4e487b7100000000000000000000000000000000000000000000000000000000600052604160045260246000fd5b600060033d1115614e025760046000803e614dff600051614e16565b90505b90565b6000601f19601f8301169050919050565b60008160e01c9050919050565b7f455243313135353a207472616e7366657220746f206e6f6e204552433131353560008201527f526563656976657220696d706c656d656e746572000000000000000000000000602082015250565b7f455243313135353a204552433131353552656365697665722072656a6563746560008201527f6420746f6b656e73000000000000000000000000000000000000000000000000602082015250565b7f4e465453706c69747465723a20696e73756666696369656e742076616c75652060008201527f666f722074686973207472616e73616374696f6e000000000000000000000000602082015250565b7f455243313135353a2062616c616e636520717565727920666f7220746865207a60008201527f65726f2061646472657373000000000000000000000000000000000000000000602082015250565b7f455243313135353a206275726e20616d6f756e7420657863656564732062616c60008201527f616e636500000000000000000000000000000000000000000000000000000000602082015250565b7f4e465453706c69747465723a206e6f7420656e6f75676820706965636573207460008201527f6f20627579000000000000000000000000000000000000000000000000000000602082015250565b7f4661696c656420746f2073656e64204574686572000000000000000000000000600082015250565b7f4e465453706c69747465723a2063616c6c6572206973206e6f7420612076616c60008201527f69642070726f78792c206f776e6572206e6f7220617070726f76656420000000602082015250565b7f4e465453706c69747465723a206e6f7420656e6f7567682076616c756520746f60008201527f2062757920706965636573000000000000000000000000000000000000000000602082015250565b7f4e465453706c69747465723a2065787465726e616c2063616c6c206661696c6560008201527f6400000000000000000000000000000000000000000000000000000000000000602082015250565b7f4e46542053706c6974746572202d200000000000000000000000000000000000600082015250565b7f455243313135353a207472616e7366657220746f20746865207a65726f20616460008201527f6472657373000000000000000000000000000000000000000000000000000000602082015250565b7f455243313135353a207472616e736665722063616c6c6572206973206e6f742060008201527f6f776e6572206e6f7220617070726f7665640000000000000000000000000000602082015250565b7f46756e6374696f6e206e6f7420696d706c656d656e7465640000000000000000600082015250565b7f4e465453706c69747465723a204f6e6c79206f726967696e616c204e4654206f60008201527f776e65722063616e206578656375746520746869732066756e6374696f6e0000602082015250565b7f4e465453706c69747465723a20696e76616c6964207069656365730000000000600082015250565b7f455243313135353a206275726e2066726f6d20746865207a65726f206164647260008201527f6573730000000000000000000000000000000000000000000000000000000000602082015250565b7f455243313135353a20696e73756666696369656e742062616c616e636520666f60008201527f72207472616e7366657200000000000000000000000000000000000000000000602082015250565b7f4e53000000000000000000000000000000000000000000000000000000000000600082015250565b7f4e465453706c69747465723a20796f752073686f756c64206f776e20616c6c2060008201527f70696563657320746f20776974686472617720746865206f726967696e616c2060208201527f4e46540000000000000000000000000000000000000000000000000000000000604082015250565b7f4e465453706c69747465723a2073706c697474657220616c726561647920637260008201527f6561746564000000000000000000000000000000000000000000000000000000602082015250565b50565b7f4e465453706c69747465723a20696e76616c69642070657263656e7461676520600082015250565b7f4e465453706c69747465723a204f726967696e616c204e4654206f776e65722060008201527f6973206e6f7420616c6c6f77656420746f20657865637574652074686973206660208201527f756e6374696f6e00000000000000000000000000000000000000000000000000604082015250565b7f455243313135353a2073657474696e6720617070726f76616c2073746174757360008201527f20666f722073656c660000000000000000000000000000000000000000000000602082015250565b7f455243313135353a206163636f756e747320616e6420696473206c656e67746860008201527f206d69736d617463680000000000000000000000000000000000000000000000602082015250565b7f4e465453706c69747465723a20696e76616c6964207072696365000000000000600082015250565b7f455243313135353a2069647320616e6420616d6f756e7473206c656e6774682060008201527f6d69736d61746368000000000000000000000000000000000000000000000000602082015250565b7f455243313135353a206d696e7420746f20746865207a65726f2061646472657360008201527f7300000000000000000000000000000000000000000000000000000000000000602082015250565b7f5265656e7472616e637947756172643a207265656e7472616e742063616c6c00600082015250565b7f4e465453706c69747465723a20796f7520617265207468652063757272656e7460008201527f206e6674206f776e657200000000000000000000000000000000000000000000602082015250565b600060443d101561569457615717565b61569c61495e565b60043d036004823e80513d602482011167ffffffffffffffff821117156156c4575050615717565b808201805167ffffffffffffffff8111156156e25750505050615717565b80602083010160043d0385018111156156ff575050505050615717565b61570e82602001850186614cad565b82955050505050505b90565b61572381614b8a565b811461572e57600080fd5b50565b61573a81614b9c565b811461574557600080fd5b50565b61575181614ba8565b811461575c57600080fd5b50565b61576881614bd4565b811461577357600080fd5b50565b61577f81614c10565b811461578a57600080fd5b50565b61579681614c1a565b81146157a157600080fd5b5056fea26469706673582212206ce218ee4e745977fafaae9ae0014939e09022d6e277a6b7e699f30213b6a29764736f6c63430008030033",
  "immutableReferences": {},
  "source": "// SPDX-License-Identifier: MIT\npragma solidity >=0.4.22 <0.9.0;\nimport \"@openzeppelin/contracts/utils/introspection/ERC165.sol\";\nimport \"@openzeppelin/contracts/token/ERC1155/IERC1155Receiver.sol\";\nimport \"@openzeppelin/contracts/security/ReentrancyGuard.sol\";\nimport \"./ERC1155.sol\";\nimport \"./NFTSplitterStorage.sol\";\nimport  \"./NFTSplitterAdmin.sol\";\n\ncontract NFTSplitter is\n    NFTSplitterStorage,\n    ERC165,\n    ERC1155,\n    IERC1155Receiver,\n    ReentrancyGuard\n{\n    //base contract version\n    uint8 public constant version = 1;\n\n    //modifiers\n    /**\n     * @dev Modifier that checks that timestamp is greater than lock time\n     * TODO: implement lock logic in contract\n\n    modifier isNotLocked() {\n        require(block.timestamp > lockEndDate, \"NFTSplitter: Lock time is not over\");\n        _;\n    }*/\n\n    /**\n     * @dev Modifier that checks that only the original NFT owner can execute the trx\n     *\n     */\n    modifier onlyOriginalNFTOwner() {\n        require(originalOwner == msg.sender, \"NFTSplitter: Only original NFT owner can execute this function\");\n        _;\n    }\n\n    /**\n     * @dev Modifier that checks that the original NFT owner is not executing the trx\n     *\n     */\n    modifier notOriginalNFTOwner() {\n        require(originalOwner != msg.sender, \"NFTSplitter: Original NFT owner is not allowed to execute this function\" );\n        _;\n    }\n\n    /**\n     * @dev Modifier that checks that all pieces are owned by the same address\n     *\n     */\n    modifier ownsAllPieces() {\n        require(balanceOf(msg.sender, tokenId) == pieces, \"NFTSplitter: you should own all pieces to withdraw the original NFT\");\n        _;\n    }\n\n    /**\n     * @dev emitted after split creation\n     */\n    event NFTSplit(\n        address indexed originalNFTAddress,\n        uint indexed id,\n        uint indexed pieces,\n        uint  price,\n        uint  percentage\n    );\n\n    /**\n     * @dev emitted when buyer buys a piece\n     */\n    event NFTSplitSold(\n        address indexed pieceOwner,\n        address indexed buyer,\n        uint indexed amount,\n        uint  price\n    );\n    /**\n     * @dev emitted when nft owner buys a piece from buyer\n     */\n    event NFTSplitBuyBack(\n        address indexed originalNFTAddress,\n        address indexed buyer,\n        uint  amount,\n        uint  price\n    );\n    /**\n     * @dev emitted when original nft is withdrawn from contract\n     */\n    event NFTWithdraw(\n        address indexed originalNFTAddress,\n        address indexed buyer\n\n    );\n    /**\n     * @dev constructor with initial name and symbol values\n     */\n    constructor(\n        \n    ) ERC1155(\"\") {\n        name = \"NFT Splitter\";\n        symbol = \"NFTS\";\n    }\n\n    event Log(string message);\n\n    //no set uri function needed\n    function setURI(string memory newuri) public{\n        revert();\n    }\n\n\n    //mint function will not be needed after contract creation\n    function mint(\n        address account,\n        uint256 id,\n        uint256 amount,\n        bytes memory data\n    ) public  {\n        revert(\"Function not implemented\");\n    }\n\n    //mint function will not be needed after contract creation\n    function mintBatch(\n        address to,\n        uint256[] memory ids,\n        uint256[] memory amounts,\n        bytes memory data\n    ) public {\n        revert(\"Function not implemented\");\n    }\n\n    function _beforeTokenTransfer(\n        address operator,\n        address from,\n        address to,\n        uint256[] memory ids,\n        uint256[] memory amounts,\n        bytes memory data\n    ) internal override  {\n        super._beforeTokenTransfer(operator, from, to, ids, amounts, data);\n    }\n\n    function supportsInterface(bytes4 interfaceId)\n        public\n        view\n        override(ERC165, IERC165, ERC1155)\n        returns (bool)\n    {\n        return super.supportsInterface(interfaceId);\n    }\n\n    //it will return the original NFT uri\n    /**\n     * @dev this method will return the NFT uri\n     * @return Original NFT uri\n     */\n    function uri(uint256 id)\n        public\n        view\n        virtual\n        override\n        returns (string memory)\n    {\n        return ERC1155(originalNFT).uri(id);\n    }\n\n    function burn(\n        address account,\n        uint256 id,\n        uint256 value\n    ) public virtual {\n        revert(\"Function not implemented\");\n    }\n\n    function burnBatch(\n        address account,\n        uint256[] memory ids,\n        uint256[] memory values\n    ) public virtual {\n        revert(\"Function not implemented\");\n    }\n\n    /**\n     * @dev See {IERC1155-safeTransferFrom}.\n     */\n    function safeTransferFrom(\n        address from,\n        address to,\n        uint256 id,\n        uint256 amount,\n        bytes memory data\n    ) public  override {\n        require(\n            NFTSplitterAdmin(settings).isValidProxy(originalNFT, address(this))\n        ,\n        \"NFTSplitter: caller is not a valid proxy, owner nor approved \"\n        );\n        _safeTransferFrom(from, to, id, amount, data);\n    }\n\n    function splitMyNFT(\n        uint256 _tokenId,\n        uint256 _price,\n        uint128 _buyPercentage,\n        uint8 _pieces\n    ) public onlyOriginalNFTOwner {\n        require (unitPrice == 0, 'NFTSplitter: splitter already created' );\n        require(_price > 0, 'NFTSplitter: invalid price');\n        require(_pieces > 0, 'NFTSplitter: invalid pieces' );\n        require(_buyPercentage > 0, 'NFTSplitter: invalid percentage ' );\n\n        unitPrice = _price;\n        tokenId = _tokenId;\n        pieces = _pieces;\n        buyPercentage = _buyPercentage;\n        originalOwner = msg.sender;\n        //TODO: implement lock time logic\n        //TODO: implement logic to not allow to sell more than initialSellSupply during lock time\n        //lockEndDate = block.timestamp + (_lockTimeInDays * 1 days);\n        //initialSellSupply = _initialSellAmount;\n\n        //as name and symbol are not part of ERC1155\n        //contract needs to catch any error executing the functions\n        //if there is any error the state of the variables does not change\n        //meaning that state of the variables will not change in proxy contract\n        try ERC1155(originalNFT).name() returns (string memory result) {\n            name = string(abi.encodePacked(\"NFT Splitter - \", result));\n        } catch {\n            emit Log(\"NFTSplitter: external call failed\");\n        }\n        try ERC1155(originalNFT).symbol() returns (string memory result) {\n            symbol = string(abi.encodePacked(\"NS\", result));\n        } catch {\n            emit Log(\"NFTSplitter: external call failed\");\n        }\n\n        _mint(msg.sender, tokenId, pieces, \"\");\n        ERC1155(originalNFT).safeTransferFrom(\n            msg.sender,\n            address(this),\n            tokenId,\n            ERC1155(originalNFT).balanceOf(msg.sender, tokenId),\n            \"\"\n        );\n\n        emit NFTSplit(originalNFT, tokenId, pieces, unitPrice, buyPercentage);\n    }\n\n    /**\n     * @dev method used by the original NFT to buy back any piece that was sold\n     *\n     */\n\n    function buyBackPieces(address _from, uint256 amount) public payable onlyOriginalNFTOwner nonReentrant {\n        uint currentBalance = balanceOf(_from, tokenId);\n        uint buyBackPrice = (unitPrice + (unitPrice * buyPercentage  / 100 )) * amount;\n        require(msg.value  >= buyBackPrice, 'NFTSplitter: insufficient value for this transaction');\n\n        _safeTransferFrom(_from, msg.sender, tokenId, amount, \"\");\n        (bool sent, bytes memory data) = _from.call{value: buyBackPrice}(\"\");\n\n        require(sent, \"Failed to send Ether\");\n        emit NFTSplitBuyBack(originalNFT, msg.sender, buyPercentage, buyBackPrice);\n\n    }\n\n    /**\n     * @dev method used to buy a piece of the original NFT from the original Owner\n     *\n     *\n     */\n    function buyPiecesFromOwner( uint256 amount) public payable notOriginalNFTOwner nonReentrant {\n        uint currentSupply = balanceOf(originalOwner, tokenId);\n        require(currentSupply  >= amount, 'NFTSplitter: not enough pieces to buy');\n        require(originalOwner != msg.sender, 'NFTSplitter: you are the current nft owner');\n\n        uint piecePrice = unitPrice * amount;\n        require(msg.value >= piecePrice, 'NFTSplitter: not enough value to buy pieces');\n\n        _safeTransferFrom(originalOwner, msg.sender, tokenId, amount, \"\");\n        (bool sent, bytes memory data) = originalOwner.call{value: msg.value}(\"\");\n\n        emit NFTSplitSold(originalOwner, msg.sender, amount, piecePrice);\n        require(sent, \"Failed to send Ether\");\n    }\n\n    /**\n     * @dev this method will burn all the NFT pieces and it will transfer the original NFT to the new owner.\n     * This method can only be executed if the address owns all the pieces.\n     *\n     */\n   // event log(address currentOwner, uint amount);\n    function withdrawOriginalNFT() public ownsAllPieces nonReentrant {\n         //burn pieces\n        _burn(msg.sender, tokenId, pieces);\n        ERC1155(originalNFT).safeTransferFrom(\n            address(this),\n            msg.sender,\n            tokenId,\n            ERC1155(originalNFT).balanceOf(address(this), tokenId), //sending all tokens that proxy owns, aridrops??\n            \"\"\n        );\n        emit NFTWithdraw(originalNFT, msg.sender);\n    }\n\n    function onERC1155Received(\n        address, /*_operator*/\n        address, /*_from*/\n        uint256 _id,\n        uint256, /*_amount*/\n        bytes calldata /*_data*/\n    ) external override returns (bytes4) {\n        return this.onERC1155Received.selector;\n    }\n\n    function onERC1155BatchReceived(\n        address, /*_operator*/\n        address, /*_from*/\n        uint256[] memory, /*_ids*/\n        uint256[] memory, /*_values*/\n        bytes memory /*_data*/\n    ) public pure override returns (bytes4) {\n         return this.onERC1155BatchReceived.selector;\n    }\n\n    // Function to receive Ether. msg.data must be empty\n    receive() external payable {}\n\n    // Fallback function is called when msg.data is not empty\n    fallback() external payable {}\n\n    function getBalance() public view returns (uint256) {\n        return address(this).balance;\n    }\n\n    /// @notice Withdraw any contract funds\n    /// @dev Only the original nft  owner execute call this function\n    function withdraw() public onlyOriginalNFTOwner{\n        //TODO: implement and create test for this scenario if applicable\n    }\n}\n",
  "sourcePath": "/home/dtutila/src/bootcamp/blockchain-developer-bootcamp-final-project/contracts/contracts/NFTSplitter.sol",
  "compiler": {
    "name": "solc",
    "version": "0.8.3+commit.8d00100c.Emscripten.clang"
  },
  "schemaVersion": "3.4.3",
  "updatedAt": "2021-11-26T17:27:41.271Z",
  "networkType": "ethereum",
  "devdoc": {
    "events": {
      "NFTSplit(address,uint256,uint256,uint256,uint256)": {
        "details": "emitted after split creation"
      },
      "NFTSplitBuyBack(address,address,uint256,uint256)": {
        "details": "emitted when nft owner buys a piece from buyer"
      },
      "NFTSplitSold(address,address,uint256,uint256)": {
        "details": "emitted when buyer buys a piece"
      },
      "NFTWithdraw(address,address)": {
        "details": "emitted when original nft is withdrawn from contract"
      }
    },
    "kind": "dev",
    "methods": {
      "balanceOf(address,uint256)": {
        "details": "See {IERC1155-balanceOf}. Requirements: - `account` cannot be the zero address."
      },
      "balanceOfBatch(address[],uint256[])": {
        "details": "See {IERC1155-balanceOfBatch}. Requirements: - `accounts` and `ids` must have the same length."
      },
      "buyBackPieces(address,uint256)": {
        "details": "method used by the original NFT to buy back any piece that was sold"
      },
      "buyPiecesFromOwner(uint256)": {
        "details": "method used to buy a piece of the original NFT from the original Owner"
      },
      "constructor": {
        "details": "constructor with initial name and symbol values"
      },
      "isApprovedForAll(address,address)": {
        "details": "See {IERC1155-isApprovedForAll}."
      },
      "safeBatchTransferFrom(address,address,uint256[],uint256[],bytes)": {
        "details": "See {IERC1155-safeBatchTransferFrom}."
      },
      "safeTransferFrom(address,address,uint256,uint256,bytes)": {
        "details": "See {IERC1155-safeTransferFrom}."
      },
      "setApprovalForAll(address,bool)": {
        "details": "See {IERC1155-setApprovalForAll}."
      },
      "uri(uint256)": {
        "details": "this method will return the NFT uri",
        "returns": {
          "_0": "Original NFT uri"
        }
      },
      "withdraw()": {
        "details": "Only the original nft  owner execute call this function"
      },
      "withdrawOriginalNFT()": {
        "details": "this method will burn all the NFT pieces and it will transfer the original NFT to the new owner. This method can only be executed if the address owns all the pieces."
      }
    },
    "version": 1
  },
  "userdoc": {
    "kind": "user",
    "methods": {
      "withdraw()": {
        "notice": "Withdraw any contract funds"
      }
    },
    "version": 1
  }
}