{
  "contractName": "NFTSplitter",
  "abi": [
    {
      "inputs": [],
      "stateMutability": "nonpayable",
      "type": "constructor"
    },
    {
      "anonymous": false,
      "inputs": [
        {
          "indexed": true,
          "internalType": "address",
          "name": "account",
          "type": "address"
        },
        {
          "indexed": true,
          "internalType": "address",
          "name": "operator",
          "type": "address"
        },
        {
          "indexed": false,
          "internalType": "bool",
          "name": "approved",
          "type": "bool"
        }
      ],
      "name": "ApprovalForAll",
      "type": "event"
    },
    {
      "anonymous": false,
      "inputs": [
        {
          "indexed": false,
          "internalType": "string",
          "name": "message",
          "type": "string"
        }
      ],
      "name": "Log",
      "type": "event"
    },
    {
      "anonymous": false,
      "inputs": [
        {
          "indexed": true,
          "internalType": "address",
          "name": "originalNFTAddress",
          "type": "address"
        },
        {
          "indexed": true,
          "internalType": "uint256",
          "name": "id",
          "type": "uint256"
        },
        {
          "indexed": true,
          "internalType": "uint256",
          "name": "pieces",
          "type": "uint256"
        },
        {
          "indexed": false,
          "internalType": "uint256",
          "name": "price",
          "type": "uint256"
        },
        {
          "indexed": false,
          "internalType": "uint256",
          "name": "percentage",
          "type": "uint256"
        }
      ],
      "name": "NFTSplit",
      "type": "event"
    },
    {
      "anonymous": false,
      "inputs": [
        {
          "indexed": true,
          "internalType": "address",
          "name": "originalNFTAddress",
          "type": "address"
        },
        {
          "indexed": true,
          "internalType": "address",
          "name": "buyer",
          "type": "address"
        },
        {
          "indexed": false,
          "internalType": "uint256",
          "name": "amount",
          "type": "uint256"
        },
        {
          "indexed": false,
          "internalType": "uint256",
          "name": "price",
          "type": "uint256"
        }
      ],
      "name": "NFTSplitBuyBack",
      "type": "event"
    },
    {
      "anonymous": false,
      "inputs": [
        {
          "indexed": true,
          "internalType": "address",
          "name": "pieceOwner",
          "type": "address"
        },
        {
          "indexed": true,
          "internalType": "address",
          "name": "buyer",
          "type": "address"
        },
        {
          "indexed": true,
          "internalType": "uint256",
          "name": "amount",
          "type": "uint256"
        },
        {
          "indexed": false,
          "internalType": "uint256",
          "name": "price",
          "type": "uint256"
        }
      ],
      "name": "NFTSplitSold",
      "type": "event"
    },
    {
      "anonymous": false,
      "inputs": [
        {
          "indexed": true,
          "internalType": "address",
          "name": "originalNFTAddress",
          "type": "address"
        },
        {
          "indexed": true,
          "internalType": "address",
          "name": "buyer",
          "type": "address"
        }
      ],
      "name": "NFTWithdraw",
      "type": "event"
    },
    {
      "anonymous": false,
      "inputs": [
        {
          "indexed": true,
          "internalType": "address",
          "name": "operator",
          "type": "address"
        },
        {
          "indexed": true,
          "internalType": "address",
          "name": "from",
          "type": "address"
        },
        {
          "indexed": true,
          "internalType": "address",
          "name": "to",
          "type": "address"
        },
        {
          "indexed": false,
          "internalType": "uint256[]",
          "name": "ids",
          "type": "uint256[]"
        },
        {
          "indexed": false,
          "internalType": "uint256[]",
          "name": "values",
          "type": "uint256[]"
        }
      ],
      "name": "TransferBatch",
      "type": "event"
    },
    {
      "anonymous": false,
      "inputs": [
        {
          "indexed": true,
          "internalType": "address",
          "name": "operator",
          "type": "address"
        },
        {
          "indexed": true,
          "internalType": "address",
          "name": "from",
          "type": "address"
        },
        {
          "indexed": true,
          "internalType": "address",
          "name": "to",
          "type": "address"
        },
        {
          "indexed": false,
          "internalType": "uint256",
          "name": "id",
          "type": "uint256"
        },
        {
          "indexed": false,
          "internalType": "uint256",
          "name": "value",
          "type": "uint256"
        }
      ],
      "name": "TransferSingle",
      "type": "event"
    },
    {
      "anonymous": false,
      "inputs": [
        {
          "indexed": false,
          "internalType": "string",
          "name": "value",
          "type": "string"
        },
        {
          "indexed": true,
          "internalType": "uint256",
          "name": "id",
          "type": "uint256"
        }
      ],
      "name": "URI",
      "type": "event"
    },
    {
      "stateMutability": "payable",
      "type": "fallback",
      "payable": true
    },
    {
      "inputs": [
        {
          "internalType": "address",
          "name": "account",
          "type": "address"
        },
        {
          "internalType": "uint256",
          "name": "id",
          "type": "uint256"
        }
      ],
      "name": "balanceOf",
      "outputs": [
        {
          "internalType": "uint256",
          "name": "",
          "type": "uint256"
        }
      ],
      "stateMutability": "view",
      "type": "function",
      "constant": true
    },
    {
      "inputs": [
        {
          "internalType": "address[]",
          "name": "accounts",
          "type": "address[]"
        },
        {
          "internalType": "uint256[]",
          "name": "ids",
          "type": "uint256[]"
        }
      ],
      "name": "balanceOfBatch",
      "outputs": [
        {
          "internalType": "uint256[]",
          "name": "",
          "type": "uint256[]"
        }
      ],
      "stateMutability": "view",
      "type": "function",
      "constant": true
    },
    {
      "inputs": [],
      "name": "buyPercentage",
      "outputs": [
        {
          "internalType": "uint128",
          "name": "",
          "type": "uint128"
        }
      ],
      "stateMutability": "view",
      "type": "function",
      "constant": true
    },
    {
      "inputs": [
        {
          "internalType": "address",
          "name": "account",
          "type": "address"
        },
        {
          "internalType": "address",
          "name": "operator",
          "type": "address"
        }
      ],
      "name": "isApprovedForAll",
      "outputs": [
        {
          "internalType": "bool",
          "name": "",
          "type": "bool"
        }
      ],
      "stateMutability": "view",
      "type": "function",
      "constant": true
    },
    {
      "inputs": [],
      "name": "name",
      "outputs": [
        {
          "internalType": "string",
          "name": "",
          "type": "string"
        }
      ],
      "stateMutability": "view",
      "type": "function",
      "constant": true
    },
    {
      "inputs": [],
      "name": "originalNFT",
      "outputs": [
        {
          "internalType": "address",
          "name": "",
          "type": "address"
        }
      ],
      "stateMutability": "view",
      "type": "function",
      "constant": true
    },
    {
      "inputs": [],
      "name": "originalOwner",
      "outputs": [
        {
          "internalType": "address",
          "name": "",
          "type": "address"
        }
      ],
      "stateMutability": "view",
      "type": "function",
      "constant": true
    },
    {
      "inputs": [],
      "name": "pieces",
      "outputs": [
        {
          "internalType": "uint8",
          "name": "",
          "type": "uint8"
        }
      ],
      "stateMutability": "view",
      "type": "function",
      "constant": true
    },
    {
      "inputs": [
        {
          "internalType": "address",
          "name": "from",
          "type": "address"
        },
        {
          "internalType": "address",
          "name": "to",
          "type": "address"
        },
        {
          "internalType": "uint256[]",
          "name": "ids",
          "type": "uint256[]"
        },
        {
          "internalType": "uint256[]",
          "name": "amounts",
          "type": "uint256[]"
        },
        {
          "internalType": "bytes",
          "name": "data",
          "type": "bytes"
        }
      ],
      "name": "safeBatchTransferFrom",
      "outputs": [],
      "stateMutability": "nonpayable",
      "type": "function"
    },
    {
      "inputs": [
        {
          "internalType": "address",
          "name": "operator",
          "type": "address"
        },
        {
          "internalType": "bool",
          "name": "approved",
          "type": "bool"
        }
      ],
      "name": "setApprovalForAll",
      "outputs": [],
      "stateMutability": "nonpayable",
      "type": "function"
    },
    {
      "inputs": [],
      "name": "settings",
      "outputs": [
        {
          "internalType": "address",
          "name": "",
          "type": "address"
        }
      ],
      "stateMutability": "view",
      "type": "function",
      "constant": true
    },
    {
      "inputs": [],
      "name": "symbol",
      "outputs": [
        {
          "internalType": "string",
          "name": "",
          "type": "string"
        }
      ],
      "stateMutability": "view",
      "type": "function",
      "constant": true
    },
    {
      "inputs": [],
      "name": "tokenId",
      "outputs": [
        {
          "internalType": "uint256",
          "name": "",
          "type": "uint256"
        }
      ],
      "stateMutability": "view",
      "type": "function",
      "constant": true
    },
    {
      "inputs": [],
      "name": "unitPrice",
      "outputs": [
        {
          "internalType": "uint256",
          "name": "",
          "type": "uint256"
        }
      ],
      "stateMutability": "view",
      "type": "function",
      "constant": true
    },
    {
      "inputs": [],
      "name": "version",
      "outputs": [
        {
          "internalType": "uint8",
          "name": "",
          "type": "uint8"
        }
      ],
      "stateMutability": "view",
      "type": "function",
      "constant": true
    },
    {
      "stateMutability": "payable",
      "type": "receive",
      "payable": true
    },
    {
      "inputs": [
        {
          "internalType": "string",
          "name": "newuri",
          "type": "string"
        }
      ],
      "name": "setURI",
      "outputs": [],
      "stateMutability": "nonpayable",
      "type": "function"
    },
    {
      "inputs": [
        {
          "internalType": "address",
          "name": "account",
          "type": "address"
        },
        {
          "internalType": "uint256",
          "name": "id",
          "type": "uint256"
        },
        {
          "internalType": "uint256",
          "name": "amount",
          "type": "uint256"
        },
        {
          "internalType": "bytes",
          "name": "data",
          "type": "bytes"
        }
      ],
      "name": "mint",
      "outputs": [],
      "stateMutability": "nonpayable",
      "type": "function"
    },
    {
      "inputs": [
        {
          "internalType": "address",
          "name": "to",
          "type": "address"
        },
        {
          "internalType": "uint256[]",
          "name": "ids",
          "type": "uint256[]"
        },
        {
          "internalType": "uint256[]",
          "name": "amounts",
          "type": "uint256[]"
        },
        {
          "internalType": "bytes",
          "name": "data",
          "type": "bytes"
        }
      ],
      "name": "mintBatch",
      "outputs": [],
      "stateMutability": "nonpayable",
      "type": "function"
    },
    {
      "inputs": [
        {
          "internalType": "bytes4",
          "name": "interfaceId",
          "type": "bytes4"
        }
      ],
      "name": "supportsInterface",
      "outputs": [
        {
          "internalType": "bool",
          "name": "",
          "type": "bool"
        }
      ],
      "stateMutability": "view",
      "type": "function",
      "constant": true
    },
    {
      "inputs": [
        {
          "internalType": "uint256",
          "name": "id",
          "type": "uint256"
        }
      ],
      "name": "uri",
      "outputs": [
        {
          "internalType": "string",
          "name": "",
          "type": "string"
        }
      ],
      "stateMutability": "view",
      "type": "function",
      "constant": true
    },
    {
      "inputs": [
        {
          "internalType": "address",
          "name": "account",
          "type": "address"
        },
        {
          "internalType": "uint256",
          "name": "id",
          "type": "uint256"
        },
        {
          "internalType": "uint256",
          "name": "value",
          "type": "uint256"
        }
      ],
      "name": "burn",
      "outputs": [],
      "stateMutability": "nonpayable",
      "type": "function"
    },
    {
      "inputs": [
        {
          "internalType": "address",
          "name": "account",
          "type": "address"
        },
        {
          "internalType": "uint256[]",
          "name": "ids",
          "type": "uint256[]"
        },
        {
          "internalType": "uint256[]",
          "name": "values",
          "type": "uint256[]"
        }
      ],
      "name": "burnBatch",
      "outputs": [],
      "stateMutability": "nonpayable",
      "type": "function"
    },
    {
      "inputs": [
        {
          "internalType": "address",
          "name": "from",
          "type": "address"
        },
        {
          "internalType": "address",
          "name": "to",
          "type": "address"
        },
        {
          "internalType": "uint256",
          "name": "id",
          "type": "uint256"
        },
        {
          "internalType": "uint256",
          "name": "amount",
          "type": "uint256"
        },
        {
          "internalType": "bytes",
          "name": "data",
          "type": "bytes"
        }
      ],
      "name": "safeTransferFrom",
      "outputs": [],
      "stateMutability": "nonpayable",
      "type": "function"
    },
    {
      "inputs": [
        {
          "internalType": "uint256",
          "name": "_tokenId",
          "type": "uint256"
        },
        {
          "internalType": "uint256",
          "name": "_price",
          "type": "uint256"
        },
        {
          "internalType": "uint128",
          "name": "_buyPercentage",
          "type": "uint128"
        },
        {
          "internalType": "uint8",
          "name": "_pieces",
          "type": "uint8"
        }
      ],
      "name": "splitMyNFT",
      "outputs": [],
      "stateMutability": "nonpayable",
      "type": "function"
    },
    {
      "inputs": [
        {
          "internalType": "address",
          "name": "_from",
          "type": "address"
        },
        {
          "internalType": "uint256",
          "name": "amount",
          "type": "uint256"
        }
      ],
      "name": "buyBackPieces",
      "outputs": [],
      "stateMutability": "payable",
      "type": "function",
      "payable": true
    },
    {
      "inputs": [
        {
          "internalType": "uint256",
          "name": "amount",
          "type": "uint256"
        }
      ],
      "name": "buyPiecesFromOwner",
      "outputs": [],
      "stateMutability": "payable",
      "type": "function",
      "payable": true
    },
    {
      "inputs": [],
      "name": "withdrawOriginalNFT",
      "outputs": [],
      "stateMutability": "nonpayable",
      "type": "function"
    },
    {
      "inputs": [
        {
          "internalType": "address",
          "name": "",
          "type": "address"
        },
        {
          "internalType": "address",
          "name": "",
          "type": "address"
        },
        {
          "internalType": "uint256",
          "name": "_id",
          "type": "uint256"
        },
        {
          "internalType": "uint256",
          "name": "",
          "type": "uint256"
        },
        {
          "internalType": "bytes",
          "name": "",
          "type": "bytes"
        }
      ],
      "name": "onERC1155Received",
      "outputs": [
        {
          "internalType": "bytes4",
          "name": "",
          "type": "bytes4"
        }
      ],
      "stateMutability": "nonpayable",
      "type": "function"
    },
    {
      "inputs": [
        {
          "internalType": "address",
          "name": "",
          "type": "address"
        },
        {
          "internalType": "address",
          "name": "",
          "type": "address"
        },
        {
          "internalType": "uint256[]",
          "name": "",
          "type": "uint256[]"
        },
        {
          "internalType": "uint256[]",
          "name": "",
          "type": "uint256[]"
        },
        {
          "internalType": "bytes",
          "name": "",
          "type": "bytes"
        }
      ],
      "name": "onERC1155BatchReceived",
      "outputs": [
        {
          "internalType": "bytes4",
          "name": "",
          "type": "bytes4"
        }
      ],
      "stateMutability": "pure",
      "type": "function",
      "constant": true
    },
    {
      "inputs": [],
      "name": "getBalance",
      "outputs": [
        {
          "internalType": "uint256",
          "name": "",
          "type": "uint256"
        }
      ],
      "stateMutability": "view",
      "type": "function",
      "constant": true
    },
    {
      "inputs": [],
      "name": "withdraw",
      "outputs": [],
      "stateMutability": "nonpayable",
      "type": "function"
    }
  ],
  "bytecode": "0x60806040523480156200001157600080fd5b50604051806020016040528060008152506200003381620000de60201b60201c565b506001600c819055506040518060400160405280600c81526020017f4e46542053706c697474657200000000000000000000000000000000000000008152506006908051906020019062000089929190620000fa565b506040518060400160405280600481526020017f4e4654530000000000000000000000000000000000000000000000000000000081525060079080519060200190620000d7929190620000fa565b506200020f565b80600a9080519060200190620000f6929190620000fa565b5050565b8280546200010890620001aa565b90600052602060002090601f0160209004810192826200012c576000855562000178565b82601f106200014757805160ff191683800117855562000178565b8280016001018555821562000178579182015b82811115620001775782518255916020019190600101906200015a565b5b5090506200018791906200018b565b5090565b5b80821115620001a65760008160009055506001016200018c565b5090565b60006002820490506001821680620001c357607f821691505b60208210811415620001da57620001d9620001e0565b5b50919050565b7f4e487b7100000000000000000000000000000000000000000000000000000000600052602260045260246000fd5b6157ec806200021f6000396000f3fe6080604052600436106101db5760003560e01c806354fd4d5011610102578063c22378cc11610095578063f1fffdcb11610064578063f1fffdcb14610685578063f23a6e61146106b0578063f242432a146106ed578063f5298aca14610716576101e2565b8063c22378cc146105d6578063e06174e4146105f2578063e73faa2d1461061d578063e985e9c514610648576101e2565b806395d89b41116100d157806395d89b411461052e578063a22cb46514610559578063b875a94f14610582578063bc197c8114610599576101e2565b806354fd4d501461048857806367306916146104b35780636b20c454146104dc578063731133e914610505576101e2565b806316f8bfcc1161017a5780631f7fdffa116101495780631f7fdffa146103e25780632eb2c2d61461040b5780633ccfd60b146104345780634e1273f41461044b576101e2565b806316f8bfcc14610345578063176740361461036157806317d70f7c1461038c5780631d3d81d6146103b7576101e2565b806304e9da5a116101b657806304e9da5a1461028757806306fdde03146102b25780630e89341c146102dd57806312065fe01461031a576101e2565b8062fdd58e146101e457806301ffc9a71461022157806302fe53051461025e576101e2565b366101e257005b005b3480156101f057600080fd5b5061020b60048036038101906102069190613955565b61073f565b60405161021891906148cd565b60405180910390f35b34801561022d57600080fd5b5061024860048036038101906102439190613af0565b610809565b60405161025591906144b1565b60405180910390f35b34801561026a57600080fd5b5061028560048036038101906102809190613b42565b61081b565b005b34801561029357600080fd5b5061029c610820565b6040516102a99190614889565b60405180910390f35b3480156102be57600080fd5b506102c7610842565b6040516102d491906144e7565b60405180910390f35b3480156102e957600080fd5b5061030460048036038101906102ff9190613bc4565b6108d0565b60405161031191906144e7565b60405180910390f35b34801561032657600080fd5b5061032f610989565b60405161033c91906148cd565b60405180910390f35b61035f600480360381019061035a9190613955565b610991565b005b34801561036d57600080fd5b50610376610cab565b604051610383919061493a565b60405180910390f35b34801561039857600080fd5b506103a1610cbc565b6040516103ae91906148cd565b60405180910390f35b3480156103c357600080fd5b506103cc610cc2565b6040516103d991906142c3565b60405180910390f35b3480156103ee57600080fd5b506104096004803603810190610404919061386e565b610ce8565b005b34801561041757600080fd5b50610432600480360381019061042d919061360f565b610d23565b005b34801561044057600080fd5b50610449610dc4565b005b34801561045757600080fd5b50610472600480360381019061046d9190613a5b565b610e56565b60405161047f9190614458565b60405180910390f35b34801561049457600080fd5b5061049d611007565b6040516104aa919061493a565b60405180910390f35b3480156104bf57600080fd5b506104da60048036038101906104d59190613c16565b61100c565b005b3480156104e857600080fd5b5061050360048036038101906104fe91906137ef565b6116a4565b005b34801561051157600080fd5b5061052c600480360381019061052791906139e0565b6116df565b005b34801561053a57600080fd5b5061054361171a565b60405161055091906144e7565b60405180910390f35b34801561056557600080fd5b50610580600480360381019061057b9190613919565b6117a8565b005b34801561058e57600080fd5b50610597611929565b005b3480156105a557600080fd5b506105c060048036038101906105bb919061360f565b611bb9565b6040516105cd91906144cc565b60405180910390f35b6105f060048036038101906105eb9190613bc4565b611bce565b005b3480156105fe57600080fd5b50610607611faf565b60405161061491906142c3565b60405180910390f35b34801561062957600080fd5b50610632611fd5565b60405161063f91906148cd565b60405180910390f35b34801561065457600080fd5b5061066f600480360381019061066a91906135d3565b611fdb565b60405161067c91906144b1565b60405180910390f35b34801561069157600080fd5b5061069a61206f565b6040516106a791906142c3565b60405180910390f35b3480156106bc57600080fd5b506106d760048036038101906106d291906136ce565b612095565b6040516106e491906144cc565b60405180910390f35b3480156106f957600080fd5b50610714600480360381019061070f9190613760565b6120ab565b005b34801561072257600080fd5b5061073d60048036038101906107389190613991565b6121d3565b005b60008073ffffffffffffffffffffffffffffffffffffffff168373ffffffffffffffffffffffffffffffffffffffff1614156107b0576040517f08c379a00000000000000000000000000000000000000000000000000000000081526004016107a790614569565b60405180910390fd5b6008600083815260200190815260200160002060008473ffffffffffffffffffffffffffffffffffffffff1673ffffffffffffffffffffffffffffffffffffffff16815260200190815260200160002054905092915050565b60006108148261220e565b9050919050565b600080fd5b600060019054906101000a90046fffffffffffffffffffffffffffffffff1681565b6006805461084f90614c8d565b80601f016020809104026020016040519081016040528092919081815260200182805461087b90614c8d565b80156108c85780601f1061089d576101008083540402835291602001916108c8565b820191906000526020600020905b8154815290600101906020018083116108ab57829003601f168201915b505050505081565b6060600360009054906101000a900473ffffffffffffffffffffffffffffffffffffffff1673ffffffffffffffffffffffffffffffffffffffff16630e89341c836040518263ffffffff1660e01b815260040161092d91906148cd565b60006040518083038186803b15801561094557600080fd5b505afa158015610959573d6000803e3d6000fd5b505050506040513d6000823e3d601f19601f820116820180604052508101906109829190613b83565b9050919050565b600047905090565b3373ffffffffffffffffffffffffffffffffffffffff16600460009054906101000a900473ffffffffffffffffffffffffffffffffffffffff1673ffffffffffffffffffffffffffffffffffffffff1614610a21576040517f08c379a0000000000000000000000000000000000000000000000000000000008152600401610a18906146a9565b60405180910390fd5b6002600c541415610a67576040517f08c379a0000000000000000000000000000000000000000000000000000000008152600401610a5e90614849565b60405180910390fd5b6002600c819055506000610a7d8360025461073f565b90506000826064600060019054906101000a90046fffffffffffffffffffffffffffffffff166fffffffffffffffffffffffffffffffff16600154610ac29190614b42565b610acc9190614b11565b600154610ad99190614abb565b610ae39190614b42565b905080341015610b28576040517f08c379a0000000000000000000000000000000000000000000000000000000008152600401610b1f90614549565b60405180910390fd5b610b46843360025486604051806020016040528060008152506122f0565b6000808573ffffffffffffffffffffffffffffffffffffffff1683604051610b6d906142ae565b60006040518083038185875af1925050503d8060008114610baa576040519150601f19603f3d011682016040523d82523d6000602084013e610baf565b606091505b509150915081610bf4576040517f08c379a0000000000000000000000000000000000000000000000000000000008152600401610beb906145c9565b60405180910390fd5b3373ffffffffffffffffffffffffffffffffffffffff16600360009054906101000a900473ffffffffffffffffffffffffffffffffffffffff1673ffffffffffffffffffffffffffffffffffffffff167fd5663b7e74dd83da02889d52250b473b5039a7eff2bd9d93534e2a947fb32a79600060019054906101000a90046fffffffffffffffffffffffffffffffff1686604051610c939291906148a4565b60405180910390a3505050506001600c819055505050565b60008054906101000a900460ff1681565b60025481565b600360009054906101000a900473ffffffffffffffffffffffffffffffffffffffff1681565b6040517f08c379a0000000000000000000000000000000000000000000000000000000008152600401610d1a90614689565b60405180910390fd5b610d2b612575565b73ffffffffffffffffffffffffffffffffffffffff168573ffffffffffffffffffffffffffffffffffffffff161480610d715750610d7085610d6b612575565b611fdb565b5b610db0576040517f08c379a0000000000000000000000000000000000000000000000000000000008152600401610da790614669565b60405180910390fd5b610dbd858585858561257d565b5050505050565b3373ffffffffffffffffffffffffffffffffffffffff16600460009054906101000a900473ffffffffffffffffffffffffffffffffffffffff1673ffffffffffffffffffffffffffffffffffffffff1614610e54576040517f08c379a0000000000000000000000000000000000000000000000000000000008152600401610e4b906146a9565b60405180910390fd5b565b60608151835114610e9c576040517f08c379a0000000000000000000000000000000000000000000000000000000008152600401610e93906147c9565b60405180910390fd5b6000835167ffffffffffffffff811115610edf577f4e487b7100000000000000000000000000000000000000000000000000000000600052604160045260246000fd5b604051908082528060200260200182016040528015610f0d5781602001602082028036833780820191505090505b50905060005b8451811015610ffc57610fa6858281518110610f58577f4e487b7100000000000000000000000000000000000000000000000000000000600052603260045260246000fd5b6020026020010151858381518110610f99577f4e487b7100000000000000000000000000000000000000000000000000000000600052603260045260246000fd5b602002602001015161073f565b828281518110610fdf577f4e487b7100000000000000000000000000000000000000000000000000000000600052603260045260246000fd5b60200260200101818152505080610ff590614cf0565b9050610f13565b508091505092915050565b600181565b3373ffffffffffffffffffffffffffffffffffffffff16600460009054906101000a900473ffffffffffffffffffffffffffffffffffffffff1673ffffffffffffffffffffffffffffffffffffffff161461109c576040517f08c379a0000000000000000000000000000000000000000000000000000000008152600401611093906146a9565b60405180910390fd5b6000600154146110e1576040517f08c379a00000000000000000000000000000000000000000000000000000000081526004016110d890614749565b60405180910390fd5b60008311611124576040517f08c379a000000000000000000000000000000000000000000000000000000000815260040161111b906147e9565b60405180910390fd5b60008160ff161161116a576040517f08c379a0000000000000000000000000000000000000000000000000000000008152600401611161906146c9565b60405180910390fd5b6000826fffffffffffffffffffffffffffffffff16116111bf576040517f08c379a00000000000000000000000000000000000000000000000000000000081526004016111b690614769565b60405180910390fd5b8260018190555083600281905550806000806101000a81548160ff021916908360ff16021790555081600060016101000a8154816fffffffffffffffffffffffffffffffff02191690836fffffffffffffffffffffffffffffffff16021790555033600460006101000a81548173ffffffffffffffffffffffffffffffffffffffff021916908373ffffffffffffffffffffffffffffffffffffffff160217905550600360009054906101000a900473ffffffffffffffffffffffffffffffffffffffff1673ffffffffffffffffffffffffffffffffffffffff166306fdde036040518163ffffffff1660e01b815260040160006040518083038186803b1580156112c957600080fd5b505afa9250505080156112ff57506040513d6000823e3d601f19601f820116820180604052508101906112fc9190613b83565b60015b61133d577fcf34ef537ac33ee1ac626ca1587a0a7e8e51561e5514f8cb36afa1c5102b3bab60405161133090614629565b60405180910390a1611375565b8060405160200161134e919061426a565b604051602081830303815290604052600690805190602001906113729291906131c5565b50505b600360009054906101000a900473ffffffffffffffffffffffffffffffffffffffff1673ffffffffffffffffffffffffffffffffffffffff166395d89b416040518163ffffffff1660e01b815260040160006040518083038186803b1580156113dd57600080fd5b505afa92505050801561141357506040513d6000823e3d601f19601f820116820180604052508101906114109190613b83565b60015b611451577fcf34ef537ac33ee1ac626ca1587a0a7e8e51561e5514f8cb36afa1c5102b3bab60405161144490614629565b60405180910390a1611489565b80604051602001611462919061428c565b604051602081830303815290604052600790805190602001906114869291906131c5565b50505b6114b63360025460008054906101000a900460ff1660ff16604051806020016040528060008152506128e0565b600360009054906101000a900473ffffffffffffffffffffffffffffffffffffffff1673ffffffffffffffffffffffffffffffffffffffff1663f242432a3330600254600360009054906101000a900473ffffffffffffffffffffffffffffffffffffffff1673ffffffffffffffffffffffffffffffffffffffff1662fdd58e336002546040518363ffffffff1660e01b81526004016115579291906143f8565b60206040518083038186803b15801561156f57600080fd5b505afa158015611583573d6000803e3d6000fd5b505050506040513d601f19601f820116820180604052508101906115a79190613bed565b6040518563ffffffff1660e01b81526004016115c694939291906143a0565b600060405180830381600087803b1580156115e057600080fd5b505af11580156115f4573d6000803e3d6000fd5b5050505060008054906101000a900460ff1660ff16600254600360009054906101000a900473ffffffffffffffffffffffffffffffffffffffff1673ffffffffffffffffffffffffffffffffffffffff167f8eda9f7baecedb63b5885e935f8ec07ef838565094b025bc96b75ca8a1eaab34600154600060019054906101000a90046fffffffffffffffffffffffffffffffff166040516116969291906148e8565b60405180910390a450505050565b6040517f08c379a00000000000000000000000000000000000000000000000000000000081526004016116d690614689565b60405180910390fd5b6040517f08c379a000000000000000000000000000000000000000000000000000000000815260040161171190614689565b60405180910390fd5b6007805461172790614c8d565b80601f016020809104026020016040519081016040528092919081815260200182805461175390614c8d565b80156117a05780601f10611775576101008083540402835291602001916117a0565b820191906000526020600020905b81548152906001019060200180831161178357829003601f168201915b505050505081565b8173ffffffffffffffffffffffffffffffffffffffff166117c7612575565b73ffffffffffffffffffffffffffffffffffffffff16141561181e576040517f08c379a0000000000000000000000000000000000000000000000000000000008152600401611815906147a9565b60405180910390fd5b806009600061182b612575565b73ffffffffffffffffffffffffffffffffffffffff1673ffffffffffffffffffffffffffffffffffffffff16815260200190815260200160002060008473ffffffffffffffffffffffffffffffffffffffff1673ffffffffffffffffffffffffffffffffffffffff16815260200190815260200160002060006101000a81548160ff0219169083151502179055508173ffffffffffffffffffffffffffffffffffffffff166118d8612575565b73ffffffffffffffffffffffffffffffffffffffff167f17307eab39ab6107e8899845ad3d59bd9653f200f220920489ca2b5937696c318360405161191d91906144b1565b60405180910390a35050565b60008054906101000a900460ff1660ff166119463360025461073f565b14611986576040517f08c379a000000000000000000000000000000000000000000000000000000000815260040161197d90614729565b60405180910390fd5b6002600c5414156119cc576040517f08c379a00000000000000000000000000000000000000000000000000000000081526004016119c390614849565b60405180910390fd5b6002600c819055506119f13360025460008054906101000a900460ff1660ff16612a77565b600360009054906101000a900473ffffffffffffffffffffffffffffffffffffffff1673ffffffffffffffffffffffffffffffffffffffff1663f242432a3033600254600360009054906101000a900473ffffffffffffffffffffffffffffffffffffffff1673ffffffffffffffffffffffffffffffffffffffff1662fdd58e306002546040518363ffffffff1660e01b8152600401611a929291906143f8565b60206040518083038186803b158015611aaa57600080fd5b505afa158015611abe573d6000803e3d6000fd5b505050506040513d601f19601f82011682018060405250810190611ae29190613bed565b6040518563ffffffff1660e01b8152600401611b0194939291906143a0565b600060405180830381600087803b158015611b1b57600080fd5b505af1158015611b2f573d6000803e3d6000fd5b505050503373ffffffffffffffffffffffffffffffffffffffff16600360009054906101000a900473ffffffffffffffffffffffffffffffffffffffff1673ffffffffffffffffffffffffffffffffffffffff167f31feb898858079f9a65f9613eee76e0b1a19364a4d3af0a2f959adef6d8af82660405160405180910390a36001600c81905550565b600063bc197c8160e01b905095945050505050565b3373ffffffffffffffffffffffffffffffffffffffff16600460009054906101000a900473ffffffffffffffffffffffffffffffffffffffff1673ffffffffffffffffffffffffffffffffffffffff161415611c5f576040517f08c379a0000000000000000000000000000000000000000000000000000000008152600401611c5690614789565b60405180910390fd5b6002600c541415611ca5576040517f08c379a0000000000000000000000000000000000000000000000000000000008152600401611c9c90614849565b60405180910390fd5b6002600c819055506000611cdd600460009054906101000a900473ffffffffffffffffffffffffffffffffffffffff1660025461073f565b905081811015611d22576040517f08c379a0000000000000000000000000000000000000000000000000000000008152600401611d19906145a9565b60405180910390fd5b3373ffffffffffffffffffffffffffffffffffffffff16600460009054906101000a900473ffffffffffffffffffffffffffffffffffffffff1673ffffffffffffffffffffffffffffffffffffffff161415611db3576040517f08c379a0000000000000000000000000000000000000000000000000000000008152600401611daa90614869565b60405180910390fd5b600082600154611dc39190614b42565b905080341015611e08576040517f08c379a0000000000000000000000000000000000000000000000000000000008152600401611dff90614609565b60405180910390fd5b611e48600460009054906101000a900473ffffffffffffffffffffffffffffffffffffffff163360025486604051806020016040528060008152506122f0565b600080600460009054906101000a900473ffffffffffffffffffffffffffffffffffffffff1673ffffffffffffffffffffffffffffffffffffffff1634604051611e91906142ae565b60006040518083038185875af1925050503d8060008114611ece576040519150601f19603f3d011682016040523d82523d6000602084013e611ed3565b606091505b5091509150843373ffffffffffffffffffffffffffffffffffffffff16600460009054906101000a900473ffffffffffffffffffffffffffffffffffffffff1673ffffffffffffffffffffffffffffffffffffffff167f70cd864c0863dd4b53c1c2e09e5affab9b63d1497282919be454186dbe56f80c86604051611f5891906148cd565b60405180910390a481611fa0576040517f08c379a0000000000000000000000000000000000000000000000000000000008152600401611f97906145c9565b60405180910390fd5b505050506001600c8190555050565b600560009054906101000a900473ffffffffffffffffffffffffffffffffffffffff1681565b60015481565b6000600960008473ffffffffffffffffffffffffffffffffffffffff1673ffffffffffffffffffffffffffffffffffffffff16815260200190815260200160002060008373ffffffffffffffffffffffffffffffffffffffff1673ffffffffffffffffffffffffffffffffffffffff16815260200190815260200160002060009054906101000a900460ff16905092915050565b600460009054906101000a900473ffffffffffffffffffffffffffffffffffffffff1681565b600063f23a6e6160e01b90509695505050505050565b600560009054906101000a900473ffffffffffffffffffffffffffffffffffffffff1673ffffffffffffffffffffffffffffffffffffffff166376110657600360009054906101000a900473ffffffffffffffffffffffffffffffffffffffff16600254306040518463ffffffff1660e01b815260040161212e93929190614421565b602060405180830381600087803b15801561214857600080fd5b505af115801561215c573d6000803e3d6000fd5b505050506040513d601f19601f820116820180604052508101906121809190613ac7565b6121bf576040517f08c379a00000000000000000000000000000000000000000000000000000000081526004016121b6906145e9565b60405180910390fd5b6121cc85858585856122f0565b5050505050565b6040517f08c379a000000000000000000000000000000000000000000000000000000000815260040161220590614689565b60405180910390fd5b60007fd9b67a26000000000000000000000000000000000000000000000000000000007bffffffffffffffffffffffffffffffffffffffffffffffffffffffff1916827bffffffffffffffffffffffffffffffffffffffffffffffffffffffff191614806122d957507f0e89341c000000000000000000000000000000000000000000000000000000007bffffffffffffffffffffffffffffffffffffffffffffffffffffffff1916827bffffffffffffffffffffffffffffffffffffffffffffffffffffffff1916145b806122e957506122e882612c96565b5b9050919050565b600073ffffffffffffffffffffffffffffffffffffffff168473ffffffffffffffffffffffffffffffffffffffff161415612360576040517f08c379a000000000000000000000000000000000000000000000000000000000815260040161235790614649565b60405180910390fd5b600061236a612575565b905061238a81878761237b88612d00565b61238488612d00565b87612dc6565b60006008600086815260200190815260200160002060008873ffffffffffffffffffffffffffffffffffffffff1673ffffffffffffffffffffffffffffffffffffffff16815260200190815260200160002054905083811015612422576040517f08c379a000000000000000000000000000000000000000000000000000000000815260040161241990614709565b60405180910390fd5b8381036008600087815260200190815260200160002060008973ffffffffffffffffffffffffffffffffffffffff1673ffffffffffffffffffffffffffffffffffffffff16815260200190815260200160002081905550836008600087815260200190815260200160002060008873ffffffffffffffffffffffffffffffffffffffff1673ffffffffffffffffffffffffffffffffffffffff16815260200190815260200160002060008282546124d99190614abb565b925050819055508573ffffffffffffffffffffffffffffffffffffffff168773ffffffffffffffffffffffffffffffffffffffff168373ffffffffffffffffffffffffffffffffffffffff167fc3d58168c5ae7397731d063d5bbf3d657854427343f4c083240f7aacaa2d0f628888604051612556929190614911565b60405180910390a461256c828888888888612ddc565b50505050505050565b600033905090565b81518351146125c1576040517f08c379a00000000000000000000000000000000000000000000000000000000081526004016125b890614809565b60405180910390fd5b600073ffffffffffffffffffffffffffffffffffffffff168473ffffffffffffffffffffffffffffffffffffffff161415612631576040517f08c379a000000000000000000000000000000000000000000000000000000000815260040161262890614649565b60405180910390fd5b600061263b612575565b905061264b818787878787612dc6565b60005b845181101561284b576000858281518110612692577f4e487b7100000000000000000000000000000000000000000000000000000000600052603260045260246000fd5b6020026020010151905060008583815181106126d7577f4e487b7100000000000000000000000000000000000000000000000000000000600052603260045260246000fd5b6020026020010151905060006008600084815260200190815260200160002060008b73ffffffffffffffffffffffffffffffffffffffff1673ffffffffffffffffffffffffffffffffffffffff16815260200190815260200160002054905081811015612779576040517f08c379a000000000000000000000000000000000000000000000000000000000815260040161277090614709565b60405180910390fd5b8181036008600085815260200190815260200160002060008c73ffffffffffffffffffffffffffffffffffffffff1673ffffffffffffffffffffffffffffffffffffffff16815260200190815260200160002081905550816008600085815260200190815260200160002060008b73ffffffffffffffffffffffffffffffffffffffff1673ffffffffffffffffffffffffffffffffffffffff16815260200190815260200160002060008282546128309190614abb565b925050819055505050508061284490614cf0565b905061264e565b508473ffffffffffffffffffffffffffffffffffffffff168673ffffffffffffffffffffffffffffffffffffffff168273ffffffffffffffffffffffffffffffffffffffff167f4a39dc06d4c0dbc64b70af90fd698a233a518aa5d07e595d983b8c0526c8f7fb87876040516128c292919061447a565b60405180910390a46128d8818787878787612fc3565b505050505050565b600073ffffffffffffffffffffffffffffffffffffffff168473ffffffffffffffffffffffffffffffffffffffff161415612950576040517f08c379a000000000000000000000000000000000000000000000000000000000815260040161294790614829565b60405180910390fd5b600061295a612575565b905061297b8160008761296c88612d00565b61297588612d00565b87612dc6565b826008600086815260200190815260200160002060008773ffffffffffffffffffffffffffffffffffffffff1673ffffffffffffffffffffffffffffffffffffffff16815260200190815260200160002060008282546129db9190614abb565b925050819055508473ffffffffffffffffffffffffffffffffffffffff16600073ffffffffffffffffffffffffffffffffffffffff168273ffffffffffffffffffffffffffffffffffffffff167fc3d58168c5ae7397731d063d5bbf3d657854427343f4c083240f7aacaa2d0f628787604051612a59929190614911565b60405180910390a4612a7081600087878787612ddc565b5050505050565b600073ffffffffffffffffffffffffffffffffffffffff168373ffffffffffffffffffffffffffffffffffffffff161415612ae7576040517f08c379a0000000000000000000000000000000000000000000000000000000008152600401612ade906146e9565b60405180910390fd5b6000612af1612575565b9050612b2181856000612b0387612d00565b612b0c87612d00565b60405180602001604052806000815250612dc6565b60006008600085815260200190815260200160002060008673ffffffffffffffffffffffffffffffffffffffff1673ffffffffffffffffffffffffffffffffffffffff16815260200190815260200160002054905082811015612bb9576040517f08c379a0000000000000000000000000000000000000000000000000000000008152600401612bb090614589565b60405180910390fd5b8281036008600086815260200190815260200160002060008773ffffffffffffffffffffffffffffffffffffffff1673ffffffffffffffffffffffffffffffffffffffff16815260200190815260200160002081905550600073ffffffffffffffffffffffffffffffffffffffff168573ffffffffffffffffffffffffffffffffffffffff168373ffffffffffffffffffffffffffffffffffffffff167fc3d58168c5ae7397731d063d5bbf3d657854427343f4c083240f7aacaa2d0f628787604051612c87929190614911565b60405180910390a45050505050565b60007f01ffc9a7000000000000000000000000000000000000000000000000000000007bffffffffffffffffffffffffffffffffffffffffffffffffffffffff1916827bffffffffffffffffffffffffffffffffffffffffffffffffffffffff1916149050919050565b60606000600167ffffffffffffffff811115612d45577f4e487b7100000000000000000000000000000000000000000000000000000000600052604160045260246000fd5b604051908082528060200260200182016040528015612d735781602001602082028036833780820191505090505b5090508281600081518110612db1577f4e487b7100000000000000000000000000000000000000000000000000000000600052603260045260246000fd5b60200260200101818152505080915050919050565b612dd48686868686866131aa565b505050505050565b612dfb8473ffffffffffffffffffffffffffffffffffffffff166131b2565b15612fbb578373ffffffffffffffffffffffffffffffffffffffff1663f23a6e6187878686866040518663ffffffff1660e01b8152600401612e41959493929190614346565b602060405180830381600087803b158015612e5b57600080fd5b505af1925050508015612e8c57506040513d601f19601f82011682018060405250810190612e899190613b19565b60015b612f3257612e98614df5565b806308c379a01415612ef55750612ead615696565b80612eb85750612ef7565b806040517f08c379a0000000000000000000000000000000000000000000000000000000008152600401612eec91906144e7565b60405180910390fd5b505b6040517f08c379a0000000000000000000000000000000000000000000000000000000008152600401612f2990614509565b60405180910390fd5b63f23a6e6160e01b7bffffffffffffffffffffffffffffffffffffffffffffffffffffffff1916817bffffffffffffffffffffffffffffffffffffffffffffffffffffffff191614612fb9576040517f08c379a0000000000000000000000000000000000000000000000000000000008152600401612fb090614529565b60405180910390fd5b505b505050505050565b612fe28473ffffffffffffffffffffffffffffffffffffffff166131b2565b156131a2578373ffffffffffffffffffffffffffffffffffffffff1663bc197c8187878686866040518663ffffffff1660e01b81526004016130289594939291906142de565b602060405180830381600087803b15801561304257600080fd5b505af192505050801561307357506040513d601f19601f820116820180604052508101906130709190613b19565b60015b6131195761307f614df5565b806308c379a014156130dc5750613094615696565b8061309f57506130de565b806040517f08c379a00000000000000000000000000000000000000000000000000000000081526004016130d391906144e7565b60405180910390fd5b505b6040517f08c379a000000000000000000000000000000000000000000000000000000000815260040161311090614509565b60405180910390fd5b63bc197c8160e01b7bffffffffffffffffffffffffffffffffffffffffffffffffffffffff1916817bffffffffffffffffffffffffffffffffffffffffffffffffffffffff1916146131a0576040517f08c379a000000000000000000000000000000000000000000000000000000000815260040161319790614529565b60405180910390fd5b505b505050505050565b505050505050565b600080823b905060008111915050919050565b8280546131d190614c8d565b90600052602060002090601f0160209004810192826131f3576000855561323a565b82601f1061320c57805160ff191683800117855561323a565b8280016001018555821561323a579182015b8281111561323957825182559160200191906001019061321e565b5b509050613247919061324b565b5090565b5b8082111561326457600081600090555060010161324c565b5090565b600061327b6132768461497a565b614955565b9050808382526020820190508285602086028201111561329a57600080fd5b60005b858110156132ca57816132b088826133fa565b84526020840193506020830192505060018101905061329d565b5050509392505050565b60006132e76132e2846149a6565b614955565b9050808382526020820190508285602086028201111561330657600080fd5b60005b85811015613336578161331c8882613594565b845260208401935060208301925050600181019050613309565b5050509392505050565b600061335361334e846149d2565b614955565b90508281526020810184848401111561336b57600080fd5b613376848285614c4b565b509392505050565b600061339161338c84614a03565b614955565b9050828152602081018484840111156133a957600080fd5b6133b4848285614c4b565b509392505050565b60006133cf6133ca84614a03565b614955565b9050828152602081018484840111156133e757600080fd5b6133f2848285614c5a565b509392505050565b6000813590506134098161572c565b92915050565b600082601f83011261342057600080fd5b8135613430848260208601613268565b91505092915050565b600082601f83011261344a57600080fd5b813561345a8482602086016132d4565b91505092915050565b60008135905061347281615743565b92915050565b60008151905061348781615743565b92915050565b60008135905061349c8161575a565b92915050565b6000815190506134b18161575a565b92915050565b60008083601f8401126134c957600080fd5b8235905067ffffffffffffffff8111156134e257600080fd5b6020830191508360018202830111156134fa57600080fd5b9250929050565b600082601f83011261351257600080fd5b8135613522848260208601613340565b91505092915050565b600082601f83011261353c57600080fd5b813561354c84826020860161337e565b91505092915050565b600082601f83011261356657600080fd5b81516135768482602086016133bc565b91505092915050565b60008135905061358e81615771565b92915050565b6000813590506135a381615788565b92915050565b6000815190506135b881615788565b92915050565b6000813590506135cd8161579f565b92915050565b600080604083850312156135e657600080fd5b60006135f4858286016133fa565b9250506020613605858286016133fa565b9150509250929050565b600080600080600060a0868803121561362757600080fd5b6000613635888289016133fa565b9550506020613646888289016133fa565b945050604086013567ffffffffffffffff81111561366357600080fd5b61366f88828901613439565b935050606086013567ffffffffffffffff81111561368c57600080fd5b61369888828901613439565b925050608086013567ffffffffffffffff8111156136b557600080fd5b6136c188828901613501565b9150509295509295909350565b60008060008060008060a087890312156136e757600080fd5b60006136f589828a016133fa565b965050602061370689828a016133fa565b955050604061371789828a01613594565b945050606061372889828a01613594565b935050608087013567ffffffffffffffff81111561374557600080fd5b61375189828a016134b7565b92509250509295509295509295565b600080600080600060a0868803121561377857600080fd5b6000613786888289016133fa565b9550506020613797888289016133fa565b94505060406137a888828901613594565b93505060606137b988828901613594565b925050608086013567ffffffffffffffff8111156137d657600080fd5b6137e288828901613501565b9150509295509295909350565b60008060006060848603121561380457600080fd5b6000613812868287016133fa565b935050602084013567ffffffffffffffff81111561382f57600080fd5b61383b86828701613439565b925050604084013567ffffffffffffffff81111561385857600080fd5b61386486828701613439565b9150509250925092565b6000806000806080858703121561388457600080fd5b6000613892878288016133fa565b945050602085013567ffffffffffffffff8111156138af57600080fd5b6138bb87828801613439565b935050604085013567ffffffffffffffff8111156138d857600080fd5b6138e487828801613439565b925050606085013567ffffffffffffffff81111561390157600080fd5b61390d87828801613501565b91505092959194509250565b6000806040838503121561392c57600080fd5b600061393a858286016133fa565b925050602061394b85828601613463565b9150509250929050565b6000806040838503121561396857600080fd5b6000613976858286016133fa565b925050602061398785828601613594565b9150509250929050565b6000806000606084860312156139a657600080fd5b60006139b4868287016133fa565b93505060206139c586828701613594565b92505060406139d686828701613594565b9150509250925092565b600080600080608085870312156139f657600080fd5b6000613a04878288016133fa565b9450506020613a1587828801613594565b9350506040613a2687828801613594565b925050606085013567ffffffffffffffff811115613a4357600080fd5b613a4f87828801613501565b91505092959194509250565b60008060408385031215613a6e57600080fd5b600083013567ffffffffffffffff811115613a8857600080fd5b613a948582860161340f565b925050602083013567ffffffffffffffff811115613ab157600080fd5b613abd85828601613439565b9150509250929050565b600060208284031215613ad957600080fd5b6000613ae784828501613478565b91505092915050565b600060208284031215613b0257600080fd5b6000613b108482850161348d565b91505092915050565b600060208284031215613b2b57600080fd5b6000613b39848285016134a2565b91505092915050565b600060208284031215613b5457600080fd5b600082013567ffffffffffffffff811115613b6e57600080fd5b613b7a8482850161352b565b91505092915050565b600060208284031215613b9557600080fd5b600082015167ffffffffffffffff811115613baf57600080fd5b613bbb84828501613555565b91505092915050565b600060208284031215613bd657600080fd5b6000613be484828501613594565b91505092915050565b600060208284031215613bff57600080fd5b6000613c0d848285016135a9565b91505092915050565b60008060008060808587031215613c2c57600080fd5b6000613c3a87828801613594565b9450506020613c4b87828801613594565b9350506040613c5c8782880161357f565b9250506060613c6d878288016135be565b91505092959194509250565b6000613c85838361423d565b60208301905092915050565b613c9a81614b9c565b82525050565b6000613cab82614a44565b613cb58185614a72565b9350613cc083614a34565b8060005b83811015613cf1578151613cd88882613c79565b9750613ce383614a65565b925050600181019050613cc4565b5085935050505092915050565b613d0781614bae565b82525050565b613d1681614bba565b82525050565b6000613d2782614a4f565b613d318185614a83565b9350613d41818560208601614c5a565b613d4a81614e17565b840191505092915050565b6000613d6082614a5a565b613d6a8185614a9f565b9350613d7a818560208601614c5a565b613d8381614e17565b840191505092915050565b6000613d9982614a5a565b613da38185614ab0565b9350613db3818560208601614c5a565b80840191505092915050565b6000613dcc603483614a9f565b9150613dd782614e35565b604082019050919050565b6000613def602883614a9f565b9150613dfa82614e84565b604082019050919050565b6000613e12603483614a9f565b9150613e1d82614ed3565b604082019050919050565b6000613e35602b83614a9f565b9150613e4082614f22565b604082019050919050565b6000613e58602483614a9f565b9150613e6382614f71565b604082019050919050565b6000613e7b602583614a9f565b9150613e8682614fc0565b604082019050919050565b6000613e9e601483614a9f565b9150613ea98261500f565b602082019050919050565b6000613ec1603d83614a9f565b9150613ecc82615038565b604082019050919050565b6000613ee4602b83614a9f565b9150613eef82615087565b604082019050919050565b6000613f07602183614a9f565b9150613f12826150d6565b604082019050919050565b6000613f2a600f83614ab0565b9150613f3582615125565b600f82019050919050565b6000613f4d602583614a9f565b9150613f588261514e565b604082019050919050565b6000613f70603283614a9f565b9150613f7b8261519d565b604082019050919050565b6000613f93601883614a9f565b9150613f9e826151ec565b602082019050919050565b6000613fb6603e83614a9f565b9150613fc182615215565b604082019050919050565b6000613fd9601b83614a9f565b9150613fe482615264565b602082019050919050565b6000613ffc602383614a9f565b91506140078261528d565b604082019050919050565b600061401f602a83614a9f565b915061402a826152dc565b604082019050919050565b6000614042600283614ab0565b915061404d8261532b565b600282019050919050565b6000614065604383614a9f565b915061407082615354565b606082019050919050565b6000614088602583614a9f565b9150614093826153c9565b604082019050919050565b60006140ab600083614a83565b91506140b682615418565b600082019050919050565b60006140ce600083614a94565b91506140d982615418565b600082019050919050565b60006140f1602083614a9f565b91506140fc8261541b565b602082019050919050565b6000614114604783614a9f565b915061411f82615444565b606082019050919050565b6000614137602983614a9f565b9150614142826154b9565b604082019050919050565b600061415a602983614a9f565b915061416582615508565b604082019050919050565b600061417d601a83614a9f565b915061418882615557565b602082019050919050565b60006141a0602883614a9f565b91506141ab82615580565b604082019050919050565b60006141c3602183614a9f565b91506141ce826155cf565b604082019050919050565b60006141e6601f83614a9f565b91506141f18261561e565b602082019050919050565b6000614209602a83614a9f565b915061421482615647565b604082019050919050565b61422881614be6565b82525050565b61423781614c39565b82525050565b61424681614c22565b82525050565b61425581614c22565b82525050565b61426481614c2c565b82525050565b600061427582613f1d565b91506142818284613d8e565b915081905092915050565b600061429782614035565b91506142a38284613d8e565b915081905092915050565b60006142b9826140c1565b9150819050919050565b60006020820190506142d86000830184613c91565b92915050565b600060a0820190506142f36000830188613c91565b6143006020830187613c91565b81810360408301526143128186613ca0565b905081810360608301526143268185613ca0565b9050818103608083015261433a8184613d1c565b90509695505050505050565b600060a08201905061435b6000830188613c91565b6143686020830187613c91565b614375604083018661424c565b614382606083018561424c565b81810360808301526143948184613d1c565b90509695505050505050565b600060a0820190506143b56000830187613c91565b6143c26020830186613c91565b6143cf604083018561424c565b6143dc606083018461424c565b81810360808301526143ed8161409e565b905095945050505050565b600060408201905061440d6000830185613c91565b61441a602083018461424c565b9392505050565b60006060820190506144366000830186613c91565b614443602083018561424c565b6144506040830184613c91565b949350505050565b600060208201905081810360008301526144728184613ca0565b905092915050565b600060408201905081810360008301526144948185613ca0565b905081810360208301526144a88184613ca0565b90509392505050565b60006020820190506144c66000830184613cfe565b92915050565b60006020820190506144e16000830184613d0d565b92915050565b600060208201905081810360008301526145018184613d55565b905092915050565b6000602082019050818103600083015261452281613dbf565b9050919050565b6000602082019050818103600083015261454281613de2565b9050919050565b6000602082019050818103600083015261456281613e05565b9050919050565b6000602082019050818103600083015261458281613e28565b9050919050565b600060208201905081810360008301526145a281613e4b565b9050919050565b600060208201905081810360008301526145c281613e6e565b9050919050565b600060208201905081810360008301526145e281613e91565b9050919050565b6000602082019050818103600083015261460281613eb4565b9050919050565b6000602082019050818103600083015261462281613ed7565b9050919050565b6000602082019050818103600083015261464281613efa565b9050919050565b6000602082019050818103600083015261466281613f40565b9050919050565b6000602082019050818103600083015261468281613f63565b9050919050565b600060208201905081810360008301526146a281613f86565b9050919050565b600060208201905081810360008301526146c281613fa9565b9050919050565b600060208201905081810360008301526146e281613fcc565b9050919050565b6000602082019050818103600083015261470281613fef565b9050919050565b6000602082019050818103600083015261472281614012565b9050919050565b6000602082019050818103600083015261474281614058565b9050919050565b600060208201905081810360008301526147628161407b565b9050919050565b60006020820190508181036000830152614782816140e4565b9050919050565b600060208201905081810360008301526147a281614107565b9050919050565b600060208201905081810360008301526147c28161412a565b9050919050565b600060208201905081810360008301526147e28161414d565b9050919050565b6000602082019050818103600083015261480281614170565b9050919050565b6000602082019050818103600083015261482281614193565b9050919050565b60006020820190508181036000830152614842816141b6565b9050919050565b60006020820190508181036000830152614862816141d9565b9050919050565b60006020820190508181036000830152614882816141fc565b9050919050565b600060208201905061489e600083018461421f565b92915050565b60006040820190506148b9600083018561422e565b6148c6602083018461424c565b9392505050565b60006020820190506148e2600083018461424c565b92915050565b60006040820190506148fd600083018561424c565b61490a602083018461422e565b9392505050565b6000604082019050614926600083018561424c565b614933602083018461424c565b9392505050565b600060208201905061494f600083018461425b565b92915050565b600061495f614970565b905061496b8282614cbf565b919050565b6000604051905090565b600067ffffffffffffffff82111561499557614994614dc6565b5b602082029050602081019050919050565b600067ffffffffffffffff8211156149c1576149c0614dc6565b5b602082029050602081019050919050565b600067ffffffffffffffff8211156149ed576149ec614dc6565b5b6149f682614e17565b9050602081019050919050565b600067ffffffffffffffff821115614a1e57614a1d614dc6565b5b614a2782614e17565b9050602081019050919050565b6000819050602082019050919050565b600081519050919050565b600081519050919050565b600081519050919050565b6000602082019050919050565b600082825260208201905092915050565b600082825260208201905092915050565b600081905092915050565b600082825260208201905092915050565b600081905092915050565b6000614ac682614c22565b9150614ad183614c22565b9250827fffffffffffffffffffffffffffffffffffffffffffffffffffffffffffffffff03821115614b0657614b05614d39565b5b828201905092915050565b6000614b1c82614c22565b9150614b2783614c22565b925082614b3757614b36614d68565b5b828204905092915050565b6000614b4d82614c22565b9150614b5883614c22565b9250817fffffffffffffffffffffffffffffffffffffffffffffffffffffffffffffffff0483118215151615614b9157614b90614d39565b5b828202905092915050565b6000614ba782614c02565b9050919050565b60008115159050919050565b60007fffffffff0000000000000000000000000000000000000000000000000000000082169050919050565b60006fffffffffffffffffffffffffffffffff82169050919050565b600073ffffffffffffffffffffffffffffffffffffffff82169050919050565b6000819050919050565b600060ff82169050919050565b6000614c4482614be6565b9050919050565b82818337600083830152505050565b60005b83811015614c78578082015181840152602081019050614c5d565b83811115614c87576000848401525b50505050565b60006002820490506001821680614ca557607f821691505b60208210811415614cb957614cb8614d97565b5b50919050565b614cc882614e17565b810181811067ffffffffffffffff82111715614ce757614ce6614dc6565b5b80604052505050565b6000614cfb82614c22565b91507fffffffffffffffffffffffffffffffffffffffffffffffffffffffffffffffff821415614d2e57614d2d614d39565b5b600182019050919050565b7f4e487b7100000000000000000000000000000000000000000000000000000000600052601160045260246000fd5b7f4e487b7100000000000000000000000000000000000000000000000000000000600052601260045260246000fd5b7f4e487b7100000000000000000000000000000000000000000000000000000000600052602260045260246000fd5b7f4e487b7100000000000000000000000000000000000000000000000000000000600052604160045260246000fd5b600060033d1115614e145760046000803e614e11600051614e28565b90505b90565b6000601f19601f8301169050919050565b60008160e01c9050919050565b7f455243313135353a207472616e7366657220746f206e6f6e204552433131353560008201527f526563656976657220696d706c656d656e746572000000000000000000000000602082015250565b7f455243313135353a204552433131353552656365697665722072656a6563746560008201527f6420746f6b656e73000000000000000000000000000000000000000000000000602082015250565b7f4e465453706c69747465723a20696e73756666696369656e742076616c75652060008201527f666f722074686973207472616e73616374696f6e000000000000000000000000602082015250565b7f455243313135353a2062616c616e636520717565727920666f7220746865207a60008201527f65726f2061646472657373000000000000000000000000000000000000000000602082015250565b7f455243313135353a206275726e20616d6f756e7420657863656564732062616c60008201527f616e636500000000000000000000000000000000000000000000000000000000602082015250565b7f4e465453706c69747465723a206e6f7420656e6f75676820706965636573207460008201527f6f20627579000000000000000000000000000000000000000000000000000000602082015250565b7f4661696c656420746f2073656e64204574686572000000000000000000000000600082015250565b7f4e465453706c69747465723a2063616c6c6572206973206e6f7420612076616c60008201527f69642070726f78792c206f776e6572206e6f7220617070726f76656420000000602082015250565b7f4e465453706c69747465723a206e6f7420656e6f7567682076616c756520746f60008201527f2062757920706965636573000000000000000000000000000000000000000000602082015250565b7f4e465453706c69747465723a2065787465726e616c2063616c6c206661696c6560008201527f6400000000000000000000000000000000000000000000000000000000000000602082015250565b7f4e46542053706c6974746572202d200000000000000000000000000000000000600082015250565b7f455243313135353a207472616e7366657220746f20746865207a65726f20616460008201527f6472657373000000000000000000000000000000000000000000000000000000602082015250565b7f455243313135353a207472616e736665722063616c6c6572206973206e6f742060008201527f6f776e6572206e6f7220617070726f7665640000000000000000000000000000602082015250565b7f46756e6374696f6e206e6f7420696d706c656d656e7465640000000000000000600082015250565b7f4e465453706c69747465723a204f6e6c79206f726967696e616c204e4654206f60008201527f776e65722063616e206578656375746520746869732066756e6374696f6e0000602082015250565b7f4e465453706c69747465723a20696e76616c6964207069656365730000000000600082015250565b7f455243313135353a206275726e2066726f6d20746865207a65726f206164647260008201527f6573730000000000000000000000000000000000000000000000000000000000602082015250565b7f455243313135353a20696e73756666696369656e742062616c616e636520666f60008201527f72207472616e7366657200000000000000000000000000000000000000000000602082015250565b7f4e53000000000000000000000000000000000000000000000000000000000000600082015250565b7f4e465453706c69747465723a20796f752073686f756c64206f776e20616c6c2060008201527f70696563657320746f20776974686472617720746865206f726967696e616c2060208201527f4e46540000000000000000000000000000000000000000000000000000000000604082015250565b7f4e465453706c69747465723a2073706c697474657220616c726561647920637260008201527f6561746564000000000000000000000000000000000000000000000000000000602082015250565b50565b7f4e465453706c69747465723a20696e76616c69642070657263656e7461676520600082015250565b7f4e465453706c69747465723a204f726967696e616c204e4654206f776e65722060008201527f6973206e6f7420616c6c6f77656420746f20657865637574652074686973206660208201527f756e6374696f6e00000000000000000000000000000000000000000000000000604082015250565b7f455243313135353a2073657474696e6720617070726f76616c2073746174757360008201527f20666f722073656c660000000000000000000000000000000000000000000000602082015250565b7f455243313135353a206163636f756e747320616e6420696473206c656e67746860008201527f206d69736d617463680000000000000000000000000000000000000000000000602082015250565b7f4e465453706c69747465723a20696e76616c6964207072696365000000000000600082015250565b7f455243313135353a2069647320616e6420616d6f756e7473206c656e6774682060008201527f6d69736d61746368000000000000000000000000000000000000000000000000602082015250565b7f455243313135353a206d696e7420746f20746865207a65726f2061646472657360008201527f7300000000000000000000000000000000000000000000000000000000000000602082015250565b7f5265656e7472616e637947756172643a207265656e7472616e742063616c6c00600082015250565b7f4e465453706c69747465723a20796f7520617265207468652063757272656e7460008201527f206e6674206f776e657200000000000000000000000000000000000000000000602082015250565b600060443d10156156a657615729565b6156ae614970565b60043d036004823e80513d602482011167ffffffffffffffff821117156156d6575050615729565b808201805167ffffffffffffffff8111156156f45750505050615729565b80602083010160043d038501811115615711575050505050615729565b61572082602001850186614cbf565b82955050505050505b90565b61573581614b9c565b811461574057600080fd5b50565b61574c81614bae565b811461575757600080fd5b50565b61576381614bba565b811461576e57600080fd5b50565b61577a81614be6565b811461578557600080fd5b50565b61579181614c22565b811461579c57600080fd5b50565b6157a881614c2c565b81146157b357600080fd5b5056fea26469706673582212202bf2f251bd5a7eaead07d9a2e9fb214356a85813c43e0612ea3222eff657f33b64736f6c63430008030033",
  "immutableReferences": {},
  "source": "// SPDX-License-Identifier: MIT\npragma solidity >=0.4.22 <0.9.0;\nimport \"@openzeppelin/contracts/utils/introspection/ERC165.sol\";\nimport \"@openzeppelin/contracts/token/ERC1155/IERC1155Receiver.sol\";\nimport \"@openzeppelin/contracts/security/ReentrancyGuard.sol\";\nimport \"./ERC1155.sol\";\nimport \"./NFTSplitterStorage.sol\";\nimport  \"./NFTSplitterAdmin.sol\";\n\ncontract NFTSplitter is\n    NFTSplitterStorage,\n    ERC165,\n    ERC1155,\n    IERC1155Receiver,\n    ReentrancyGuard\n{\n    //base contract version\n    uint8 public constant version = 1;\n\n    //modifiers\n    /**\n     * @dev Modifier that checks that timestamp is greater than lock time\n     * TODO: implement lock logic in contract\n\n    modifier isNotLocked() {\n        require(block.timestamp > lockEndDate, \"NFTSplitter: Lock time is not over\");\n        _;\n    }*/\n\n    /**\n     * @dev Modifier that checks that only the original NFT owner can execute the trx\n     *\n     */\n    modifier onlyOriginalNFTOwner() {\n        require(originalOwner == msg.sender, \"NFTSplitter: Only original NFT owner can execute this function\");\n        _;\n    }\n\n    /**\n     * @dev Modifier that checks that the original NFT owner is not executing the trx\n     *\n     */\n    modifier notOriginalNFTOwner() {\n        require(originalOwner != msg.sender, \"NFTSplitter: Original NFT owner is not allowed to execute this function\" );\n        _;\n    }\n\n    /**\n     * @dev Modifier that checks that all pieces are owned by the same address\n     *\n     */\n    modifier ownsAllPieces() {\n        require(balanceOf(msg.sender, tokenId) == pieces, \"NFTSplitter: you should own all pieces to withdraw the original NFT\");\n        _;\n    }\n\n    /**\n     * @dev emitted after split creation\n     */\n    event NFTSplit(\n        address indexed originalNFTAddress,\n        uint indexed id,\n        uint indexed pieces,\n        uint  price,\n        uint  percentage\n    );\n\n    /**\n     * @dev emitted when buyer buys a piece\n     */\n    event NFTSplitSold(\n        address indexed pieceOwner,\n        address indexed buyer,\n        uint indexed amount,\n        uint  price\n    );\n    /**\n     * @dev emitted when NFT owner buys a piece from buyer\n     */\n    event NFTSplitBuyBack(\n        address indexed originalNFTAddress,\n        address indexed buyer,\n        uint  amount,\n        uint  price\n    );\n    /**\n     * @dev emitted when original NFT is withdrawn from contract\n     */\n    event NFTWithdraw(\n        address indexed originalNFTAddress,\n        address indexed buyer\n\n    );\n    /**\n     * @dev constructor with initial name and symbol values\n     */\n    constructor(\n        \n    ) ERC1155(\"\") {\n        name = \"NFT Splitter\";\n        symbol = \"NFTS\";\n    }\n\n    event Log(string message);\n\n    //no set uri function needed\n    function setURI(string memory newuri) public{\n        revert();\n    }\n\n\n    //mint function will not be needed after contract creation\n    function mint(\n        address account,\n        uint256 id,\n        uint256 amount,\n        bytes memory data\n    ) public  {\n        revert(\"Function not implemented\");\n    }\n\n    //mint function will not be needed after contract creation\n    function mintBatch(\n        address to,\n        uint256[] memory ids,\n        uint256[] memory amounts,\n        bytes memory data\n    ) public {\n        revert(\"Function not implemented\");\n    }\n\n    function _beforeTokenTransfer(\n        address operator,\n        address from,\n        address to,\n        uint256[] memory ids,\n        uint256[] memory amounts,\n        bytes memory data\n    ) internal override  {\n        super._beforeTokenTransfer(operator, from, to, ids, amounts, data);\n    }\n\n    function supportsInterface(bytes4 interfaceId)\n        public\n        view\n        override(ERC165, IERC165, ERC1155)\n        returns (bool)\n    {\n        return super.supportsInterface(interfaceId);\n    }\n\n    //it will return the original NFT uri\n    /**\n     * @dev this method will return the NFT uri\n     * @return Original NFT uri\n     */\n    function uri(uint256 id)\n        public\n        view\n        virtual\n        override\n        returns (string memory)\n    {\n        return ERC1155(originalNFT).uri(id);\n    }\n\n    function burn(\n        address account,\n        uint256 id,\n        uint256 value\n    ) public virtual {\n        revert(\"Function not implemented\");\n    }\n\n    function burnBatch(\n        address account,\n        uint256[] memory ids,\n        uint256[] memory values\n    ) public virtual {\n        revert(\"Function not implemented\");\n    }\n\n    /**\n     * @dev See {IERC1155-safeTransferFrom}.\n     */\n    function safeTransferFrom(\n        address from,\n        address to,\n        uint256 id,\n        uint256 amount,\n        bytes memory data\n    ) public  override {\n        require(\n            NFTSplitterAdmin(settings).isValidProxy(originalNFT, tokenId, address(this))\n        ,\n        \"NFTSplitter: caller is not a valid proxy, owner nor approved \"\n        );\n        _safeTransferFrom(from, to, id, amount, data);\n    }\n\n    function splitMyNFT(\n        uint256 _tokenId,\n        uint256 _price,\n        uint128 _buyPercentage,\n        uint8 _pieces\n    ) external onlyOriginalNFTOwner {\n        require (unitPrice == 0, 'NFTSplitter: splitter already created' );\n        require(_price > 0, 'NFTSplitter: invalid price');\n        require(_pieces > 0, 'NFTSplitter: invalid pieces' );\n        require(_buyPercentage > 0, 'NFTSplitter: invalid percentage ' );\n\n        unitPrice = _price;\n        tokenId = _tokenId;\n        pieces = _pieces;\n        buyPercentage = _buyPercentage;\n        originalOwner = msg.sender;\n        //TODO: implement lock time logic\n        //TODO: implement logic to not allow to sell more than initialSellSupply during lock time\n        //lockEndDate = block.timestamp + (_lockTimeInDays * 1 days);\n        //initialSellSupply = _initialSellAmount;\n\n        //as name and symbol are not part of ERC1155\n        //contract needs to catch any error executing the functions\n        //if there is any error the state of the variables does not change\n        //meaning that state of the variables will not change in proxy contract\n        try ERC1155(originalNFT).name() returns (string memory result) {\n            name = string(abi.encodePacked(\"NFT Splitter - \", result));\n        } catch {\n            emit Log(\"NFTSplitter: external call failed\");\n        }\n        try ERC1155(originalNFT).symbol() returns (string memory result) {\n            symbol = string(abi.encodePacked(\"NS\", result));\n        } catch {\n            emit Log(\"NFTSplitter: external call failed\");\n        }\n\n        _mint(msg.sender, tokenId, pieces, \"\");\n        ERC1155(originalNFT).safeTransferFrom(\n            msg.sender,\n            address(this),\n            tokenId,\n            ERC1155(originalNFT).balanceOf(msg.sender, tokenId),\n            \"\"\n        );\n\n        emit NFTSplit(originalNFT, tokenId, pieces, unitPrice, buyPercentage);\n    }\n\n    /**\n     * @dev method used by the original NFT to buy back any piece that was sold\n     *\n     */\n\n    function buyBackPieces(address _from, uint256 amount) external payable onlyOriginalNFTOwner nonReentrant {\n        uint currentBalance = balanceOf(_from, tokenId);\n        uint buyBackPrice = (unitPrice + (unitPrice * buyPercentage  / 100 )) * amount;\n        require(msg.value  >= buyBackPrice, 'NFTSplitter: insufficient value for this transaction');\n\n        _safeTransferFrom(_from, msg.sender, tokenId, amount, \"\");\n        (bool sent, bytes memory data) = _from.call{value: buyBackPrice}(\"\");\n\n        require(sent, \"Failed to send Ether\");\n        emit NFTSplitBuyBack(originalNFT, msg.sender, buyPercentage, buyBackPrice);\n\n    }\n\n    /**\n     * @dev method used to buy a piece of the original NFT from the original Owner\n     *\n     *\n     */\n    function buyPiecesFromOwner( uint256 amount) external payable notOriginalNFTOwner nonReentrant {\n        uint currentSupply = balanceOf(originalOwner, tokenId);\n        require(currentSupply  >= amount, 'NFTSplitter: not enough pieces to buy');\n        require(originalOwner != msg.sender, 'NFTSplitter: you are the current nft owner');\n\n        uint piecePrice = unitPrice * amount;\n        require(msg.value >= piecePrice, 'NFTSplitter: not enough value to buy pieces');\n\n        _safeTransferFrom(originalOwner, msg.sender, tokenId, amount, \"\");\n        (bool sent, bytes memory data) = originalOwner.call{value: msg.value}(\"\");\n\n        emit NFTSplitSold(originalOwner, msg.sender, amount, piecePrice);\n        require(sent, \"Failed to send Ether\");\n    }\n\n    /**\n     * @dev this method will burn all the NFT pieces and it will transfer the original NFT to the new owner.\n     * This method can only be executed if the address owns all the pieces.\n     *\n     */\n   // event log(address currentOwner, uint amount);\n    function withdrawOriginalNFT() public ownsAllPieces nonReentrant {\n         //burn pieces\n        _burn(msg.sender, tokenId, pieces);\n        ERC1155(originalNFT).safeTransferFrom(\n            address(this),\n            msg.sender,\n            tokenId,\n            ERC1155(originalNFT).balanceOf(address(this), tokenId), //sending all tokens that proxy owns, aridrops??\n            \"\"\n        );\n        emit NFTWithdraw(originalNFT, msg.sender);\n    }\n\n    function onERC1155Received(\n        address, /*_operator*/\n        address, /*_from*/\n        uint256 _id,\n        uint256, /*_amount*/\n        bytes calldata /*_data*/\n    ) external override returns (bytes4) {\n        return this.onERC1155Received.selector;\n    }\n\n    function onERC1155BatchReceived(\n        address, /*_operator*/\n        address, /*_from*/\n        uint256[] memory, /*_ids*/\n        uint256[] memory, /*_values*/\n        bytes memory /*_data*/\n    ) public pure override returns (bytes4) {\n         return this.onERC1155BatchReceived.selector;\n    }\n\n    // Function to receive Ether. msg.data must be empty\n    receive() external payable {}\n\n    // Fallback function is called when msg.data is not empty\n    fallback() external payable {}\n\n    function getBalance() external view returns (uint256) {\n        return address(this).balance;\n    }\n\n    /// @notice Withdraw any contract funds\n    /// @dev Only the original NFT  owner execute call this function\n    function withdraw() public onlyOriginalNFTOwner{\n        //TODO: implement and create test for this scenario if applicable\n    }\n}\n",
  "sourcePath": "/home/dtutila/src/bootcamp/blockchain-developer-bootcamp-final-project/contracts/contracts/NFTSplitter.sol",
  "compiler": {
    "name": "solc",
    "version": "0.8.3+commit.8d00100c.Emscripten.clang"
  },
  "schemaVersion": "3.4.3",
  "updatedAt": "2021-11-28T16:04:54.483Z",
  "networkType": "ethereum",
  "devdoc": {
    "events": {
      "NFTSplit(address,uint256,uint256,uint256,uint256)": {
        "details": "emitted after split creation"
      },
      "NFTSplitBuyBack(address,address,uint256,uint256)": {
        "details": "emitted when NFT owner buys a piece from buyer"
      },
      "NFTSplitSold(address,address,uint256,uint256)": {
        "details": "emitted when buyer buys a piece"
      },
      "NFTWithdraw(address,address)": {
        "details": "emitted when original NFT is withdrawn from contract"
      }
    },
    "kind": "dev",
    "methods": {
      "balanceOf(address,uint256)": {
        "details": "See {IERC1155-balanceOf}. Requirements: - `account` cannot be the zero address."
      },
      "balanceOfBatch(address[],uint256[])": {
        "details": "See {IERC1155-balanceOfBatch}. Requirements: - `accounts` and `ids` must have the same length."
      },
      "buyBackPieces(address,uint256)": {
        "details": "method used by the original NFT to buy back any piece that was sold"
      },
      "buyPiecesFromOwner(uint256)": {
        "details": "method used to buy a piece of the original NFT from the original Owner"
      },
      "constructor": {
        "details": "constructor with initial name and symbol values"
      },
      "isApprovedForAll(address,address)": {
        "details": "See {IERC1155-isApprovedForAll}."
      },
      "safeBatchTransferFrom(address,address,uint256[],uint256[],bytes)": {
        "details": "See {IERC1155-safeBatchTransferFrom}."
      },
      "safeTransferFrom(address,address,uint256,uint256,bytes)": {
        "details": "See {IERC1155-safeTransferFrom}."
      },
      "setApprovalForAll(address,bool)": {
        "details": "See {IERC1155-setApprovalForAll}."
      },
      "uri(uint256)": {
        "details": "this method will return the NFT uri",
        "returns": {
          "_0": "Original NFT uri"
        }
      },
      "withdraw()": {
        "details": "Only the original NFT  owner execute call this function"
      },
      "withdrawOriginalNFT()": {
        "details": "this method will burn all the NFT pieces and it will transfer the original NFT to the new owner. This method can only be executed if the address owns all the pieces."
      }
    },
    "version": 1
  },
  "userdoc": {
    "kind": "user",
    "methods": {
      "withdraw()": {
        "notice": "Withdraw any contract funds"
      }
    },
    "version": 1
  }
}