{
  "contractName": "NFTSplitterAdmin",
  "abi": [
    {
      "inputs": [],
      "stateMutability": "nonpayable",
      "type": "constructor"
    },
    {
      "anonymous": false,
      "inputs": [
        {
          "indexed": true,
          "internalType": "address",
          "name": "proxyAddress",
          "type": "address"
        },
        {
          "indexed": true,
          "internalType": "address",
          "name": "nftAddress",
          "type": "address"
        }
      ],
      "name": "ProxyRegistered",
      "type": "event"
    },
    {
      "inputs": [],
      "name": "FACTORY_ADDRESS",
      "outputs": [
        {
          "internalType": "bytes32",
          "name": "",
          "type": "bytes32"
        }
      ],
      "stateMutability": "view",
      "type": "function",
      "constant": true
    },
    {
      "inputs": [],
      "name": "NFTSPLITTER_ADDRESS",
      "outputs": [
        {
          "internalType": "bytes32",
          "name": "",
          "type": "bytes32"
        }
      ],
      "stateMutability": "view",
      "type": "function",
      "constant": true
    },
    {
      "inputs": [],
      "name": "PAUSED",
      "outputs": [
        {
          "internalType": "bytes32",
          "name": "",
          "type": "bytes32"
        }
      ],
      "stateMutability": "view",
      "type": "function",
      "constant": true
    },
    {
      "inputs": [],
      "name": "PROXY",
      "outputs": [
        {
          "internalType": "string",
          "name": "",
          "type": "string"
        }
      ],
      "stateMutability": "view",
      "type": "function",
      "constant": true
    },
    {
      "inputs": [
        {
          "internalType": "bytes32",
          "name": "_key",
          "type": "bytes32"
        },
        {
          "internalType": "address",
          "name": "_value",
          "type": "address"
        }
      ],
      "name": "setAddressSettings",
      "outputs": [],
      "stateMutability": "nonpayable",
      "type": "function"
    },
    {
      "inputs": [
        {
          "internalType": "address",
          "name": "_nft",
          "type": "address"
        },
        {
          "internalType": "address",
          "name": "_proxy",
          "type": "address"
        }
      ],
      "name": "registerProxy",
      "outputs": [],
      "stateMutability": "nonpayable",
      "type": "function"
    },
    {
      "inputs": [
        {
          "internalType": "address",
          "name": "_value",
          "type": "address"
        }
      ],
      "name": "registerFactory",
      "outputs": [],
      "stateMutability": "nonpayable",
      "type": "function"
    },
    {
      "inputs": [
        {
          "internalType": "address",
          "name": "_nft",
          "type": "address"
        },
        {
          "internalType": "address",
          "name": "proxyAddress",
          "type": "address"
        }
      ],
      "name": "isValidProxy",
      "outputs": [
        {
          "internalType": "bool",
          "name": "",
          "type": "bool"
        }
      ],
      "stateMutability": "nonpayable",
      "type": "function"
    },
    {
      "inputs": [
        {
          "internalType": "bytes32",
          "name": "_key",
          "type": "bytes32"
        },
        {
          "internalType": "bool",
          "name": "_value",
          "type": "bool"
        }
      ],
      "name": "setBoolSettings",
      "outputs": [],
      "stateMutability": "nonpayable",
      "type": "function"
    },
    {
      "inputs": [
        {
          "internalType": "address",
          "name": "_implementation",
          "type": "address"
        }
      ],
      "name": "upgrade",
      "outputs": [],
      "stateMutability": "nonpayable",
      "type": "function"
    },
    {
      "inputs": [],
      "name": "changeOwner",
      "outputs": [],
      "stateMutability": "nonpayable",
      "type": "function"
    },
    {
      "inputs": [],
      "name": "pause",
      "outputs": [],
      "stateMutability": "nonpayable",
      "type": "function"
    },
    {
      "inputs": [],
      "name": "unpause",
      "outputs": [],
      "stateMutability": "nonpayable",
      "type": "function"
    },
    {
      "inputs": [],
      "name": "isPaused",
      "outputs": [
        {
          "internalType": "bool",
          "name": "",
          "type": "bool"
        }
      ],
      "stateMutability": "view",
      "type": "function",
      "constant": true
    },
    {
      "inputs": [],
      "name": "getImplementation",
      "outputs": [
        {
          "internalType": "address",
          "name": "",
          "type": "address"
        }
      ],
      "stateMutability": "view",
      "type": "function",
      "constant": true
    }
  ],
  "bytecode": "0x608060405234801561001057600080fd5b50336000806101000a81548173ffffffffffffffffffffffffffffffffffffffff021916908373ffffffffffffffffffffffffffffffffffffffff1602179055506000600260007f89d975d2d9cecbdc7d59563cdfd8b53a7641ab131fca4c6be1a72208828764ac815260200190815260200160002060006101000a81548160ff021916908315150217905550611227806100ac6000396000f3fe608060405234801561001057600080fd5b50600436106100f55760003560e01c8063a8c92d4811610097578063c667a82111610066578063c667a82114610202578063caab03161461021e578063d37531aa1461023c578063db0ecb071461026c576100f5565b8063a8c92d481461018a578063a9aad58c146101a8578063aaf10f42146101c6578063b187bd26146101e4576100f5565b8063783ff1f1116100d3578063783ff1f11461012a5780638456cb59146101465780638823151b14610150578063a4b181d71461016e576100f5565b80630900f010146100fa5780633f4ba83a1461011657806362a0947714610120575b600080fd5b610114600480360381019061010f9190610d01565b610288565b005b61011e61038b565b005b610128610467565b005b610144600480360381019061013f9190610d01565b6105c6565b005b61014e6106c9565b005b6101586107a5565b6040516101659190610f64565b60405180910390f35b61018860048036038101906101839190610d66565b6107c9565b005b6101926108ad565b60405161019f9190610f7f565b60405180910390f35b6101b06108e6565b6040516101bd9190610f64565b60405180910390f35b6101ce61090a565b6040516101db9190610f2e565b60405180910390f35b6101ec610965565b6040516101f99190610f49565b60405180910390f35b61021c60048036038101906102179190610d2a565b6109ad565b005b610226610b57565b6040516102339190610f64565b60405180910390f35b61025660048036038101906102519190610d2a565b610b7b565b6040516102639190610f49565b60405180910390f35b61028660048036038101906102819190610da2565b610c05565b005b60008054906101000a900473ffffffffffffffffffffffffffffffffffffffff1673ffffffffffffffffffffffffffffffffffffffff163373ffffffffffffffffffffffffffffffffffffffff1614610316576040517f08c379a000000000000000000000000000000000000000000000000000000000815260040161030d90610fe1565b60405180910390fd5b80600160007ff5bcb247180b4bdbfff20ce986f4fa07ac6ce02299b6bdc7db46aaf901b0a66f815260200190815260200160002060006101000a81548173ffffffffffffffffffffffffffffffffffffffff021916908373ffffffffffffffffffffffffffffffffffffffff16021790555050565b60008054906101000a900473ffffffffffffffffffffffffffffffffffffffff1673ffffffffffffffffffffffffffffffffffffffff163373ffffffffffffffffffffffffffffffffffffffff1614610419576040517f08c379a000000000000000000000000000000000000000000000000000000000815260040161041090610fe1565b60405180910390fd5b6000600260007f89d975d2d9cecbdc7d59563cdfd8b53a7641ab131fca4c6be1a72208828764ac815260200190815260200160002060006101000a81548160ff021916908315150217905550565b60008054906101000a900473ffffffffffffffffffffffffffffffffffffffff1673ffffffffffffffffffffffffffffffffffffffff163373ffffffffffffffffffffffffffffffffffffffff16146104f5576040517f08c379a00000000000000000000000000000000000000000000000000000000081526004016104ec90610fe1565b60405180910390fd5b3373ffffffffffffffffffffffffffffffffffffffff1660008054906101000a900473ffffffffffffffffffffffffffffffffffffffff1673ffffffffffffffffffffffffffffffffffffffff161415610584576040517f08c379a000000000000000000000000000000000000000000000000000000000815260040161057b90610fc1565b60405180910390fd5b336000806101000a81548173ffffffffffffffffffffffffffffffffffffffff021916908373ffffffffffffffffffffffffffffffffffffffff160217905550565b60008054906101000a900473ffffffffffffffffffffffffffffffffffffffff1673ffffffffffffffffffffffffffffffffffffffff163373ffffffffffffffffffffffffffffffffffffffff1614610654576040517f08c379a000000000000000000000000000000000000000000000000000000000815260040161064b90610fe1565b60405180910390fd5b80600160007f7c208cc76c63950d78148b548ff3a041164f31caa26d4db4467f04f7fd8744e6815260200190815260200160002060006101000a81548173ffffffffffffffffffffffffffffffffffffffff021916908373ffffffffffffffffffffffffffffffffffffffff16021790555050565b60008054906101000a900473ffffffffffffffffffffffffffffffffffffffff1673ffffffffffffffffffffffffffffffffffffffff163373ffffffffffffffffffffffffffffffffffffffff1614610757576040517f08c379a000000000000000000000000000000000000000000000000000000000815260040161074e90610fe1565b60405180910390fd5b6001600260007f89d975d2d9cecbdc7d59563cdfd8b53a7641ab131fca4c6be1a72208828764ac815260200190815260200160002060006101000a81548160ff021916908315150217905550565b7f7c208cc76c63950d78148b548ff3a041164f31caa26d4db4467f04f7fd8744e681565b60008054906101000a900473ffffffffffffffffffffffffffffffffffffffff1673ffffffffffffffffffffffffffffffffffffffff163373ffffffffffffffffffffffffffffffffffffffff1614610857576040517f08c379a000000000000000000000000000000000000000000000000000000000815260040161084e90610fe1565b60405180910390fd5b806001600084815260200190815260200160002060006101000a81548173ffffffffffffffffffffffffffffffffffffffff021916908373ffffffffffffffffffffffffffffffffffffffff1602179055505050565b6040518060400160405280600581526020017f50524f585900000000000000000000000000000000000000000000000000000081525081565b7f89d975d2d9cecbdc7d59563cdfd8b53a7641ab131fca4c6be1a72208828764ac81565b6000600160007ff5bcb247180b4bdbfff20ce986f4fa07ac6ce02299b6bdc7db46aaf901b0a66f815260200190815260200160002060009054906101000a900473ffffffffffffffffffffffffffffffffffffffff16905090565b6000600260007f89d975d2d9cecbdc7d59563cdfd8b53a7641ab131fca4c6be1a72208828764ac815260200190815260200160002060009054906101000a900460ff16905090565b600160007f7c208cc76c63950d78148b548ff3a041164f31caa26d4db4467f04f7fd8744e6815260200190815260200160002060009054906101000a900473ffffffffffffffffffffffffffffffffffffffff1673ffffffffffffffffffffffffffffffffffffffff163373ffffffffffffffffffffffffffffffffffffffff1614610a6e576040517f08c379a0000000000000000000000000000000000000000000000000000000008152600401610a6590610fa1565b60405180910390fd5b6001600260006040518060400160405280600581526020017f50524f58590000000000000000000000000000000000000000000000000000008152508585604051602001610abe93929190610ef5565b60405160208183030381529060405280519060200120815260200190815260200160002060006101000a81548160ff0219169083151502179055508173ffffffffffffffffffffffffffffffffffffffff168173ffffffffffffffffffffffffffffffffffffffff167f3623f8bd4da9524cfaa08c81b8194f759ca625e8d761f4cc2cea23e63d3f4b1260405160405180910390a35050565b7ff5bcb247180b4bdbfff20ce986f4fa07ac6ce02299b6bdc7db46aaf901b0a66f81565b6000600260006040518060400160405280600581526020017f50524f58590000000000000000000000000000000000000000000000000000008152508585604051602001610bcb93929190610ef5565b60405160208183030381529060405280519060200120815260200190815260200160002060009054906101000a900460ff16905092915050565b60008054906101000a900473ffffffffffffffffffffffffffffffffffffffff1673ffffffffffffffffffffffffffffffffffffffff163373ffffffffffffffffffffffffffffffffffffffff1614610c93576040517f08c379a0000000000000000000000000000000000000000000000000000000008152600401610c8a90610fe1565b60405180910390fd5b806002600084815260200190815260200160002060006101000a81548160ff0219169083151502179055505050565b600081359050610cd1816111ac565b92915050565b600081359050610ce6816111c3565b92915050565b600081359050610cfb816111da565b92915050565b600060208284031215610d1357600080fd5b6000610d2184828501610cc2565b91505092915050565b60008060408385031215610d3d57600080fd5b6000610d4b85828601610cc2565b9250506020610d5c85828601610cc2565b9150509250929050565b60008060408385031215610d7957600080fd5b6000610d8785828601610cec565b9250506020610d9885828601610cc2565b9150509250929050565b60008060408385031215610db557600080fd5b6000610dc385828601610cec565b9250506020610dd485828601610cd7565b9150509250929050565b610de781611028565b82525050565b610dfe610df982611028565b6110a3565b82525050565b610e0d8161103a565b82525050565b610e1c81611046565b82525050565b6000610e2d82611001565b610e37818561100c565b9350610e47818560208601611070565b610e50816110c7565b840191505092915050565b6000610e6682611001565b610e70818561101d565b9350610e80818560208601611070565b80840191505092915050565b6000610e9960338361100c565b9150610ea4826110e5565b604082019050919050565b6000610ebc601a8361100c565b9150610ec782611134565b602082019050919050565b6000610edf60318361100c565b9150610eea8261115d565b604082019050919050565b6000610f018286610e5b565b9150610f0d8285610ded565b601482019150610f1d8284610ded565b601482019150819050949350505050565b6000602082019050610f436000830184610dde565b92915050565b6000602082019050610f5e6000830184610e04565b92915050565b6000602082019050610f796000830184610e13565b92915050565b60006020820190508181036000830152610f998184610e22565b905092915050565b60006020820190508181036000830152610fba81610e8c565b9050919050565b60006020820190508181036000830152610fda81610eaf565b9050919050565b60006020820190508181036000830152610ffa81610ed2565b9050919050565b600081519050919050565b600082825260208201905092915050565b600081905092915050565b600061103382611050565b9050919050565b60008115159050919050565b6000819050919050565b600073ffffffffffffffffffffffffffffffffffffffff82169050919050565b60005b8381101561108e578082015181840152602081019050611073565b8381111561109d576000848401525b50505050565b60006110ae826110b5565b9050919050565b60006110c0826110d8565b9050919050565b6000601f19601f8301169050919050565b60008160601b9050919050565b7f4e465453706c697474657241646d696e3a204f6e6c7920466163746f7279206360008201527f616e2072756e2074686973206d6574686f642e00000000000000000000000000602082015250565b7f596f7520616c72656164792061726520746865206f776e657221000000000000600082015250565b7f4e465453706c697474657241646d696e3a204f6e6c79206f776e65722063616e60008201527f2072756e2074686973206d6574686f642e000000000000000000000000000000602082015250565b6111b581611028565b81146111c057600080fd5b50565b6111cc8161103a565b81146111d757600080fd5b50565b6111e381611046565b81146111ee57600080fd5b5056fea2646970667358221220f8317113d13c5f4891921779de138588c73de9532d3e82ae98d019d50eb91b7664736f6c63430008030033",
  "immutableReferences": {},
  "source": "// SPDX-License-Identifier: MIT\npragma solidity >=0.4.22 <0.9.0;\n/**\n * @notice this is where the settings of de app are storage\n * @dev it acts as eternal storage for the settings and can be use to update the contract with the base logic\n\n*/\ncontract NFTSplitterAdmin {\n    bytes32 public constant PAUSED = keccak256(\"ADMIN_PAUSED\");\n    bytes32 public constant NFTSPLITTER_ADDRESS = keccak256(\"NFTSPLITTER_ADDRESS\");\n    bytes32 public constant FACTORY_ADDRESS = keccak256(\"FACTORY_ADDRESS\");\n    string public constant PROXY = \"PROXY\";\n\n    address private owner;\n    mapping(bytes32 => address) private addressStorage;\n    mapping(bytes32 => bool) private boolStorage;\n\n    modifier onlyOwner() {\n        require(msg.sender == owner, \"NFTSplitterAdmin: Only owner can run this method.\");\n        _;\n    }\n\n    modifier onlyFactory() {\n        require(msg.sender == addressStorage[FACTORY_ADDRESS], \"NFTSplitterAdmin: Only Factory can run this method.\");\n        _;\n    }\n\n    modifier onlyOwnerOrFactory() {\n        require(msg.sender == owner || msg.sender == addressStorage[FACTORY_ADDRESS],\n            \"NFTSplitterAdmin: Only owner or factory can run this method.\");\n        _;\n    }\n\n    event ProxyRegistered (\n        address indexed proxyAddress,\n        address indexed nftAddress\n    );\n\n    constructor() {\n        owner = msg.sender;\n        boolStorage[PAUSED] = false;\n    }\n\n    function setAddressSettings(bytes32 _key, address _value)\n        external\n        onlyOwner\n    {\n        addressStorage[_key] = _value;\n    }\n\n    /**\n      * @notice only factory and owner can execute this function\n      * @dev registers a proxy in the settings\n      *\n     */\n    function registerProxy(address _nft, address _proxy)\n    external\n    onlyFactory\n    {\n        boolStorage[keccak256(abi.encodePacked(PROXY, _nft, _proxy))] = true;\n        emit ProxyRegistered (_proxy, _nft);\n\n    }\n\n    //registering factory contract in settings\n    function registerFactory(address _value)\n    external\n    onlyOwner\n    {\n        addressStorage[FACTORY_ADDRESS]= _value;\n    }\n\n    /**\n       * @notice  validates if a proxy was created using creation function in the factory contract\n      * @dev only registered proxies can execute some functions in the base contract\n      *\n     */\n    function isValidProxy(address _nft, address proxyAddress)\n    external\n    returns (bool)\n    {\n        return boolStorage[keccak256(abi.encodePacked(PROXY, _nft, proxyAddress))] ;\n    }\n\n\n\n    function setBoolSettings(bytes32 _key, bool _value) external onlyOwner {\n        boolStorage[_key] = _value;\n    }\n\n    function upgrade(address _implementation) external onlyOwner {\n        addressStorage[NFTSPLITTER_ADDRESS] = _implementation;\n    }\n\n    function changeOwner() external onlyOwner {\n        require(owner != msg.sender, 'You already are the owner!');\n        owner = msg.sender;\n    }\n\n    function pause() external onlyOwner {\n        boolStorage[PAUSED] = true;\n    }\n\n    function unpause() external onlyOwner {\n        boolStorage[PAUSED] = false;\n    }\n\n    function isPaused() external view returns (bool) {\n        return boolStorage[PAUSED];\n    }\n\n    function getImplementation() external view returns (address) {\n        return addressStorage[NFTSPLITTER_ADDRESS];\n    }\n}\n",
  "sourcePath": "/home/dtutila/src/bootcamp/blockchain-developer-bootcamp-final-project/contracts/contracts/NFTSplitterAdmin.sol",
  "compiler": {
    "name": "solc",
    "version": "0.8.3+commit.8d00100c.Emscripten.clang"
  },
  "schemaVersion": "3.4.3",
  "updatedAt": "2021-11-26T17:27:41.286Z",
  "networkType": "ethereum",
  "devdoc": {
    "details": "it acts as eternal storage for the settings and can be use to update the contract with the base logic",
    "kind": "dev",
    "methods": {
      "isValidProxy(address,address)": {
        "details": "only registered proxies can execute some functions in the base contract"
      },
      "registerProxy(address,address)": {
        "details": "registers a proxy in the settings"
      }
    },
    "version": 1
  },
  "userdoc": {
    "kind": "user",
    "methods": {
      "isValidProxy(address,address)": {
        "notice": "validates if a proxy was created using creation function in the factory contract"
      },
      "registerProxy(address,address)": {
        "notice": "only factory and owner can execute this function"
      }
    },
    "notice": "this is where the settings of de app are storage",
    "version": 1
  }
}