{
  "contractName": "NFTSplitterFactory",
  "abi": [
    {
      "inputs": [
        {
          "internalType": "address",
          "name": "_settings",
          "type": "address"
        }
      ],
      "stateMutability": "nonpayable",
      "type": "constructor"
    },
    {
      "anonymous": false,
      "inputs": [
        {
          "indexed": true,
          "internalType": "address",
          "name": "nft",
          "type": "address"
        },
        {
          "indexed": true,
          "internalType": "address",
          "name": "proxyAddress",
          "type": "address"
        },
        {
          "indexed": true,
          "internalType": "address",
          "name": "NFTOwner",
          "type": "address"
        }
      ],
      "name": "ProxyCreated",
      "type": "event"
    },
    {
      "inputs": [
        {
          "internalType": "address",
          "name": "_nft",
          "type": "address"
        }
      ],
      "name": "createNFTSplitter",
      "outputs": [
        {
          "internalType": "contract NFTSplitterProxy",
          "name": "prx",
          "type": "address"
        }
      ],
      "stateMutability": "payable",
      "type": "function",
      "payable": true
    },
    {
      "inputs": [],
      "name": "getNFTSplitterBase",
      "outputs": [
        {
          "internalType": "address",
          "name": "",
          "type": "address"
        }
      ],
      "stateMutability": "view",
      "type": "function",
      "constant": true
    },
    {
      "inputs": [],
      "name": "getNFTSplitters",
      "outputs": [
        {
          "internalType": "address[]",
          "name": "",
          "type": "address[]"
        }
      ],
      "stateMutability": "view",
      "type": "function",
      "constant": true
    }
  ],
  "bytecode": "0x608060405234801561001057600080fd5b5060405161158e38038061158e833981810160405281019061003291906101ae565b336000806101000a81548173ffffffffffffffffffffffffffffffffffffffff021916908373ffffffffffffffffffffffffffffffffffffffff16021790555080600160006101000a81548173ffffffffffffffffffffffffffffffffffffffff021916908373ffffffffffffffffffffffffffffffffffffffff160217905550600160009054906101000a900473ffffffffffffffffffffffffffffffffffffffff1673ffffffffffffffffffffffffffffffffffffffff1663aaf10f426040518163ffffffff1660e01b815260040160206040518083038186803b15801561011b57600080fd5b505afa15801561012f573d6000803e3d6000fd5b505050506040513d601f19601f8201168201806040525081019061015391906101ae565b600260006101000a81548173ffffffffffffffffffffffffffffffffffffffff021916908373ffffffffffffffffffffffffffffffffffffffff16021790555050610220565b6000815190506101a881610209565b92915050565b6000602082840312156101c057600080fd5b60006101ce84828501610199565b91505092915050565b60006101e2826101e9565b9050919050565b600073ffffffffffffffffffffffffffffffffffffffff82169050919050565b610212816101d7565b811461021d57600080fd5b50565b61135f8061022f6000396000f3fe608060405260043610620000385760003560e01c8063e92a42ce146200003d578063e9487723146200006d578063f8b4543114620000a3575b600080fd5b3480156200004a57600080fd5b5062000055620000d3565b604051620000649190620004af565b60405180910390f35b6200008b6004803603810190620000859190620003a5565b620000fd565b6040516200009a91906200057f565b60405180910390f35b348015620000b057600080fd5b50620000bb620002f0565b604051620000ca91906200055b565b60405180910390f35b6000600260009054906101000a900473ffffffffffffffffffffffffffffffffffffffff16905090565b60008133600260009054906101000a900473ffffffffffffffffffffffffffffffffffffffff16600160009054906101000a900473ffffffffffffffffffffffffffffffffffffffff16604051620001559062000380565b620001649493929190620004f9565b604051809103906000f08015801562000181573d6000803e3d6000fd5b509050600160009054906101000a900473ffffffffffffffffffffffffffffffffffffffff1673ffffffffffffffffffffffffffffffffffffffff1663c667a82183836040518363ffffffff1660e01b8152600401620001e3929190620004cc565b600060405180830381600087803b158015620001fe57600080fd5b505af115801562000213573d6000803e3d6000fd5b505050506003819080600181540180825580915050600190039060005260206000200160009091909190916101000a81548173ffffffffffffffffffffffffffffffffffffffff021916908373ffffffffffffffffffffffffffffffffffffffff1602179055503373ffffffffffffffffffffffffffffffffffffffff168173ffffffffffffffffffffffffffffffffffffffff168373ffffffffffffffffffffffffffffffffffffffff167f5983cdcaa370320b76fe01a3a32a0430e6a13b9f47a55e806afb13b5aef95a1260405160405180910390a4919050565b606060038054806020026020016040519081016040528092919081815260200182805480156200037657602002820191906000526020600020905b8160009054906101000a900473ffffffffffffffffffffffffffffffffffffffff1673ffffffffffffffffffffffffffffffffffffffff16815260200190600101908083116200032b575b5050505050905090565b610cca806200066083390190565b6000813590506200039f8162000645565b92915050565b600060208284031215620003b857600080fd5b6000620003c8848285016200038e565b91505092915050565b6000620003df8383620003eb565b60208301905092915050565b620003f681620005e6565b82525050565b6200040781620005e6565b82525050565b60006200041a82620005ac565b620004268185620005c4565b935062000433836200059c565b8060005b838110156200046a5781516200044e8882620003d1565b97506200045b83620005b7565b92505060018101905062000437565b5085935050505092915050565b62000482816200061a565b82525050565b600062000497600083620005d5565b9150620004a48262000642565b600082019050919050565b6000602082019050620004c66000830184620003fc565b92915050565b6000604082019050620004e36000830185620003fc565b620004f26020830184620003fc565b9392505050565b600060a082019050620005106000830187620003fc565b6200051f6020830186620003fc565b6200052e6040830185620003fc565b6200053d6060830184620003fc565b8181036080830152620005508162000488565b905095945050505050565b600060208201905081810360008301526200057781846200040d565b905092915050565b600060208201905062000596600083018462000477565b92915050565b6000819050602082019050919050565b600081519050919050565b6000602082019050919050565b600082825260208201905092915050565b600082825260208201905092915050565b6000620005f382620005fa565b9050919050565b600073ffffffffffffffffffffffffffffffffffffffff82169050919050565b600062000627826200062e565b9050919050565b60006200063b82620005fa565b9050919050565b50565b6200065081620005e6565b81146200065c57600080fd5b5056fe608060405260405162000cca38038062000cca8339818101604052810190620000299190620002be565b81600960006101000a81548173ffffffffffffffffffffffffffffffffffffffff021916908373ffffffffffffffffffffffffffffffffffffffff16021790555082600c60006101000a81548173ffffffffffffffffffffffffffffffffffffffff021916908373ffffffffffffffffffffffffffffffffffffffff1602179055506040518060400160405280600581526020017f70726f7879000000000000000000000000000000000000000000000000000000815250600a9080519060200190620000f892919062000185565b5083600160006101000a81548173ffffffffffffffffffffffffffffffffffffffff021916908373ffffffffffffffffffffffffffffffffffffffff160217905550846000806101000a81548173ffffffffffffffffffffffffffffffffffffffff021916908373ffffffffffffffffffffffffffffffffffffffff160217905550505050505062000517565b828054620001939062000422565b90600052602060002090601f016020900481019282620001b7576000855562000203565b82601f10620001d257805160ff191683800117855562000203565b8280016001018555821562000203579182015b8281111562000202578251825591602001919060010190620001e5565b5b50905062000212919062000216565b5090565b5b808211156200023157600081600090555060010162000217565b5090565b60006200024c620002468462000382565b62000359565b9050828152602081018484840111156200026557600080fd5b62000272848285620003ec565b509392505050565b6000815190506200028b81620004fd565b92915050565b600082601f830112620002a357600080fd5b8151620002b584826020860162000235565b91505092915050565b600080600080600060a08688031215620002d757600080fd5b6000620002e7888289016200027a565b9550506020620002fa888289016200027a565b94505060406200030d888289016200027a565b935050606062000320888289016200027a565b925050608086015167ffffffffffffffff8111156200033e57600080fd5b6200034c8882890162000291565b9150509295509295909350565b60006200036562000378565b905062000373828262000458565b919050565b6000604051905090565b600067ffffffffffffffff821115620003a0576200039f620004bd565b5b620003ab82620004ec565b9050602081019050919050565b6000620003c582620003cc565b9050919050565b600073ffffffffffffffffffffffffffffffffffffffff82169050919050565b60005b838110156200040c578082015181840152602081019050620003ef565b838111156200041c576000848401525b50505050565b600060028204905060018216806200043b57607f821691505b602082108114156200045257620004516200048e565b5b50919050565b6200046382620004ec565b810181811067ffffffffffffffff82111715620004855762000484620004bd565b5b80604052505050565b7f4e487b7100000000000000000000000000000000000000000000000000000000600052602260045260246000fd5b7f4e487b7100000000000000000000000000000000000000000000000000000000600052604160045260246000fd5b6000601f19601f8301169050919050565b6200050881620003b8565b81146200051457600080fd5b50565b6107a380620005276000396000f3fe6080604052600436106100ab5760003560e01c806385b4bb531161006457806385b4bb53146101c657806395d89b41146101f157806399b3878f1461021c578063a38bffda14610247578063e06174e414610272578063f1fffdcb1461029d576100ba565b806304e9da5a146100c457806306fdde03146100ef578063176740361461011a57806317d70f7c146101455780631d3d81d61461017057806372b606821461019b576100ba565b366100ba576100b86102c8565b005b6100c26102c8565b005b3480156100d057600080fd5b506100d96102e2565b6040516100e691906105f6565b60405180910390f35b3480156100fb57600080fd5b50610104610304565b60405161011191906105d4565b60405180910390f35b34801561012657600080fd5b5061012f610392565b60405161013c919061062c565b60405180910390f35b34801561015157600080fd5b5061015a6103a5565b6040516101679190610611565b60405180910390f35b34801561017c57600080fd5b506101856103ab565b60405161019291906105b9565b60405180910390f35b3480156101a757600080fd5b506101b06103cf565b6040516101bd9190610611565b60405180910390f35b3480156101d257600080fd5b506101db6103d5565b6040516101e891906105b9565b60405180910390f35b3480156101fd57600080fd5b506102066103ff565b60405161021391906105d4565b60405180910390f35b34801561022857600080fd5b5061023161048d565b60405161023e919061062c565b60405180910390f35b34801561025357600080fd5b5061025c6104a0565b6040516102699190610611565b60405180910390f35b34801561027e57600080fd5b506102876104a6565b60405161029491906105b9565b60405180910390f35b3480156102a957600080fd5b506102b26104cc565b6040516102bf91906105b9565b60405180910390f35b6102d06104f2565b6102e06102db6104f4565b61051e565b565b600560009054906101000a90046fffffffffffffffffffffffffffffffff1681565b600a8054610311906106fb565b80601f016020809104026020016040519081016040528092919081815260200182805461033d906106fb565b801561038a5780601f1061035f5761010080835404028352916020019161038a565b820191906000526020600020905b81548152906001019060200180831161036d57829003601f168201915b505050505081565b600160149054906101000a900460ff1681565b60065481565b60008054906101000a900473ffffffffffffffffffffffffffffffffffffffff1681565b60025481565b6000600960009054906101000a900473ffffffffffffffffffffffffffffffffffffffff16905090565b600b805461040c906106fb565b80601f0160208091040260200160405190810160405280929190818152602001828054610438906106fb565b80156104855780601f1061045a57610100808354040283529160200191610485565b820191906000526020600020905b81548152906001019060200180831161046857829003601f168201915b505050505081565b600360009054906101000a900460ff1681565b60045481565b600960009054906101000a900473ffffffffffffffffffffffffffffffffffffffff1681565b600160009054906101000a900473ffffffffffffffffffffffffffffffffffffffff1681565b565b6000600c60009054906101000a900473ffffffffffffffffffffffffffffffffffffffff16905090565b3660008037600080366000845af43d6000803e806000811461053f573d6000f35b3d6000fd5b61054d81610663565b82525050565b600061055e82610647565b6105688185610652565b93506105788185602086016106c8565b6105818161075c565b840191505092915050565b61059581610675565b82525050565b6105a4816106b1565b82525050565b6105b3816106bb565b82525050565b60006020820190506105ce6000830184610544565b92915050565b600060208201905081810360008301526105ee8184610553565b905092915050565b600060208201905061060b600083018461058c565b92915050565b6000602082019050610626600083018461059b565b92915050565b600060208201905061064160008301846105aa565b92915050565b600081519050919050565b600082825260208201905092915050565b600061066e82610691565b9050919050565b60006fffffffffffffffffffffffffffffffff82169050919050565b600073ffffffffffffffffffffffffffffffffffffffff82169050919050565b6000819050919050565b600060ff82169050919050565b60005b838110156106e65780820151818401526020810190506106cb565b838111156106f5576000848401525b50505050565b6000600282049050600182168061071357607f821691505b602082108114156107275761072661072d565b5b50919050565b7f4e487b7100000000000000000000000000000000000000000000000000000000600052602260045260246000fd5b6000601f19601f830116905091905056fea2646970667358221220709068060aa278839e3a7b67fdf81108e398d3a628dfcd80eefe274a61d18e3c64736f6c63430008030033a26469706673582212203b4616a1c02256be9a84f76fa574551870bf72ea69bf82f63ead5e001cd8152064736f6c63430008030033",
  "immutableReferences": {},
  "source": "// SPDX-License-Identifier: MIT\npragma solidity >=0.4.22 <0.9.0;\nimport \"./NFTSplitterAdmin.sol\";\nimport \"./NFTSplitterProxy.sol\";\n\ncontract NFTSplitterFactory {\n  address private owner;\n  address private settings;\n  address private NFTSplitterBase;\n  address[] private splitters;\n\n    /**\n     * @dev \n     */\n    event ProxyCreated(\n        address indexed nft,\n        address indexed proxyAddress,\n        address indexed NFTOwner\n    );\n\n  constructor(address _settings) {\n    owner = msg.sender; // factory owner\n    settings = _settings;\n    NFTSplitterBase = NFTSplitterAdmin(settings).getImplementation(); \n  }\n\n  function createNFTSplitter(address _nft) public payable returns (NFTSplitterProxy prx){\n    prx = new NFTSplitterProxy (_nft, msg.sender, NFTSplitterBase, settings, \"\");\n    NFTSplitterAdmin(settings).registerProxy(_nft,  address(prx));\n    splitters.push(address(prx));\n    emit ProxyCreated(_nft, address(prx), msg.sender);\n    return prx;\n  }\n\n  function getNFTSplitterBase() external view returns (address) {\n    return NFTSplitterBase;\n  }\n\n  function getNFTSplitters() external view returns ( address[] memory ) {\n    return splitters;\n  }\n  \n}\n",
  "sourcePath": "/home/dtutila/src/bootcamp/blockchain-developer-bootcamp-final-project/contracts/contracts/NFTSplitterFactory.sol",
  "compiler": {
    "name": "solc",
    "version": "0.8.3+commit.8d00100c.Emscripten.clang"
  },
  "schemaVersion": "3.4.3",
  "updatedAt": "2021-11-24T23:09:28.866Z",
  "networkType": "ethereum",
  "devdoc": {
    "kind": "dev",
    "methods": {},
    "version": 1
  },
  "userdoc": {
    "kind": "user",
    "methods": {},
    "version": 1
  }
}