{
  "contractName": "NFTSplitterFactory",
  "abi": [
    {
      "inputs": [
        {
          "internalType": "address",
          "name": "_settings",
          "type": "address"
        }
      ],
      "stateMutability": "nonpayable",
      "type": "constructor"
    },
    {
      "anonymous": false,
      "inputs": [
        {
          "indexed": true,
          "internalType": "address",
          "name": "nft",
          "type": "address"
        },
        {
          "indexed": true,
          "internalType": "address",
          "name": "proxyAddress",
          "type": "address"
        },
        {
          "indexed": true,
          "internalType": "address",
          "name": "NFTOwner",
          "type": "address"
        }
      ],
      "name": "ProxyCreated",
      "type": "event"
    },
    {
      "inputs": [
        {
          "internalType": "address",
          "name": "_nft",
          "type": "address"
        },
        {
          "internalType": "uint256",
          "name": "_tokenId",
          "type": "uint256"
        }
      ],
      "name": "createNFTSplitter",
      "outputs": [
        {
          "internalType": "contract NFTSplitterProxy",
          "name": "prx",
          "type": "address"
        }
      ],
      "stateMutability": "payable",
      "type": "function",
      "payable": true
    },
    {
      "inputs": [],
      "name": "getNFTSplitterBase",
      "outputs": [
        {
          "internalType": "address",
          "name": "",
          "type": "address"
        }
      ],
      "stateMutability": "view",
      "type": "function",
      "constant": true
    },
    {
      "inputs": [],
      "name": "getNFTSplitters",
      "outputs": [
        {
          "internalType": "address[]",
          "name": "",
          "type": "address[]"
        }
      ],
      "stateMutability": "view",
      "type": "function",
      "constant": true
    }
  ],
  "bytecode": "0x608060405234801561001057600080fd5b50604051611852380380611852833981810160405281019061003291906101ae565b336000806101000a81548173ffffffffffffffffffffffffffffffffffffffff021916908373ffffffffffffffffffffffffffffffffffffffff16021790555080600160006101000a81548173ffffffffffffffffffffffffffffffffffffffff021916908373ffffffffffffffffffffffffffffffffffffffff160217905550600160009054906101000a900473ffffffffffffffffffffffffffffffffffffffff1673ffffffffffffffffffffffffffffffffffffffff1663aaf10f426040518163ffffffff1660e01b815260040160206040518083038186803b15801561011b57600080fd5b505afa15801561012f573d6000803e3d6000fd5b505050506040513d601f19601f8201168201806040525081019061015391906101ae565b600260006101000a81548173ffffffffffffffffffffffffffffffffffffffff021916908373ffffffffffffffffffffffffffffffffffffffff16021790555050610220565b6000815190506101a881610209565b92915050565b6000602082840312156101c057600080fd5b60006101ce84828501610199565b91505092915050565b60006101e2826101e9565b9050919050565b600073ffffffffffffffffffffffffffffffffffffffff82169050919050565b610212816101d7565b811461021d57600080fd5b50565b6116238061022f6000396000f3fe608060405260043610620000385760003560e01c8063abc725c9146200003d578063e92a42ce1462000073578063f8b4543114620000a3575b600080fd5b6200005b6004803603810190620000559190620004bd565b620000d3565b6040516200006a919062000720565b60405180910390f35b3480156200008057600080fd5b506200008b620003b0565b6040516200009a919062000640565b60405180910390f35b348015620000b057600080fd5b50620000bb620003da565b604051620000ca9190620006fc565b60405180910390f35b6000600160009054906101000a900473ffffffffffffffffffffffffffffffffffffffff1673ffffffffffffffffffffffffffffffffffffffff1663b187bd266040518163ffffffff1660e01b815260040160206040518083038186803b1580156200013e57600080fd5b505afa15801562000153573d6000803e3d6000fd5b505050506040513d601f19601f82011682018060405250810190620001799190620004fe565b15620001bc576040517f08c379a0000000000000000000000000000000000000000000000000000000008152600401620001b3906200073d565b60405180910390fd5b828233600260009054906101000a900473ffffffffffffffffffffffffffffffffffffffff16600160009054906101000a900473ffffffffffffffffffffffffffffffffffffffff1660405162000213906200046a565b620002239594939291906200068a565b604051809103906000f08015801562000240573d6000803e3d6000fd5b509050600160009054906101000a900473ffffffffffffffffffffffffffffffffffffffff1673ffffffffffffffffffffffffffffffffffffffff1663c667a82184836040518363ffffffff1660e01b8152600401620002a29291906200065d565b600060405180830381600087803b158015620002bd57600080fd5b505af1158015620002d2573d6000803e3d6000fd5b505050506003819080600181540180825580915050600190039060005260206000200160009091909190916101000a81548173ffffffffffffffffffffffffffffffffffffffff021916908373ffffffffffffffffffffffffffffffffffffffff1602179055503373ffffffffffffffffffffffffffffffffffffffff168173ffffffffffffffffffffffffffffffffffffffff168473ffffffffffffffffffffffffffffffffffffffff167f5983cdcaa370320b76fe01a3a32a0430e6a13b9f47a55e806afb13b5aef95a1260405160405180910390a492915050565b6000600260009054906101000a900473ffffffffffffffffffffffffffffffffffffffff16905090565b606060038054806020026020016040519081016040528092919081815260200182805480156200046057602002820191906000526020600020905b8160009054906101000a900473ffffffffffffffffffffffffffffffffffffffff1673ffffffffffffffffffffffffffffffffffffffff168152602001906001019080831162000415575b5050505050905090565b610d2180620008cd83390190565b60008135905062000489816200087e565b92915050565b600081519050620004a08162000898565b92915050565b600081359050620004b781620008b2565b92915050565b60008060408385031215620004d157600080fd5b6000620004e18582860162000478565b9250506020620004f485828601620004a6565b9150509250929050565b6000602082840312156200051157600080fd5b600062000521848285016200048f565b91505092915050565b600062000538838362000544565b60208301905092915050565b6200054f81620007ba565b82525050565b6200056081620007ba565b82525050565b600062000573826200076f565b6200057f818562000787565b93506200058c836200075f565b8060005b83811015620005c3578151620005a788826200052a565b9750620005b4836200077a565b92505060018101905062000590565b5085935050505092915050565b620005db8162000804565b82525050565b6000620005f0602583620007a9565b9150620005fd826200082c565b604082019050919050565b60006200061760008362000798565b915062000624826200087b565b600082019050919050565b6200063a81620007fa565b82525050565b600060208201905062000657600083018462000555565b92915050565b600060408201905062000674600083018562000555565b62000683602083018462000555565b9392505050565b600060c082019050620006a1600083018862000555565b620006b060208301876200062f565b620006bf604083018662000555565b620006ce606083018562000555565b620006dd608083018462000555565b81810360a0830152620006f08162000608565b90509695505050505050565b6000602082019050818103600083015262000718818462000566565b905092915050565b6000602082019050620007376000830184620005d0565b92915050565b600060208201905081810360008301526200075881620005e1565b9050919050565b6000819050602082019050919050565b600081519050919050565b6000602082019050919050565b600082825260208201905092915050565b600082825260208201905092915050565b600082825260208201905092915050565b6000620007c782620007da565b9050919050565b60008115159050919050565b600073ffffffffffffffffffffffffffffffffffffffff82169050919050565b6000819050919050565b6000620008118262000818565b9050919050565b60006200082582620007da565b9050919050565b7f4e465453706c6974746572466163746f72793a20466163746f7279206973207060008201527f6175736564000000000000000000000000000000000000000000000000000000602082015250565b50565b6200088981620007ba565b81146200089557600080fd5b50565b620008a381620007ce565b8114620008af57600080fd5b50565b620008bd81620007fa565b8114620008c957600080fd5b5056fe608060405260405162000d2138038062000d218339818101604052810190620000299190620002dd565b81600960006101000a81548173ffffffffffffffffffffffffffffffffffffffff021916908373ffffffffffffffffffffffffffffffffffffffff16021790555082600c60006101000a81548173ffffffffffffffffffffffffffffffffffffffff021916908373ffffffffffffffffffffffffffffffffffffffff1602179055506040518060400160405280600581526020017f70726f7879000000000000000000000000000000000000000000000000000000815250600a9080519060200190620000f89291906200018d565b5083600160006101000a81548173ffffffffffffffffffffffffffffffffffffffff021916908373ffffffffffffffffffffffffffffffffffffffff160217905550856000806101000a81548173ffffffffffffffffffffffffffffffffffffffff021916908373ffffffffffffffffffffffffffffffffffffffff160217905550846006819055505050505050506200056e565b8280546200019b906200045f565b90600052602060002090601f016020900481019282620001bf57600085556200020b565b82601f10620001da57805160ff19168380011785556200020b565b828001600101855582156200020b579182015b828111156200020a578251825591602001919060010190620001ed565b5b5090506200021a91906200021e565b5090565b5b80821115620002395760008160009055506001016200021f565b5090565b6000620002546200024e84620003b5565b6200038c565b9050828152602081018484840111156200026d57600080fd5b6200027a84828562000429565b509392505050565b60008151905062000293816200053a565b92915050565b600082601f830112620002ab57600080fd5b8151620002bd8482602086016200023d565b91505092915050565b600081519050620002d78162000554565b92915050565b60008060008060008060c08789031215620002f757600080fd5b60006200030789828a0162000282565b96505060206200031a89828a01620002c6565b95505060406200032d89828a0162000282565b94505060606200034089828a0162000282565b93505060806200035389828a0162000282565b92505060a087015167ffffffffffffffff8111156200037157600080fd5b6200037f89828a0162000299565b9150509295509295509295565b600062000398620003ab565b9050620003a6828262000495565b919050565b6000604051905090565b600067ffffffffffffffff821115620003d357620003d2620004fa565b5b620003de8262000529565b9050602081019050919050565b6000620003f882620003ff565b9050919050565b600073ffffffffffffffffffffffffffffffffffffffff82169050919050565b6000819050919050565b60005b83811015620004495780820151818401526020810190506200042c565b8381111562000459576000848401525b50505050565b600060028204905060018216806200047857607f821691505b602082108114156200048f576200048e620004cb565b5b50919050565b620004a08262000529565b810181811067ffffffffffffffff82111715620004c257620004c1620004fa565b5b80604052505050565b7f4e487b7100000000000000000000000000000000000000000000000000000000600052602260045260246000fd5b7f4e487b7100000000000000000000000000000000000000000000000000000000600052604160045260246000fd5b6000601f19601f8301169050919050565b6200054581620003eb565b81146200055157600080fd5b50565b6200055f816200041f565b81146200056b57600080fd5b50565b6107a3806200057e6000396000f3fe6080604052600436106100ab5760003560e01c806385b4bb531161006457806385b4bb53146101c657806395d89b41146101f157806399b3878f1461021c578063a38bffda14610247578063e06174e414610272578063f1fffdcb1461029d576100ba565b806304e9da5a146100c457806306fdde03146100ef578063176740361461011a57806317d70f7c146101455780631d3d81d61461017057806372b606821461019b576100ba565b366100ba576100b86102c8565b005b6100c26102c8565b005b3480156100d057600080fd5b506100d96102e2565b6040516100e691906105f6565b60405180910390f35b3480156100fb57600080fd5b50610104610304565b60405161011191906105d4565b60405180910390f35b34801561012657600080fd5b5061012f610392565b60405161013c919061062c565b60405180910390f35b34801561015157600080fd5b5061015a6103a5565b6040516101679190610611565b60405180910390f35b34801561017c57600080fd5b506101856103ab565b60405161019291906105b9565b60405180910390f35b3480156101a757600080fd5b506101b06103cf565b6040516101bd9190610611565b60405180910390f35b3480156101d257600080fd5b506101db6103d5565b6040516101e891906105b9565b60405180910390f35b3480156101fd57600080fd5b506102066103ff565b60405161021391906105d4565b60405180910390f35b34801561022857600080fd5b5061023161048d565b60405161023e919061062c565b60405180910390f35b34801561025357600080fd5b5061025c6104a0565b6040516102699190610611565b60405180910390f35b34801561027e57600080fd5b506102876104a6565b60405161029491906105b9565b60405180910390f35b3480156102a957600080fd5b506102b26104cc565b6040516102bf91906105b9565b60405180910390f35b6102d06104f2565b6102e06102db6104f4565b61051e565b565b600560009054906101000a90046fffffffffffffffffffffffffffffffff1681565b600a8054610311906106fb565b80601f016020809104026020016040519081016040528092919081815260200182805461033d906106fb565b801561038a5780601f1061035f5761010080835404028352916020019161038a565b820191906000526020600020905b81548152906001019060200180831161036d57829003601f168201915b505050505081565b600160149054906101000a900460ff1681565b60065481565b60008054906101000a900473ffffffffffffffffffffffffffffffffffffffff1681565b60025481565b6000600960009054906101000a900473ffffffffffffffffffffffffffffffffffffffff16905090565b600b805461040c906106fb565b80601f0160208091040260200160405190810160405280929190818152602001828054610438906106fb565b80156104855780601f1061045a57610100808354040283529160200191610485565b820191906000526020600020905b81548152906001019060200180831161046857829003601f168201915b505050505081565b600360009054906101000a900460ff1681565b60045481565b600960009054906101000a900473ffffffffffffffffffffffffffffffffffffffff1681565b600160009054906101000a900473ffffffffffffffffffffffffffffffffffffffff1681565b565b6000600c60009054906101000a900473ffffffffffffffffffffffffffffffffffffffff16905090565b3660008037600080366000845af43d6000803e806000811461053f573d6000f35b3d6000fd5b61054d81610663565b82525050565b600061055e82610647565b6105688185610652565b93506105788185602086016106c8565b6105818161075c565b840191505092915050565b61059581610675565b82525050565b6105a4816106b1565b82525050565b6105b3816106bb565b82525050565b60006020820190506105ce6000830184610544565b92915050565b600060208201905081810360008301526105ee8184610553565b905092915050565b600060208201905061060b600083018461058c565b92915050565b6000602082019050610626600083018461059b565b92915050565b600060208201905061064160008301846105aa565b92915050565b600081519050919050565b600082825260208201905092915050565b600061066e82610691565b9050919050565b60006fffffffffffffffffffffffffffffffff82169050919050565b600073ffffffffffffffffffffffffffffffffffffffff82169050919050565b6000819050919050565b600060ff82169050919050565b60005b838110156106e65780820151818401526020810190506106cb565b838111156106f5576000848401525b50505050565b6000600282049050600182168061071357607f821691505b602082108114156107275761072661072d565b5b50919050565b7f4e487b7100000000000000000000000000000000000000000000000000000000600052602260045260246000fd5b6000601f19601f830116905091905056fea2646970667358221220c7e369ae6d999f025840d1215c9f0c43de0e5ccc527d760b225135dd0dc6aa7364736f6c63430008030033a26469706673582212202e917baf5e9d4e89cc2d8d288480385cc45c4b9a375c0eaf3a1234d11beff21364736f6c63430008030033",
  "immutableReferences": {},
  "source": "// SPDX-License-Identifier: MIT\npragma solidity >=0.4.22 <0.9.0;\nimport \"./NFTSplitterAdmin.sol\";\nimport \"./NFTSplitterProxy.sol\";\n\ncontract NFTSplitterFactory {\n  address private owner;\n  address private settings;\n  address private NFTSplitterBase;\n  address[] private splitters;\n\n  //is the app in pause state??\n  modifier isNotPaused(){\n    require (!NFTSplitterAdmin(settings).isPaused(), 'NFTSplitterFactory: Factory is paused');\n    _;\n  }\n    /**\n     * @dev emitted everytime a splitter proxy is created\n     */\n    event ProxyCreated(\n        address indexed nft,\n        address indexed proxyAddress,\n        address indexed NFTOwner\n    );\n\n  constructor(address _settings) {\n    owner = msg.sender; // factory owner\n    settings = _settings; // admin contract address\n    NFTSplitterBase = NFTSplitterAdmin(settings).getImplementation(); //logic implementation\n  }\n\n  /**\n   * @dev function that creates a new splitter proxy contract\n   *\n   */\n  function createNFTSplitter(address _nft, uint _tokenId) public payable isNotPaused returns (NFTSplitterProxy prx){\n    prx = new NFTSplitterProxy (_nft, _tokenId, msg.sender, NFTSplitterBase, settings, \"\");\n    NFTSplitterAdmin(settings).registerProxy(_nft,  address(prx));\n    splitters.push(address(prx));\n    emit ProxyCreated(_nft, address(prx), msg.sender);\n    return prx;\n  }\n\n  function getNFTSplitterBase() external view returns (address) {\n    return NFTSplitterBase;\n  }\n\n  //returns all the proxies created\n  function getNFTSplitters() external view returns ( address[] memory ) {\n    return splitters;\n  }\n  \n}\n",
  "sourcePath": "/home/dtutila/src/bootcamp/blockchain-developer-bootcamp-final-project/contracts/contracts/NFTSplitterFactory.sol",
  "compiler": {
    "name": "solc",
    "version": "0.8.3+commit.8d00100c.Emscripten.clang"
  },
  "schemaVersion": "3.4.3",
  "updatedAt": "2021-11-25T20:49:55.048Z",
  "networkType": "ethereum",
  "devdoc": {
    "events": {
      "ProxyCreated(address,address,address)": {
        "details": "emitted everytime a splitter proxy is created"
      }
    },
    "kind": "dev",
    "methods": {
      "createNFTSplitter(address,uint256)": {
        "details": "function that creates a new splitter proxy contract"
      }
    },
    "version": 1
  },
  "userdoc": {
    "kind": "user",
    "methods": {},
    "version": 1
  }
}