{
  "contractName": "NFTSplitter",
  "abi": [
    {
      "inputs": [],
      "stateMutability": "nonpayable",
      "type": "constructor"
    },
    {
      "anonymous": false,
      "inputs": [
        {
          "indexed": true,
          "internalType": "address",
          "name": "account",
          "type": "address"
        },
        {
          "indexed": true,
          "internalType": "address",
          "name": "operator",
          "type": "address"
        },
        {
          "indexed": false,
          "internalType": "bool",
          "name": "approved",
          "type": "bool"
        }
      ],
      "name": "ApprovalForAll",
      "type": "event"
    },
    {
      "anonymous": false,
      "inputs": [
        {
          "indexed": true,
          "internalType": "address",
          "name": "originalNFTAddress",
          "type": "address"
        },
        {
          "indexed": true,
          "internalType": "uint256",
          "name": "id",
          "type": "uint256"
        },
        {
          "indexed": true,
          "internalType": "uint256",
          "name": "pieces",
          "type": "uint256"
        },
        {
          "indexed": false,
          "internalType": "uint256",
          "name": "price",
          "type": "uint256"
        },
        {
          "indexed": false,
          "internalType": "uint256",
          "name": "percentage",
          "type": "uint256"
        },
        {
          "indexed": false,
          "internalType": "uint256",
          "name": "lockTime",
          "type": "uint256"
        },
        {
          "indexed": false,
          "internalType": "string",
          "name": "name",
          "type": "string"
        }
      ],
      "name": "NFTSplit",
      "type": "event"
    },
    {
      "anonymous": false,
      "inputs": [
        {
          "indexed": true,
          "internalType": "address",
          "name": "originalNFTAddress",
          "type": "address"
        },
        {
          "indexed": true,
          "internalType": "address",
          "name": "buyer",
          "type": "address"
        },
        {
          "indexed": false,
          "internalType": "uint256",
          "name": "amount",
          "type": "uint256"
        },
        {
          "indexed": false,
          "internalType": "uint256",
          "name": "price",
          "type": "uint256"
        }
      ],
      "name": "NFTSplitBuyBack",
      "type": "event"
    },
    {
      "anonymous": false,
      "inputs": [
        {
          "indexed": true,
          "internalType": "address",
          "name": "pieceOwner",
          "type": "address"
        },
        {
          "indexed": true,
          "internalType": "address",
          "name": "buyer",
          "type": "address"
        },
        {
          "indexed": true,
          "internalType": "uint256",
          "name": "amount",
          "type": "uint256"
        },
        {
          "indexed": false,
          "internalType": "uint256",
          "name": "price",
          "type": "uint256"
        }
      ],
      "name": "NFTSplitSold",
      "type": "event"
    },
    {
      "anonymous": false,
      "inputs": [
        {
          "indexed": true,
          "internalType": "address",
          "name": "originalNFTAddress",
          "type": "address"
        },
        {
          "indexed": true,
          "internalType": "address",
          "name": "buyer",
          "type": "address"
        },
        {
          "indexed": false,
          "internalType": "uint256",
          "name": "amount",
          "type": "uint256"
        }
      ],
      "name": "NFTWithdraw",
      "type": "event"
    },
    {
      "anonymous": false,
      "inputs": [
        {
          "indexed": true,
          "internalType": "address",
          "name": "operator",
          "type": "address"
        },
        {
          "indexed": true,
          "internalType": "address",
          "name": "from",
          "type": "address"
        },
        {
          "indexed": true,
          "internalType": "address",
          "name": "to",
          "type": "address"
        },
        {
          "indexed": false,
          "internalType": "uint256[]",
          "name": "ids",
          "type": "uint256[]"
        },
        {
          "indexed": false,
          "internalType": "uint256[]",
          "name": "values",
          "type": "uint256[]"
        }
      ],
      "name": "TransferBatch",
      "type": "event"
    },
    {
      "anonymous": false,
      "inputs": [
        {
          "indexed": true,
          "internalType": "address",
          "name": "operator",
          "type": "address"
        },
        {
          "indexed": true,
          "internalType": "address",
          "name": "from",
          "type": "address"
        },
        {
          "indexed": true,
          "internalType": "address",
          "name": "to",
          "type": "address"
        },
        {
          "indexed": false,
          "internalType": "uint256",
          "name": "id",
          "type": "uint256"
        },
        {
          "indexed": false,
          "internalType": "uint256",
          "name": "value",
          "type": "uint256"
        }
      ],
      "name": "TransferSingle",
      "type": "event"
    },
    {
      "anonymous": false,
      "inputs": [
        {
          "indexed": false,
          "internalType": "string",
          "name": "value",
          "type": "string"
        },
        {
          "indexed": true,
          "internalType": "uint256",
          "name": "id",
          "type": "uint256"
        }
      ],
      "name": "URI",
      "type": "event"
    },
    {
      "stateMutability": "payable",
      "type": "fallback",
      "payable": true
    },
    {
      "inputs": [],
      "name": "NFTPrice",
      "outputs": [
        {
          "internalType": "uint256",
          "name": "",
          "type": "uint256"
        }
      ],
      "stateMutability": "view",
      "type": "function",
      "constant": true
    },
    {
      "inputs": [
        {
          "internalType": "address",
          "name": "account",
          "type": "address"
        },
        {
          "internalType": "uint256",
          "name": "id",
          "type": "uint256"
        }
      ],
      "name": "balanceOf",
      "outputs": [
        {
          "internalType": "uint256",
          "name": "",
          "type": "uint256"
        }
      ],
      "stateMutability": "view",
      "type": "function",
      "constant": true
    },
    {
      "inputs": [
        {
          "internalType": "address[]",
          "name": "accounts",
          "type": "address[]"
        },
        {
          "internalType": "uint256[]",
          "name": "ids",
          "type": "uint256[]"
        }
      ],
      "name": "balanceOfBatch",
      "outputs": [
        {
          "internalType": "uint256[]",
          "name": "",
          "type": "uint256[]"
        }
      ],
      "stateMutability": "view",
      "type": "function",
      "constant": true
    },
    {
      "inputs": [],
      "name": "buyPercentage",
      "outputs": [
        {
          "internalType": "uint128",
          "name": "",
          "type": "uint128"
        }
      ],
      "stateMutability": "view",
      "type": "function",
      "constant": true
    },
    {
      "inputs": [],
      "name": "initialSellSupply",
      "outputs": [
        {
          "internalType": "uint8",
          "name": "",
          "type": "uint8"
        }
      ],
      "stateMutability": "view",
      "type": "function",
      "constant": true
    },
    {
      "inputs": [
        {
          "internalType": "address",
          "name": "account",
          "type": "address"
        },
        {
          "internalType": "address",
          "name": "operator",
          "type": "address"
        }
      ],
      "name": "isApprovedForAll",
      "outputs": [
        {
          "internalType": "bool",
          "name": "",
          "type": "bool"
        }
      ],
      "stateMutability": "view",
      "type": "function",
      "constant": true
    },
    {
      "inputs": [],
      "name": "lockEndDate",
      "outputs": [
        {
          "internalType": "uint256",
          "name": "",
          "type": "uint256"
        }
      ],
      "stateMutability": "view",
      "type": "function",
      "constant": true
    },
    {
      "inputs": [],
      "name": "name",
      "outputs": [
        {
          "internalType": "string",
          "name": "",
          "type": "string"
        }
      ],
      "stateMutability": "view",
      "type": "function",
      "constant": true
    },
    {
      "inputs": [],
      "name": "originalNFT",
      "outputs": [
        {
          "internalType": "address",
          "name": "",
          "type": "address"
        }
      ],
      "stateMutability": "view",
      "type": "function",
      "constant": true
    },
    {
      "inputs": [],
      "name": "originalOwner",
      "outputs": [
        {
          "internalType": "address",
          "name": "",
          "type": "address"
        }
      ],
      "stateMutability": "view",
      "type": "function",
      "constant": true
    },
    {
      "inputs": [],
      "name": "pieces",
      "outputs": [
        {
          "internalType": "uint8",
          "name": "",
          "type": "uint8"
        }
      ],
      "stateMutability": "view",
      "type": "function",
      "constant": true
    },
    {
      "inputs": [
        {
          "internalType": "address",
          "name": "from",
          "type": "address"
        },
        {
          "internalType": "address",
          "name": "to",
          "type": "address"
        },
        {
          "internalType": "uint256[]",
          "name": "ids",
          "type": "uint256[]"
        },
        {
          "internalType": "uint256[]",
          "name": "amounts",
          "type": "uint256[]"
        },
        {
          "internalType": "bytes",
          "name": "data",
          "type": "bytes"
        }
      ],
      "name": "safeBatchTransferFrom",
      "outputs": [],
      "stateMutability": "nonpayable",
      "type": "function"
    },
    {
      "inputs": [
        {
          "internalType": "address",
          "name": "operator",
          "type": "address"
        },
        {
          "internalType": "bool",
          "name": "approved",
          "type": "bool"
        }
      ],
      "name": "setApprovalForAll",
      "outputs": [],
      "stateMutability": "nonpayable",
      "type": "function"
    },
    {
      "inputs": [],
      "name": "settings",
      "outputs": [
        {
          "internalType": "address",
          "name": "",
          "type": "address"
        }
      ],
      "stateMutability": "view",
      "type": "function",
      "constant": true
    },
    {
      "inputs": [],
      "name": "symbol",
      "outputs": [
        {
          "internalType": "string",
          "name": "",
          "type": "string"
        }
      ],
      "stateMutability": "view",
      "type": "function",
      "constant": true
    },
    {
      "inputs": [],
      "name": "tokenId",
      "outputs": [
        {
          "internalType": "uint256",
          "name": "",
          "type": "uint256"
        }
      ],
      "stateMutability": "view",
      "type": "function",
      "constant": true
    },
    {
      "inputs": [],
      "name": "version",
      "outputs": [
        {
          "internalType": "uint8",
          "name": "",
          "type": "uint8"
        }
      ],
      "stateMutability": "view",
      "type": "function",
      "constant": true
    },
    {
      "stateMutability": "payable",
      "type": "receive",
      "payable": true
    },
    {
      "inputs": [
        {
          "internalType": "string",
          "name": "newuri",
          "type": "string"
        }
      ],
      "name": "setURI",
      "outputs": [],
      "stateMutability": "nonpayable",
      "type": "function"
    },
    {
      "inputs": [
        {
          "internalType": "address",
          "name": "account",
          "type": "address"
        },
        {
          "internalType": "uint256",
          "name": "id",
          "type": "uint256"
        },
        {
          "internalType": "uint256",
          "name": "amount",
          "type": "uint256"
        },
        {
          "internalType": "bytes",
          "name": "data",
          "type": "bytes"
        }
      ],
      "name": "mint",
      "outputs": [],
      "stateMutability": "nonpayable",
      "type": "function"
    },
    {
      "inputs": [
        {
          "internalType": "address",
          "name": "to",
          "type": "address"
        },
        {
          "internalType": "uint256[]",
          "name": "ids",
          "type": "uint256[]"
        },
        {
          "internalType": "uint256[]",
          "name": "amounts",
          "type": "uint256[]"
        },
        {
          "internalType": "bytes",
          "name": "data",
          "type": "bytes"
        }
      ],
      "name": "mintBatch",
      "outputs": [],
      "stateMutability": "nonpayable",
      "type": "function"
    },
    {
      "inputs": [
        {
          "internalType": "bytes4",
          "name": "interfaceId",
          "type": "bytes4"
        }
      ],
      "name": "supportsInterface",
      "outputs": [
        {
          "internalType": "bool",
          "name": "",
          "type": "bool"
        }
      ],
      "stateMutability": "view",
      "type": "function",
      "constant": true
    },
    {
      "inputs": [
        {
          "internalType": "uint256",
          "name": "id",
          "type": "uint256"
        }
      ],
      "name": "uri",
      "outputs": [
        {
          "internalType": "string",
          "name": "",
          "type": "string"
        }
      ],
      "stateMutability": "view",
      "type": "function",
      "constant": true
    },
    {
      "inputs": [
        {
          "internalType": "address",
          "name": "account",
          "type": "address"
        },
        {
          "internalType": "uint256",
          "name": "id",
          "type": "uint256"
        },
        {
          "internalType": "uint256",
          "name": "value",
          "type": "uint256"
        }
      ],
      "name": "burn",
      "outputs": [],
      "stateMutability": "nonpayable",
      "type": "function"
    },
    {
      "inputs": [
        {
          "internalType": "address",
          "name": "account",
          "type": "address"
        },
        {
          "internalType": "uint256[]",
          "name": "ids",
          "type": "uint256[]"
        },
        {
          "internalType": "uint256[]",
          "name": "values",
          "type": "uint256[]"
        }
      ],
      "name": "burnBatch",
      "outputs": [],
      "stateMutability": "nonpayable",
      "type": "function"
    },
    {
      "inputs": [
        {
          "internalType": "address",
          "name": "from",
          "type": "address"
        },
        {
          "internalType": "address",
          "name": "to",
          "type": "address"
        },
        {
          "internalType": "uint256",
          "name": "id",
          "type": "uint256"
        },
        {
          "internalType": "uint256",
          "name": "amount",
          "type": "uint256"
        },
        {
          "internalType": "bytes",
          "name": "data",
          "type": "bytes"
        }
      ],
      "name": "safeTransferFrom",
      "outputs": [],
      "stateMutability": "nonpayable",
      "type": "function"
    },
    {
      "inputs": [
        {
          "internalType": "uint256",
          "name": "_tokenId",
          "type": "uint256"
        },
        {
          "internalType": "uint256",
          "name": "_price",
          "type": "uint256"
        },
        {
          "internalType": "uint128",
          "name": "_buyPercentage",
          "type": "uint128"
        },
        {
          "internalType": "uint8",
          "name": "_pieces",
          "type": "uint8"
        },
        {
          "internalType": "uint8",
          "name": "_initialSellAmount",
          "type": "uint8"
        },
        {
          "internalType": "uint256",
          "name": "_lockTimeInDays",
          "type": "uint256"
        }
      ],
      "name": "splitMyNFT",
      "outputs": [],
      "stateMutability": "nonpayable",
      "type": "function"
    },
    {
      "inputs": [
        {
          "internalType": "address",
          "name": "_from",
          "type": "address"
        },
        {
          "internalType": "uint256",
          "name": "amount",
          "type": "uint256"
        }
      ],
      "name": "buyBackPieces",
      "outputs": [],
      "stateMutability": "payable",
      "type": "function",
      "payable": true
    },
    {
      "inputs": [
        {
          "internalType": "uint256",
          "name": "amount",
          "type": "uint256"
        }
      ],
      "name": "buyPiecesFromOwner",
      "outputs": [],
      "stateMutability": "payable",
      "type": "function",
      "payable": true
    },
    {
      "inputs": [],
      "name": "withdrawOriginalNFT",
      "outputs": [],
      "stateMutability": "nonpayable",
      "type": "function"
    },
    {
      "inputs": [
        {
          "internalType": "address",
          "name": "",
          "type": "address"
        },
        {
          "internalType": "address",
          "name": "",
          "type": "address"
        },
        {
          "internalType": "uint256",
          "name": "_id",
          "type": "uint256"
        },
        {
          "internalType": "uint256",
          "name": "",
          "type": "uint256"
        },
        {
          "internalType": "bytes",
          "name": "",
          "type": "bytes"
        }
      ],
      "name": "onERC1155Received",
      "outputs": [
        {
          "internalType": "bytes4",
          "name": "",
          "type": "bytes4"
        }
      ],
      "stateMutability": "nonpayable",
      "type": "function"
    },
    {
      "inputs": [
        {
          "internalType": "address",
          "name": "",
          "type": "address"
        },
        {
          "internalType": "address",
          "name": "",
          "type": "address"
        },
        {
          "internalType": "uint256[]",
          "name": "",
          "type": "uint256[]"
        },
        {
          "internalType": "uint256[]",
          "name": "",
          "type": "uint256[]"
        },
        {
          "internalType": "bytes",
          "name": "",
          "type": "bytes"
        }
      ],
      "name": "onERC1155BatchReceived",
      "outputs": [
        {
          "internalType": "bytes4",
          "name": "",
          "type": "bytes4"
        }
      ],
      "stateMutability": "pure",
      "type": "function",
      "constant": true
    },
    {
      "inputs": [],
      "name": "getBalance",
      "outputs": [
        {
          "internalType": "uint256",
          "name": "",
          "type": "uint256"
        }
      ],
      "stateMutability": "view",
      "type": "function",
      "constant": true
    },
    {
      "inputs": [],
      "name": "withdraw",
      "outputs": [],
      "stateMutability": "nonpayable",
      "type": "function"
    }
  ],
  "bytecode": "0x60806040523480156200001157600080fd5b50604051806020016040528060008152506200003381620000d660201b60201c565b506040518060400160405280600c81526020017f4e46542053706c69747465720000000000000000000000000000000000000000815250600a908051906020019062000081929190620000f2565b506040518060400160405280600481526020017f4e46545300000000000000000000000000000000000000000000000000000000815250600b9080519060200190620000cf929190620000f2565b5062000207565b80600e9080519060200190620000ee929190620000f2565b5050565b8280546200010090620001a2565b90600052602060002090601f01602090048101928262000124576000855562000170565b82601f106200013f57805160ff191683800117855562000170565b8280016001018555821562000170579182015b828111156200016f57825182559160200191906001019062000152565b5b5090506200017f919062000183565b5090565b5b808211156200019e57600081600090555060010162000184565b5090565b60006002820490506001821680620001bb57607f821691505b60208210811415620001d257620001d1620001d8565b5b50919050565b7f4e487b7100000000000000000000000000000000000000000000000000000000600052602260045260246000fd5b6154ec80620002176000396000f3fe6080604052600436106101f15760003560e01c80636b20c4541161010d578063bc197c81116100a0578063e985e9c51161006f578063e985e9c5146106b4578063f1fffdcb146106f1578063f23a6e611461071c578063f242432a14610759578063f5298aca14610782576101f8565b8063bc197c8114610607578063c22378cc14610644578063ccfb9ff114610660578063e06174e414610689576101f8565b806399b3878f116100dc57806399b3878f14610571578063a22cb4651461059c578063a38bffda146105c5578063b875a94f146105f0576101f8565b80636b20c454146104c957806372b60682146104f2578063731133e91461051d57806395d89b4114610546576101f8565b806317674036116101855780632eb2c2d6116101545780632eb2c2d6146104215780633ccfd60b1461044a5780634e1273f41461046157806354fd4d501461049e576101f8565b8063176740361461037757806317d70f7c146103a25780631d3d81d6146103cd5780631f7fdffa146103f8576101f8565b806306fdde03116101c157806306fdde03146102c85780630e89341c146102f357806312065fe01461033057806316f8bfcc1461035b576101f8565b8062fdd58e146101fa57806301ffc9a71461023757806302fe53051461027457806304e9da5a1461029d576101f8565b366101f857005b005b34801561020657600080fd5b50610221600480360381019061021c9190613825565b6107ab565b60405161022e91906146a3565b60405180910390f35b34801561024357600080fd5b5061025e600480360381019061025991906139c0565b610875565b60405161026b9190614347565b60405180910390f35b34801561028057600080fd5b5061029b60048036038101906102969190613a12565b610887565b005b3480156102a957600080fd5b506102b261088c565b6040516102bf919061465f565b60405180910390f35b3480156102d457600080fd5b506102dd6108ae565b6040516102ea919061437d565b60405180910390f35b3480156102ff57600080fd5b5061031a60048036038101906103159190613a94565b61093c565b604051610327919061437d565b60405180910390f35b34801561033c57600080fd5b506103456109f3565b60405161035291906146a3565b60405180910390f35b61037560048036038101906103709190613825565b6109fb565b005b34801561038357600080fd5b5061038c610cdc565b6040516103999190614733565b60405180910390f35b3480156103ae57600080fd5b506103b7610cef565b6040516103c491906146a3565b60405180910390f35b3480156103d957600080fd5b506103e2610cf5565b6040516103ef9190614167565b60405180910390f35b34801561040457600080fd5b5061041f600480360381019061041a919061373e565b610d19565b005b34801561042d57600080fd5b50610448600480360381019061044391906134df565b610d54565b005b34801561045657600080fd5b5061045f610df5565b005b34801561046d57600080fd5b506104886004803603810190610483919061392b565b610e87565b60405161049591906142ee565b60405180910390f35b3480156104aa57600080fd5b506104b3611038565b6040516104c09190614733565b60405180910390f35b3480156104d557600080fd5b506104f060048036038101906104eb91906136bf565b61103d565b005b3480156104fe57600080fd5b50610507611078565b60405161051491906146a3565b60405180910390f35b34801561052957600080fd5b50610544600480360381019061053f91906138b0565b61107e565b005b34801561055257600080fd5b5061055b6110b9565b604051610568919061437d565b60405180910390f35b34801561057d57600080fd5b50610586611147565b6040516105939190614733565b60405180910390f35b3480156105a857600080fd5b506105c360048036038101906105be91906137e9565b61115a565b005b3480156105d157600080fd5b506105da6112db565b6040516105e791906146a3565b60405180910390f35b3480156105fc57600080fd5b506106056112e1565b005b34801561061357600080fd5b5061062e600480360381019061062991906134df565b611528565b60405161063b9190614362565b60405180910390f35b61065e60048036038101906106599190613a94565b61153d565b005b34801561066c57600080fd5b5061068760048036038101906106829190613ae6565b611900565b005b34801561069557600080fd5b5061069e611e8b565b6040516106ab9190614167565b60405180910390f35b3480156106c057600080fd5b506106db60048036038101906106d691906134a3565b611eb1565b6040516106e89190614347565b60405180910390f35b3480156106fd57600080fd5b50610706611f45565b6040516107139190614167565b60405180910390f35b34801561072857600080fd5b50610743600480360381019061073e919061359e565b611f6b565b6040516107509190614362565b60405180910390f35b34801561076557600080fd5b50610780600480360381019061077b9190613630565b611f81565b005b34801561078e57600080fd5b506107a960048036038101906107a49190613861565b6120a3565b005b60008073ffffffffffffffffffffffffffffffffffffffff168373ffffffffffffffffffffffffffffffffffffffff16141561081c576040517f08c379a0000000000000000000000000000000000000000000000000000000008152600401610813906143ff565b60405180910390fd5b600c600083815260200190815260200160002060008473ffffffffffffffffffffffffffffffffffffffff1673ffffffffffffffffffffffffffffffffffffffff16815260200190815260200160002054905092915050565b6000610880826120de565b9050919050565b600080fd5b600560009054906101000a90046fffffffffffffffffffffffffffffffff1681565b600a80546108bb90614acf565b80601f01602080910402602001604051908101604052809291908181526020018280546108e790614acf565b80156109345780601f1061090957610100808354040283529160200191610934565b820191906000526020600020905b81548152906001019060200180831161091757829003601f168201915b505050505081565b606060008054906101000a900473ffffffffffffffffffffffffffffffffffffffff1673ffffffffffffffffffffffffffffffffffffffff16630e89341c836040518263ffffffff1660e01b815260040161099791906146a3565b60006040518083038186803b1580156109af57600080fd5b505afa1580156109c3573d6000803e3d6000fd5b505050506040513d6000823e3d601f19601f820116820180604052508101906109ec9190613a53565b9050919050565b600047905090565b3373ffffffffffffffffffffffffffffffffffffffff16600160009054906101000a900473ffffffffffffffffffffffffffffffffffffffff1673ffffffffffffffffffffffffffffffffffffffff1614610a8b576040517f08c379a0000000000000000000000000000000000000000000000000000000008152600401610a829061451f565b60405180910390fd5b6000610a988360016107ab565b90506000600160149054906101000a900460ff1660ff16600454610abc919061491f565b90506000836064600560009054906101000a90046fffffffffffffffffffffffffffffffff166fffffffffffffffffffffffffffffffff1684610aff9190614950565b610b09919061491f565b83610b1491906148c9565b610b1e9190614950565b905081341015610b63576040517f08c379a0000000000000000000000000000000000000000000000000000000008152600401610b5a906143df565b60405180910390fd5b610b80853360018760405180602001604052806000815250611f81565b6000808673ffffffffffffffffffffffffffffffffffffffff1683604051610ba790614152565b60006040518083038185875af1925050503d8060008114610be4576040519150601f19603f3d011682016040523d82523d6000602084013e610be9565b606091505b509150915081610c2e576040517f08c379a0000000000000000000000000000000000000000000000000000000008152600401610c259061445f565b60405180910390fd5b3373ffffffffffffffffffffffffffffffffffffffff1660008054906101000a900473ffffffffffffffffffffffffffffffffffffffff1673ffffffffffffffffffffffffffffffffffffffff167fd5663b7e74dd83da02889d52250b473b5039a7eff2bd9d93534e2a947fb32a79600560009054906101000a90046fffffffffffffffffffffffffffffffff1686604051610ccb92919061467a565b60405180910390a350505050505050565b600160149054906101000a900460ff1681565b60065481565b60008054906101000a900473ffffffffffffffffffffffffffffffffffffffff1681565b6040517f08c379a0000000000000000000000000000000000000000000000000000000008152600401610d4b906144ff565b60405180910390fd5b610d5c6121c0565b73ffffffffffffffffffffffffffffffffffffffff168573ffffffffffffffffffffffffffffffffffffffff161480610da25750610da185610d9c6121c0565b611eb1565b5b610de1576040517f08c379a0000000000000000000000000000000000000000000000000000000008152600401610dd8906144df565b60405180910390fd5b610dee85858585856121c8565b5050505050565b3373ffffffffffffffffffffffffffffffffffffffff16600160009054906101000a900473ffffffffffffffffffffffffffffffffffffffff1673ffffffffffffffffffffffffffffffffffffffff1614610e85576040517f08c379a0000000000000000000000000000000000000000000000000000000008152600401610e7c9061451f565b60405180910390fd5b565b60608151835114610ecd576040517f08c379a0000000000000000000000000000000000000000000000000000000008152600401610ec4906145df565b60405180910390fd5b6000835167ffffffffffffffff811115610f10577f4e487b7100000000000000000000000000000000000000000000000000000000600052604160045260246000fd5b604051908082528060200260200182016040528015610f3e5781602001602082028036833780820191505090505b50905060005b845181101561102d57610fd7858281518110610f89577f4e487b7100000000000000000000000000000000000000000000000000000000600052603260045260246000fd5b6020026020010151858381518110610fca577f4e487b7100000000000000000000000000000000000000000000000000000000600052603260045260246000fd5b60200260200101516107ab565b828281518110611010577f4e487b7100000000000000000000000000000000000000000000000000000000600052603260045260246000fd5b6020026020010181815250508061102690614b32565b9050610f44565b508091505092915050565b600181565b6040517f08c379a000000000000000000000000000000000000000000000000000000000815260040161106f906144ff565b60405180910390fd5b60025481565b6040517f08c379a00000000000000000000000000000000000000000000000000000000081526004016110b0906144ff565b60405180910390fd5b600b80546110c690614acf565b80601f01602080910402602001604051908101604052809291908181526020018280546110f290614acf565b801561113f5780601f106111145761010080835404028352916020019161113f565b820191906000526020600020905b81548152906001019060200180831161112257829003601f168201915b505050505081565b600360009054906101000a900460ff1681565b8173ffffffffffffffffffffffffffffffffffffffff166111796121c0565b73ffffffffffffffffffffffffffffffffffffffff1614156111d0576040517f08c379a00000000000000000000000000000000000000000000000000000000081526004016111c7906145bf565b60405180910390fd5b80600d60006111dd6121c0565b73ffffffffffffffffffffffffffffffffffffffff1673ffffffffffffffffffffffffffffffffffffffff16815260200190815260200160002060008473ffffffffffffffffffffffffffffffffffffffff1673ffffffffffffffffffffffffffffffffffffffff16815260200190815260200160002060006101000a81548160ff0219169083151502179055508173ffffffffffffffffffffffffffffffffffffffff1661128a6121c0565b73ffffffffffffffffffffffffffffffffffffffff167f17307eab39ab6107e8899845ad3d59bd9653f200f220920489ca2b5937696c31836040516112cf9190614347565b60405180910390a35050565b60045481565b600160149054906101000a900460ff1660ff166112ff3360016107ab565b1461133f576040517f08c379a00000000000000000000000000000000000000000000000000000000081526004016113369061457f565b60405180910390fd5b60008060009054906101000a900473ffffffffffffffffffffffffffffffffffffffff1673ffffffffffffffffffffffffffffffffffffffff1662fdd58e306006546040518363ffffffff1660e01b815260040161139e9291906142c5565b60206040518083038186803b1580156113b657600080fd5b505afa1580156113ca573d6000803e3d6000fd5b505050506040513d601f19601f820116820180604052508101906113ee9190613abd565b905060008054906101000a900473ffffffffffffffffffffffffffffffffffffffff1673ffffffffffffffffffffffffffffffffffffffff1663f242432a3033600654856040518563ffffffff1660e01b8152600401611451949392919061426d565b600060405180830381600087803b15801561146b57600080fd5b505af115801561147f573d6000803e3d6000fd5b505050506114a03360018060149054906101000a900460ff1660ff1661252b565b3373ffffffffffffffffffffffffffffffffffffffff1660008054906101000a900473ffffffffffffffffffffffffffffffffffffffff1673ffffffffffffffffffffffffffffffffffffffff167fb072771ef078d0df5c946e8bf51bf87fbfb3beb54a70e74964bb1c278999e1f58360405161151d91906146a3565b60405180910390a350565b600063bc197c8160e01b905095945050505050565b3373ffffffffffffffffffffffffffffffffffffffff16600160009054906101000a900473ffffffffffffffffffffffffffffffffffffffff1673ffffffffffffffffffffffffffffffffffffffff1614156115ce576040517f08c379a00000000000000000000000000000000000000000000000000000000081526004016115c59061459f565b60405180910390fd5b60006115fd600160009054906101000a900473ffffffffffffffffffffffffffffffffffffffff1660016107ab565b905081600360009054906101000a900460ff1660ff168261161e91906149aa565b101561165f576040517f08c379a00000000000000000000000000000000000000000000000000000000081526004016116569061443f565b60405180910390fd5b3373ffffffffffffffffffffffffffffffffffffffff16600160009054906101000a900473ffffffffffffffffffffffffffffffffffffffff1673ffffffffffffffffffffffffffffffffffffffff1614156116f0576040517f08c379a00000000000000000000000000000000000000000000000000000000081526004016116e79061463f565b60405180910390fd5b600082600160149054906101000a900460ff1660ff16600454611713919061491f565b61171d9190614950565b905080341015611762576040517f08c379a00000000000000000000000000000000000000000000000000000000081526004016117599061449f565b60405180910390fd5b6117a1600160009054906101000a900473ffffffffffffffffffffffffffffffffffffffff163360018660405180602001604052806000815250611f81565b600080600160009054906101000a900473ffffffffffffffffffffffffffffffffffffffff1673ffffffffffffffffffffffffffffffffffffffff16346040516117ea90614152565b60006040518083038185875af1925050503d8060008114611827576040519150601f19603f3d011682016040523d82523d6000602084013e61182c565b606091505b5091509150843373ffffffffffffffffffffffffffffffffffffffff16600160009054906101000a900473ffffffffffffffffffffffffffffffffffffffff1673ffffffffffffffffffffffffffffffffffffffff167f70cd864c0863dd4b53c1c2e09e5affab9b63d1497282919be454186dbe56f80c866040516118b191906146a3565b60405180910390a4816118f9576040517f08c379a00000000000000000000000000000000000000000000000000000000081526004016118f09061445f565b60405180910390fd5b5050505050565b3373ffffffffffffffffffffffffffffffffffffffff16600160009054906101000a900473ffffffffffffffffffffffffffffffffffffffff1673ffffffffffffffffffffffffffffffffffffffff1614611990576040517f08c379a00000000000000000000000000000000000000000000000000000000081526004016119879061451f565b60405180910390fd5b620151808161199f9190614950565b426119aa91906148c9565b60028190555033600160006101000a81548173ffffffffffffffffffffffffffffffffffffffff021916908373ffffffffffffffffffffffffffffffffffffffff16021790555081600360006101000a81548160ff021916908360ff16021790555060008054906101000a900473ffffffffffffffffffffffffffffffffffffffff1673ffffffffffffffffffffffffffffffffffffffff166306fdde036040518163ffffffff1660e01b815260040160006040518083038186803b158015611a7257600080fd5b505afa158015611a86573d6000803e3d6000fd5b505050506040513d6000823e3d601f19601f82011682018060405250810190611aaf9190613a53565b604051602001611abf919061410e565b604051602081830303815290604052600a9080519060200190611ae3929190613095565b5060008054906101000a900473ffffffffffffffffffffffffffffffffffffffff1673ffffffffffffffffffffffffffffffffffffffff166395d89b416040518163ffffffff1660e01b815260040160006040518083038186803b158015611b4a57600080fd5b505afa158015611b5e573d6000803e3d6000fd5b505050506040513d6000823e3d601f19601f82011682018060405250810190611b879190613a53565b604051602001611b979190614130565b604051602081830303815290604052600b9080519060200190611bbb929190613095565b508560068190555082600160146101000a81548160ff021916908360ff1602179055508460048190555083600560006101000a8154816fffffffffffffffffffffffffffffffff02191690836fffffffffffffffffffffffffffffffff16021790555060008060009054906101000a900473ffffffffffffffffffffffffffffffffffffffff1673ffffffffffffffffffffffffffffffffffffffff1662fdd58e336006546040518363ffffffff1660e01b8152600401611c7d9291906142c5565b60206040518083038186803b158015611c9557600080fd5b505afa158015611ca9573d6000803e3d6000fd5b505050506040513d601f19601f82011682018060405250810190611ccd9190613abd565b9050611cfe33600654600160149054906101000a900460ff1660ff166040518060200160405280600081525061274a565b60008054906101000a900473ffffffffffffffffffffffffffffffffffffffff1673ffffffffffffffffffffffffffffffffffffffff1663f242432a3330600654856040518563ffffffff1660e01b8152600401611d5f949392919061426d565b600060405180830381600087803b158015611d7957600080fd5b505af1158015611d8d573d6000803e3d6000fd5b5050505080600760003373ffffffffffffffffffffffffffffffffffffffff1673ffffffffffffffffffffffffffffffffffffffff16815260200190815260200160002081905550600160149054906101000a900460ff1660ff1660065460008054906101000a900473ffffffffffffffffffffffffffffffffffffffff1673ffffffffffffffffffffffffffffffffffffffff167f582733874e746ffdbda564a5a3d4a22bd9f73521c954fc6ec77cb26e8765fd9a600454600560009054906101000a90046fffffffffffffffffffffffffffffffff16600254600a604051611e7a94939291906146be565b60405180910390a450505050505050565b600960009054906101000a900473ffffffffffffffffffffffffffffffffffffffff1681565b6000600d60008473ffffffffffffffffffffffffffffffffffffffff1673ffffffffffffffffffffffffffffffffffffffff16815260200190815260200160002060008373ffffffffffffffffffffffffffffffffffffffff1673ffffffffffffffffffffffffffffffffffffffff16815260200190815260200160002060009054906101000a900460ff16905092915050565b600160009054906101000a900473ffffffffffffffffffffffffffffffffffffffff1681565b600063f23a6e6160e01b90509695505050505050565b600960009054906101000a900473ffffffffffffffffffffffffffffffffffffffff1673ffffffffffffffffffffffffffffffffffffffff1663d37531aa60008054906101000a900473ffffffffffffffffffffffffffffffffffffffff16306040518363ffffffff1660e01b8152600401611ffe929190614182565b602060405180830381600087803b15801561201857600080fd5b505af115801561202c573d6000803e3d6000fd5b505050506040513d601f19601f820116820180604052508101906120509190613997565b61208f576040517f08c379a00000000000000000000000000000000000000000000000000000000081526004016120869061447f565b60405180910390fd5b61209c85858585856128e1565b5050505050565b6040517f08c379a00000000000000000000000000000000000000000000000000000000081526004016120d5906144ff565b60405180910390fd5b60007fd9b67a26000000000000000000000000000000000000000000000000000000007bffffffffffffffffffffffffffffffffffffffffffffffffffffffff1916827bffffffffffffffffffffffffffffffffffffffffffffffffffffffff191614806121a957507f0e89341c000000000000000000000000000000000000000000000000000000007bffffffffffffffffffffffffffffffffffffffffffffffffffffffff1916827bffffffffffffffffffffffffffffffffffffffffffffffffffffffff1916145b806121b957506121b882612b66565b5b9050919050565b600033905090565b815183511461220c576040517f08c379a0000000000000000000000000000000000000000000000000000000008152600401612203906145ff565b60405180910390fd5b600073ffffffffffffffffffffffffffffffffffffffff168473ffffffffffffffffffffffffffffffffffffffff16141561227c576040517f08c379a0000000000000000000000000000000000000000000000000000000008152600401612273906144bf565b60405180910390fd5b60006122866121c0565b9050612296818787878787612bd0565b60005b84518110156124965760008582815181106122dd577f4e487b7100000000000000000000000000000000000000000000000000000000600052603260045260246000fd5b602002602001015190506000858381518110612322577f4e487b7100000000000000000000000000000000000000000000000000000000600052603260045260246000fd5b602002602001015190506000600c600084815260200190815260200160002060008b73ffffffffffffffffffffffffffffffffffffffff1673ffffffffffffffffffffffffffffffffffffffff168152602001908152602001600020549050818110156123c4576040517f08c379a00000000000000000000000000000000000000000000000000000000081526004016123bb9061455f565b60405180910390fd5b818103600c600085815260200190815260200160002060008c73ffffffffffffffffffffffffffffffffffffffff1673ffffffffffffffffffffffffffffffffffffffff1681526020019081526020016000208190555081600c600085815260200190815260200160002060008b73ffffffffffffffffffffffffffffffffffffffff1673ffffffffffffffffffffffffffffffffffffffff168152602001908152602001600020600082825461247b91906148c9565b925050819055505050508061248f90614b32565b9050612299565b508473ffffffffffffffffffffffffffffffffffffffff168673ffffffffffffffffffffffffffffffffffffffff168273ffffffffffffffffffffffffffffffffffffffff167f4a39dc06d4c0dbc64b70af90fd698a233a518aa5d07e595d983b8c0526c8f7fb878760405161250d929190614310565b60405180910390a4612523818787878787612be6565b505050505050565b600073ffffffffffffffffffffffffffffffffffffffff168373ffffffffffffffffffffffffffffffffffffffff16141561259b576040517f08c379a00000000000000000000000000000000000000000000000000000000081526004016125929061453f565b60405180910390fd5b60006125a56121c0565b90506125d5818560006125b787612dcd565b6125c087612dcd565b60405180602001604052806000815250612bd0565b6000600c600085815260200190815260200160002060008673ffffffffffffffffffffffffffffffffffffffff1673ffffffffffffffffffffffffffffffffffffffff1681526020019081526020016000205490508281101561266d576040517f08c379a00000000000000000000000000000000000000000000000000000000081526004016126649061441f565b60405180910390fd5b828103600c600086815260200190815260200160002060008773ffffffffffffffffffffffffffffffffffffffff1673ffffffffffffffffffffffffffffffffffffffff16815260200190815260200160002081905550600073ffffffffffffffffffffffffffffffffffffffff168573ffffffffffffffffffffffffffffffffffffffff168373ffffffffffffffffffffffffffffffffffffffff167fc3d58168c5ae7397731d063d5bbf3d657854427343f4c083240f7aacaa2d0f62878760405161273b92919061470a565b60405180910390a45050505050565b600073ffffffffffffffffffffffffffffffffffffffff168473ffffffffffffffffffffffffffffffffffffffff1614156127ba576040517f08c379a00000000000000000000000000000000000000000000000000000000081526004016127b19061461f565b60405180910390fd5b60006127c46121c0565b90506127e5816000876127d688612dcd565b6127df88612dcd565b87612bd0565b82600c600086815260200190815260200160002060008773ffffffffffffffffffffffffffffffffffffffff1673ffffffffffffffffffffffffffffffffffffffff168152602001908152602001600020600082825461284591906148c9565b925050819055508473ffffffffffffffffffffffffffffffffffffffff16600073ffffffffffffffffffffffffffffffffffffffff168273ffffffffffffffffffffffffffffffffffffffff167fc3d58168c5ae7397731d063d5bbf3d657854427343f4c083240f7aacaa2d0f6287876040516128c392919061470a565b60405180910390a46128da81600087878787612e93565b5050505050565b600073ffffffffffffffffffffffffffffffffffffffff168473ffffffffffffffffffffffffffffffffffffffff161415612951576040517f08c379a0000000000000000000000000000000000000000000000000000000008152600401612948906144bf565b60405180910390fd5b600061295b6121c0565b905061297b81878761296c88612dcd565b61297588612dcd565b87612bd0565b6000600c600086815260200190815260200160002060008873ffffffffffffffffffffffffffffffffffffffff1673ffffffffffffffffffffffffffffffffffffffff16815260200190815260200160002054905083811015612a13576040517f08c379a0000000000000000000000000000000000000000000000000000000008152600401612a0a9061455f565b60405180910390fd5b838103600c600087815260200190815260200160002060008973ffffffffffffffffffffffffffffffffffffffff1673ffffffffffffffffffffffffffffffffffffffff1681526020019081526020016000208190555083600c600087815260200190815260200160002060008873ffffffffffffffffffffffffffffffffffffffff1673ffffffffffffffffffffffffffffffffffffffff1681526020019081526020016000206000828254612aca91906148c9565b925050819055508573ffffffffffffffffffffffffffffffffffffffff168773ffffffffffffffffffffffffffffffffffffffff168373ffffffffffffffffffffffffffffffffffffffff167fc3d58168c5ae7397731d063d5bbf3d657854427343f4c083240f7aacaa2d0f628888604051612b4792919061470a565b60405180910390a4612b5d828888888888612e93565b50505050505050565b60007f01ffc9a7000000000000000000000000000000000000000000000000000000007bffffffffffffffffffffffffffffffffffffffffffffffffffffffff1916827bffffffffffffffffffffffffffffffffffffffffffffffffffffffff1916149050919050565b612bde86868686868661307a565b505050505050565b612c058473ffffffffffffffffffffffffffffffffffffffff16613082565b15612dc5578373ffffffffffffffffffffffffffffffffffffffff1663bc197c8187878686866040518663ffffffff1660e01b8152600401612c4b9594939291906141ab565b602060405180830381600087803b158015612c6557600080fd5b505af1925050508015612c9657506040513d601f19601f82011682018060405250810190612c9391906139e9565b60015b612d3c57612ca2614c37565b806308c379a01415612cff5750612cb7615396565b80612cc25750612d01565b806040517f08c379a0000000000000000000000000000000000000000000000000000000008152600401612cf6919061437d565b60405180910390fd5b505b6040517f08c379a0000000000000000000000000000000000000000000000000000000008152600401612d339061439f565b60405180910390fd5b63bc197c8160e01b7bffffffffffffffffffffffffffffffffffffffffffffffffffffffff1916817bffffffffffffffffffffffffffffffffffffffffffffffffffffffff191614612dc3576040517f08c379a0000000000000000000000000000000000000000000000000000000008152600401612dba906143bf565b60405180910390fd5b505b505050505050565b60606000600167ffffffffffffffff811115612e12577f4e487b7100000000000000000000000000000000000000000000000000000000600052604160045260246000fd5b604051908082528060200260200182016040528015612e405781602001602082028036833780820191505090505b5090508281600081518110612e7e577f4e487b7100000000000000000000000000000000000000000000000000000000600052603260045260246000fd5b60200260200101818152505080915050919050565b612eb28473ffffffffffffffffffffffffffffffffffffffff16613082565b15613072578373ffffffffffffffffffffffffffffffffffffffff1663f23a6e6187878686866040518663ffffffff1660e01b8152600401612ef8959493929190614213565b602060405180830381600087803b158015612f1257600080fd5b505af1925050508015612f4357506040513d601f19601f82011682018060405250810190612f4091906139e9565b60015b612fe957612f4f614c37565b806308c379a01415612fac5750612f64615396565b80612f6f5750612fae565b806040517f08c379a0000000000000000000000000000000000000000000000000000000008152600401612fa3919061437d565b60405180910390fd5b505b6040517f08c379a0000000000000000000000000000000000000000000000000000000008152600401612fe09061439f565b60405180910390fd5b63f23a6e6160e01b7bffffffffffffffffffffffffffffffffffffffffffffffffffffffff1916817bffffffffffffffffffffffffffffffffffffffffffffffffffffffff191614613070576040517f08c379a0000000000000000000000000000000000000000000000000000000008152600401613067906143bf565b60405180910390fd5b505b505050505050565b505050505050565b600080823b905060008111915050919050565b8280546130a190614acf565b90600052602060002090601f0160209004810192826130c3576000855561310a565b82601f106130dc57805160ff191683800117855561310a565b8280016001018555821561310a579182015b828111156131095782518255916020019190600101906130ee565b5b509050613117919061311b565b5090565b5b8082111561313457600081600090555060010161311c565b5090565b600061314b61314684614773565b61474e565b9050808382526020820190508285602086028201111561316a57600080fd5b60005b8581101561319a578161318088826132ca565b84526020840193506020830192505060018101905061316d565b5050509392505050565b60006131b76131b28461479f565b61474e565b905080838252602082019050828560208602820111156131d657600080fd5b60005b8581101561320657816131ec8882613464565b8452602084019350602083019250506001810190506131d9565b5050509392505050565b600061322361321e846147cb565b61474e565b90508281526020810184848401111561323b57600080fd5b613246848285614a8d565b509392505050565b600061326161325c846147fc565b61474e565b90508281526020810184848401111561327957600080fd5b613284848285614a8d565b509392505050565b600061329f61329a846147fc565b61474e565b9050828152602081018484840111156132b757600080fd5b6132c2848285614a9c565b509392505050565b6000813590506132d98161542c565b92915050565b600082601f8301126132f057600080fd5b8135613300848260208601613138565b91505092915050565b600082601f83011261331a57600080fd5b813561332a8482602086016131a4565b91505092915050565b60008135905061334281615443565b92915050565b60008151905061335781615443565b92915050565b60008135905061336c8161545a565b92915050565b6000815190506133818161545a565b92915050565b60008083601f84011261339957600080fd5b8235905067ffffffffffffffff8111156133b257600080fd5b6020830191508360018202830111156133ca57600080fd5b9250929050565b600082601f8301126133e257600080fd5b81356133f2848260208601613210565b91505092915050565b600082601f83011261340c57600080fd5b813561341c84826020860161324e565b91505092915050565b600082601f83011261343657600080fd5b815161344684826020860161328c565b91505092915050565b60008135905061345e81615471565b92915050565b60008135905061347381615488565b92915050565b60008151905061348881615488565b92915050565b60008135905061349d8161549f565b92915050565b600080604083850312156134b657600080fd5b60006134c4858286016132ca565b92505060206134d5858286016132ca565b9150509250929050565b600080600080600060a086880312156134f757600080fd5b6000613505888289016132ca565b9550506020613516888289016132ca565b945050604086013567ffffffffffffffff81111561353357600080fd5b61353f88828901613309565b935050606086013567ffffffffffffffff81111561355c57600080fd5b61356888828901613309565b925050608086013567ffffffffffffffff81111561358557600080fd5b613591888289016133d1565b9150509295509295909350565b60008060008060008060a087890312156135b757600080fd5b60006135c589828a016132ca565b96505060206135d689828a016132ca565b95505060406135e789828a01613464565b94505060606135f889828a01613464565b935050608087013567ffffffffffffffff81111561361557600080fd5b61362189828a01613387565b92509250509295509295509295565b600080600080600060a0868803121561364857600080fd5b6000613656888289016132ca565b9550506020613667888289016132ca565b945050604061367888828901613464565b935050606061368988828901613464565b925050608086013567ffffffffffffffff8111156136a657600080fd5b6136b2888289016133d1565b9150509295509295909350565b6000806000606084860312156136d457600080fd5b60006136e2868287016132ca565b935050602084013567ffffffffffffffff8111156136ff57600080fd5b61370b86828701613309565b925050604084013567ffffffffffffffff81111561372857600080fd5b61373486828701613309565b9150509250925092565b6000806000806080858703121561375457600080fd5b6000613762878288016132ca565b945050602085013567ffffffffffffffff81111561377f57600080fd5b61378b87828801613309565b935050604085013567ffffffffffffffff8111156137a857600080fd5b6137b487828801613309565b925050606085013567ffffffffffffffff8111156137d157600080fd5b6137dd878288016133d1565b91505092959194509250565b600080604083850312156137fc57600080fd5b600061380a858286016132ca565b925050602061381b85828601613333565b9150509250929050565b6000806040838503121561383857600080fd5b6000613846858286016132ca565b925050602061385785828601613464565b9150509250929050565b60008060006060848603121561387657600080fd5b6000613884868287016132ca565b935050602061389586828701613464565b92505060406138a686828701613464565b9150509250925092565b600080600080608085870312156138c657600080fd5b60006138d4878288016132ca565b94505060206138e587828801613464565b93505060406138f687828801613464565b925050606085013567ffffffffffffffff81111561391357600080fd5b61391f878288016133d1565b91505092959194509250565b6000806040838503121561393e57600080fd5b600083013567ffffffffffffffff81111561395857600080fd5b613964858286016132df565b925050602083013567ffffffffffffffff81111561398157600080fd5b61398d85828601613309565b9150509250929050565b6000602082840312156139a957600080fd5b60006139b784828501613348565b91505092915050565b6000602082840312156139d257600080fd5b60006139e08482850161335d565b91505092915050565b6000602082840312156139fb57600080fd5b6000613a0984828501613372565b91505092915050565b600060208284031215613a2457600080fd5b600082013567ffffffffffffffff811115613a3e57600080fd5b613a4a848285016133fb565b91505092915050565b600060208284031215613a6557600080fd5b600082015167ffffffffffffffff811115613a7f57600080fd5b613a8b84828501613425565b91505092915050565b600060208284031215613aa657600080fd5b6000613ab484828501613464565b91505092915050565b600060208284031215613acf57600080fd5b6000613add84828501613479565b91505092915050565b60008060008060008060c08789031215613aff57600080fd5b6000613b0d89828a01613464565b9650506020613b1e89828a01613464565b9550506040613b2f89828a0161344f565b9450506060613b4089828a0161348e565b9350506080613b5189828a0161348e565b92505060a0613b6289828a01613464565b9150509295509295509295565b6000613b7b83836140e1565b60208301905092915050565b613b90816149de565b82525050565b6000613ba182614852565b613bab8185614880565b9350613bb68361482d565b8060005b83811015613be7578151613bce8882613b6f565b9750613bd983614873565b925050600181019050613bba565b5085935050505092915050565b613bfd816149f0565b82525050565b613c0c816149fc565b82525050565b6000613c1d8261485d565b613c278185614891565b9350613c37818560208601614a9c565b613c4081614c59565b840191505092915050565b6000613c5682614868565b613c6081856148ad565b9350613c70818560208601614a9c565b613c7981614c59565b840191505092915050565b6000613c8f82614868565b613c9981856148be565b9350613ca9818560208601614a9c565b80840191505092915050565b60008154613cc281614acf565b613ccc81866148ad565b94506001821660008114613ce75760018114613cf957613d2c565b60ff1983168652602086019350613d2c565b613d028561483d565b60005b83811015613d2457815481890152600182019150602081019050613d05565b808801955050505b50505092915050565b6000613d426034836148ad565b9150613d4d82614c77565b604082019050919050565b6000613d656028836148ad565b9150613d7082614cc6565b604082019050919050565b6000613d886034836148ad565b9150613d9382614d15565b604082019050919050565b6000613dab602b836148ad565b9150613db682614d64565b604082019050919050565b6000613dce6024836148ad565b9150613dd982614db3565b604082019050919050565b6000613df16025836148ad565b9150613dfc82614e02565b604082019050919050565b6000613e146014836148ad565b9150613e1f82614e51565b602082019050919050565b6000613e37603d836148ad565b9150613e4282614e7a565b604082019050919050565b6000613e5a602b836148ad565b9150613e6582614ec9565b604082019050919050565b6000613e7d600f836148be565b9150613e8882614f18565b600f82019050919050565b6000613ea06025836148ad565b9150613eab82614f41565b604082019050919050565b6000613ec36032836148ad565b9150613ece82614f90565b604082019050919050565b6000613ee66018836148ad565b9150613ef182614fdf565b602082019050919050565b6000613f09603e836148ad565b9150613f1482615008565b604082019050919050565b6000613f2c6023836148ad565b9150613f3782615057565b604082019050919050565b6000613f4f602a836148ad565b9150613f5a826150a6565b604082019050919050565b6000613f726002836148be565b9150613f7d826150f5565b600282019050919050565b6000613f956043836148ad565b9150613fa08261511e565b606082019050919050565b6000613fb8600083614891565b9150613fc382615193565b600082019050919050565b6000613fdb6000836148a2565b9150613fe682615193565b600082019050919050565b6000613ffe6047836148ad565b915061400982615196565b606082019050919050565b60006140216029836148ad565b915061402c8261520b565b604082019050919050565b60006140446029836148ad565b915061404f8261525a565b604082019050919050565b60006140676028836148ad565b9150614072826152a9565b604082019050919050565b600061408a6021836148ad565b9150614095826152f8565b604082019050919050565b60006140ad602a836148ad565b91506140b882615347565b604082019050919050565b6140cc81614a28565b82525050565b6140db81614a7b565b82525050565b6140ea81614a64565b82525050565b6140f981614a64565b82525050565b61410881614a6e565b82525050565b600061411982613e70565b91506141258284613c84565b915081905092915050565b600061413b82613f65565b91506141478284613c84565b915081905092915050565b600061415d82613fce565b9150819050919050565b600060208201905061417c6000830184613b87565b92915050565b60006040820190506141976000830185613b87565b6141a46020830184613b87565b9392505050565b600060a0820190506141c06000830188613b87565b6141cd6020830187613b87565b81810360408301526141df8186613b96565b905081810360608301526141f38185613b96565b905081810360808301526142078184613c12565b90509695505050505050565b600060a0820190506142286000830188613b87565b6142356020830187613b87565b61424260408301866140f0565b61424f60608301856140f0565b81810360808301526142618184613c12565b90509695505050505050565b600060a0820190506142826000830187613b87565b61428f6020830186613b87565b61429c60408301856140f0565b6142a960608301846140f0565b81810360808301526142ba81613fab565b905095945050505050565b60006040820190506142da6000830185613b87565b6142e760208301846140f0565b9392505050565b600060208201905081810360008301526143088184613b96565b905092915050565b6000604082019050818103600083015261432a8185613b96565b9050818103602083015261433e8184613b96565b90509392505050565b600060208201905061435c6000830184613bf4565b92915050565b60006020820190506143776000830184613c03565b92915050565b600060208201905081810360008301526143978184613c4b565b905092915050565b600060208201905081810360008301526143b881613d35565b9050919050565b600060208201905081810360008301526143d881613d58565b9050919050565b600060208201905081810360008301526143f881613d7b565b9050919050565b6000602082019050818103600083015261441881613d9e565b9050919050565b6000602082019050818103600083015261443881613dc1565b9050919050565b6000602082019050818103600083015261445881613de4565b9050919050565b6000602082019050818103600083015261447881613e07565b9050919050565b6000602082019050818103600083015261449881613e2a565b9050919050565b600060208201905081810360008301526144b881613e4d565b9050919050565b600060208201905081810360008301526144d881613e93565b9050919050565b600060208201905081810360008301526144f881613eb6565b9050919050565b6000602082019050818103600083015261451881613ed9565b9050919050565b6000602082019050818103600083015261453881613efc565b9050919050565b6000602082019050818103600083015261455881613f1f565b9050919050565b6000602082019050818103600083015261457881613f42565b9050919050565b6000602082019050818103600083015261459881613f88565b9050919050565b600060208201905081810360008301526145b881613ff1565b9050919050565b600060208201905081810360008301526145d881614014565b9050919050565b600060208201905081810360008301526145f881614037565b9050919050565b600060208201905081810360008301526146188161405a565b9050919050565b600060208201905081810360008301526146388161407d565b9050919050565b60006020820190508181036000830152614658816140a0565b9050919050565b600060208201905061467460008301846140c3565b92915050565b600060408201905061468f60008301856140d2565b61469c60208301846140f0565b9392505050565b60006020820190506146b860008301846140f0565b92915050565b60006080820190506146d360008301876140f0565b6146e060208301866140d2565b6146ed60408301856140f0565b81810360608301526146ff8184613cb5565b905095945050505050565b600060408201905061471f60008301856140f0565b61472c60208301846140f0565b9392505050565b600060208201905061474860008301846140ff565b92915050565b6000614758614769565b90506147648282614b01565b919050565b6000604051905090565b600067ffffffffffffffff82111561478e5761478d614c08565b5b602082029050602081019050919050565b600067ffffffffffffffff8211156147ba576147b9614c08565b5b602082029050602081019050919050565b600067ffffffffffffffff8211156147e6576147e5614c08565b5b6147ef82614c59565b9050602081019050919050565b600067ffffffffffffffff82111561481757614816614c08565b5b61482082614c59565b9050602081019050919050565b6000819050602082019050919050565b60008190508160005260206000209050919050565b600081519050919050565b600081519050919050565b600081519050919050565b6000602082019050919050565b600082825260208201905092915050565b600082825260208201905092915050565b600081905092915050565b600082825260208201905092915050565b600081905092915050565b60006148d482614a64565b91506148df83614a64565b9250827fffffffffffffffffffffffffffffffffffffffffffffffffffffffffffffffff0382111561491457614913614b7b565b5b828201905092915050565b600061492a82614a64565b915061493583614a64565b92508261494557614944614baa565b5b828204905092915050565b600061495b82614a64565b915061496683614a64565b9250817fffffffffffffffffffffffffffffffffffffffffffffffffffffffffffffffff048311821515161561499f5761499e614b7b565b5b828202905092915050565b60006149b582614a64565b91506149c083614a64565b9250828210156149d3576149d2614b7b565b5b828203905092915050565b60006149e982614a44565b9050919050565b60008115159050919050565b60007fffffffff0000000000000000000000000000000000000000000000000000000082169050919050565b60006fffffffffffffffffffffffffffffffff82169050919050565b600073ffffffffffffffffffffffffffffffffffffffff82169050919050565b6000819050919050565b600060ff82169050919050565b6000614a8682614a28565b9050919050565b82818337600083830152505050565b60005b83811015614aba578082015181840152602081019050614a9f565b83811115614ac9576000848401525b50505050565b60006002820490506001821680614ae757607f821691505b60208210811415614afb57614afa614bd9565b5b50919050565b614b0a82614c59565b810181811067ffffffffffffffff82111715614b2957614b28614c08565b5b80604052505050565b6000614b3d82614a64565b91507fffffffffffffffffffffffffffffffffffffffffffffffffffffffffffffffff821415614b7057614b6f614b7b565b5b600182019050919050565b7f4e487b7100000000000000000000000000000000000000000000000000000000600052601160045260246000fd5b7f4e487b7100000000000000000000000000000000000000000000000000000000600052601260045260246000fd5b7f4e487b7100000000000000000000000000000000000000000000000000000000600052602260045260246000fd5b7f4e487b7100000000000000000000000000000000000000000000000000000000600052604160045260246000fd5b600060033d1115614c565760046000803e614c53600051614c6a565b90505b90565b6000601f19601f8301169050919050565b60008160e01c9050919050565b7f455243313135353a207472616e7366657220746f206e6f6e204552433131353560008201527f526563656976657220696d706c656d656e746572000000000000000000000000602082015250565b7f455243313135353a204552433131353552656365697665722072656a6563746560008201527f6420746f6b656e73000000000000000000000000000000000000000000000000602082015250565b7f4e465453706c69747465723a20696e73756666696369656e742076616c75652060008201527f666f722074686973207472616e73616374696f6e000000000000000000000000602082015250565b7f455243313135353a2062616c616e636520717565727920666f7220746865207a60008201527f65726f2061646472657373000000000000000000000000000000000000000000602082015250565b7f455243313135353a206275726e20616d6f756e7420657863656564732062616c60008201527f616e636500000000000000000000000000000000000000000000000000000000602082015250565b7f4e465453706c69747465723a206e6f7420656e6f75676820706965636573207460008201527f6f20627579000000000000000000000000000000000000000000000000000000602082015250565b7f4661696c656420746f2073656e64204574686572000000000000000000000000600082015250565b7f4e465453706c69747465723a2063616c6c6572206973206e6f7420612076616c60008201527f69642070726f78792c206f776e6572206e6f7220617070726f76656420000000602082015250565b7f4e465453706c69747465723a206e6f7420656e6f7567682076616c756520746f60008201527f2062757920706965636573000000000000000000000000000000000000000000602082015250565b7f4e46542053706c6974746572202d200000000000000000000000000000000000600082015250565b7f455243313135353a207472616e7366657220746f20746865207a65726f20616460008201527f6472657373000000000000000000000000000000000000000000000000000000602082015250565b7f455243313135353a207472616e736665722063616c6c6572206973206e6f742060008201527f6f776e6572206e6f7220617070726f7665640000000000000000000000000000602082015250565b7f46756e6374696f6e206e6f7420696d706c656d656e7465640000000000000000600082015250565b7f4e465453706c69747465723a204f6e6c79206f726967696e616c204e4654206f60008201527f776e65722063616e206578656375746520746869732066756e6374696f6e0000602082015250565b7f455243313135353a206275726e2066726f6d20746865207a65726f206164647260008201527f6573730000000000000000000000000000000000000000000000000000000000602082015250565b7f455243313135353a20696e73756666696369656e742062616c616e636520666f60008201527f72207472616e7366657200000000000000000000000000000000000000000000602082015250565b7f4e53000000000000000000000000000000000000000000000000000000000000600082015250565b7f4e465453706c69747465723a20796f752073686f756c64206f776e20616c6c2060008201527f70696563657320746f20776974686472617720746865206f726967696e616c2060208201527f4e46540000000000000000000000000000000000000000000000000000000000604082015250565b50565b7f4e465453706c69747465723a204f726967696e616c204e4654206f776e65722060008201527f6973206e6f7420616c6c6f77656420746f20657865637574652074686973206660208201527f756e6374696f6e00000000000000000000000000000000000000000000000000604082015250565b7f455243313135353a2073657474696e6720617070726f76616c2073746174757360008201527f20666f722073656c660000000000000000000000000000000000000000000000602082015250565b7f455243313135353a206163636f756e747320616e6420696473206c656e67746860008201527f206d69736d617463680000000000000000000000000000000000000000000000602082015250565b7f455243313135353a2069647320616e6420616d6f756e7473206c656e6774682060008201527f6d69736d61746368000000000000000000000000000000000000000000000000602082015250565b7f455243313135353a206d696e7420746f20746865207a65726f2061646472657360008201527f7300000000000000000000000000000000000000000000000000000000000000602082015250565b7f4e465453706c69747465723a20796f7520617265207468652063757272656e7460008201527f206e6674206f776e657200000000000000000000000000000000000000000000602082015250565b600060443d10156153a657615429565b6153ae614769565b60043d036004823e80513d602482011167ffffffffffffffff821117156153d6575050615429565b808201805167ffffffffffffffff8111156153f45750505050615429565b80602083010160043d038501811115615411575050505050615429565b61542082602001850186614b01565b82955050505050505b90565b615435816149de565b811461544057600080fd5b50565b61544c816149f0565b811461545757600080fd5b50565b615463816149fc565b811461546e57600080fd5b50565b61547a81614a28565b811461548557600080fd5b50565b61549181614a64565b811461549c57600080fd5b50565b6154a881614a6e565b81146154b357600080fd5b5056fea2646970667358221220751c75280ebe0432ddc55103dfbe15b2f8683c63d367156422d17a54b92b434564736f6c63430008030033",
  "immutableReferences": {},
  "source": "// SPDX-License-Identifier: MIT\npragma solidity >=0.4.22 <0.9.0;\nimport \"./ERC1155.sol\";\nimport \"./NFTSplitterStorage.sol\";\nimport \"@openzeppelin/contracts/utils/introspection/ERC165.sol\";\nimport \"@openzeppelin/contracts/token/ERC1155/IERC1155Receiver.sol\";\nimport  \"./NFTSplitterAdmin.sol\";\n\ncontract NFTSplitter is\n    NFTSplitterStorage,\n    ERC165,\n    ERC1155,\n    IERC1155Receiver\n{\n   // bytes4 internal constant ERC1155_RECEIVED_SIG = 0xf23a6e61;\n   // bytes4 internal constant ERC1155_BATCH_RECEIVED_SIG = 0xbc197c81;\n    uint8 public constant version = 1;\n\n    //modifiers\n    /**\n     * @dev Modifier that checks that timestamp is greater than lock time\n     *\n     */\n    modifier isNotLocked() {\n        require(block.timestamp > lockEndDate, \"NFTSplitter: Lock time is not over\");\n        _;\n    }\n\n    modifier allowToBuy() {\n        if (block.timestamp < lockEndDate){\n            require(owners[originalOwner] < initialSellSupply, \"NFTSplitter: No more supply\");\n        } \n                \n        _;\n    }\n\n    /**\n     * @dev Modifier that checks that only the original NFT owner can execute the trx\n     *\n     */\n    modifier onlyOriginalNFTOwner() {\n        require(originalOwner == msg.sender, \"NFTSplitter: Only original NFT owner can execute this function\");\n        _;\n    }\n\n    /**\n     * @dev Modifier that checks that the original NFT owner is not executing the trx\n     *\n     */\n    modifier notOriginalNFTOwner() {\n        require(originalOwner != msg.sender, \"NFTSplitter: Original NFT owner is not allowed to execute this function\" );\n        _;\n    }\n\n    /**\n     * @dev Modifier that checks that all pieces are owned by the same address\n     *\n     */\n    modifier ownsAllPieces() {\n\n        require(balanceOf(msg.sender, 1) == pieces, \"NFTSplitter: you should own all pieces to withdraw the original NFT\");\n        _;\n    }\n\n\n    /**\n     * @dev \n     */\n    event NFTSplit(\n        address indexed originalNFTAddress,\n        uint indexed id,\n        uint indexed pieces,\n        uint  price,\n        uint  percentage,\n        uint  lockTime,\n        string name\n    );\n\n  /*  event NFTSplitDeployed(\n        address indexed originalNFTAddress,\n        address indexed NFTOwner\n    );*/\n\n    event NFTSplitSold(\n        address indexed pieceOwner,\n        address indexed buyer,\n        uint indexed amount,\n        uint  price\n    );\n\n    event NFTSplitBuyBack(\n        address indexed originalNFTAddress,\n        address indexed buyer,\n        uint  amount,\n        uint  price\n    );\n\n    event NFTWithdraw(\n        address indexed originalNFTAddress,\n        address indexed buyer,\n        uint  amount\n\n    );\n\n    constructor(\n        \n    ) ERC1155(\"\") {\n        name = \"NFT Splitter\";\n        symbol = \"NFTS\";\n    }\n\n    //no set uri function needed\n    function setURI(string memory newuri) public{\n        revert();\n    }\n\n\n    //mint function will not be needed after contract creation\n    function mint(\n        address account,\n        uint256 id,\n        uint256 amount,\n        bytes memory data\n    ) public  {\n        revert(\"Function not implemented\");\n    }\n\n    //mint function will not be needed after contract creation\n    function mintBatch(\n        address to,\n        uint256[] memory ids,\n        uint256[] memory amounts,\n        bytes memory data\n    ) public {\n        revert(\"Function not implemented\");\n    }\n\n    function _beforeTokenTransfer(\n        address operator,\n        address from,\n        address to,\n        uint256[] memory ids,\n        uint256[] memory amounts,\n        bytes memory data\n    ) internal override  {\n        super._beforeTokenTransfer(operator, from, to, ids, amounts, data);\n    }\n\n    function supportsInterface(bytes4 interfaceId)\n        public\n        view\n        override(ERC165, IERC165, ERC1155)\n        returns (bool)\n    {\n        return super.supportsInterface(interfaceId);\n    }\n\n    //it will return the original NFT uri\n    /**\n     * @dev this method will return the NFT uri\n     * @return Original NFT uri\n     */\n    function uri(uint256 id)\n        public\n        view\n        virtual\n        override\n        returns (string memory)\n    {\n        return ERC1155(originalNFT).uri(id);\n    }\n\n    function burn(\n        address account,\n        uint256 id,\n        uint256 value\n    ) public virtual {\n        revert(\"Function not implemented\");\n    }\n\n    function burnBatch(\n        address account,\n        uint256[] memory ids,\n        uint256[] memory values\n    ) public virtual {\n        revert(\"Function not implemented\");\n    }\n\n    /**\n     * @dev See {IERC1155-safeTransferFrom}.\n     */\n    function safeTransferFrom(\n        address from,\n        address to,\n        uint256 id,\n        uint256 amount,\n        bytes memory data\n    ) public  override {\n        require(\n            NFTSplitterAdmin(settings).isValidProxy(originalNFT, address(this))\n        ,\n        \"NFTSplitter: caller is not a valid proxy, owner nor approved \"\n        );\n        _safeTransferFrom(from, to, id, amount, data);\n    }\n\n    function splitMyNFT(\n\n        uint256 _tokenId,\n        uint256 _price,\n        uint128 _buyPercentage,\n        uint8 _pieces,\n        uint8 _initialSellAmount,\n        uint256 _lockTimeInDays\n    ) public onlyOriginalNFTOwner {\n        lockEndDate = block.timestamp + (_lockTimeInDays * 1 days);\n      //  originalNFT = _originalNFTAddress;\n        originalOwner = msg.sender;\n        initialSellSupply = _initialSellAmount;\n        name = string(abi.encodePacked(\"NFT Splitter - \", ERC1155(originalNFT).name()));\n        symbol = string(abi.encodePacked(\"NS\", ERC1155(originalNFT).symbol()));\n       \n        tokenId = _tokenId;\n        pieces = _pieces;\n        NFTPrice = _price;\n        buyPercentage = _buyPercentage;\n\n        uint256 amount = ERC1155(originalNFT).balanceOf(msg.sender, tokenId);\n        _mint(msg.sender, tokenId, pieces, \"\");\n        ERC1155(originalNFT).safeTransferFrom(\n            msg.sender,\n            address(this),\n            tokenId,\n            amount,\n            \"\"\n        );\n        owners[msg.sender] = amount;\n        //setting the owners\n\n\n        emit NFTSplit(originalNFT, tokenId, pieces, NFTPrice, buyPercentage, lockEndDate, name);\n    }\n\n    /**\n     * @dev method used by the original NFT to buy back any piece that was sold\n     *\n     */\n\n    function buyBackPieces(address _from, uint256 amount) public payable onlyOriginalNFTOwner {\n        uint currentBalance = balanceOf(_from, 1);\n\n       // require (currentBalance > 0 && currentBalance >= amount, 'NFTSplitter: not enough pieces to buy back');\n       \n\n        uint piecePrice = NFTPrice / pieces;//( (NFTPrice * buyPercentage) / ( 100 * pieces ));\n        uint buyBackPrice = (piecePrice + (piecePrice * buyPercentage  / 100 )) * amount;\n        require(msg.value  >= piecePrice, 'NFTSplitter: insufficient value for this transaction');\n\n        safeTransferFrom(_from, msg.sender, 1, amount, \"\");\n        (bool sent, bytes memory data) = _from.call{value: buyBackPrice}(\"\");\n\n        require(sent, \"Failed to send Ether\");\n        emit NFTSplitBuyBack(originalNFT, msg.sender, buyPercentage, buyBackPrice);\n\n    }\n\n    /**\n     * @dev method used to buy a piece of the original NFT from the original Owner\n     *\n     *\n     */\n\n    function buyPiecesFromOwner( uint256 amount) public payable notOriginalNFTOwner {\n        uint currentSupply = balanceOf(originalOwner, 1);\n        require(currentSupply - initialSellSupply >= amount, 'NFTSplitter: not enough pieces to buy');\n\n        require(originalOwner != msg.sender, 'NFTSplitter: you are the current nft owner');\n\n        uint piecePrice = (NFTPrice / pieces ) * amount;\n\n        require(msg.value >= piecePrice, 'NFTSplitter: not enough value to buy pieces');\n\n      //  ERC1155(address(this)).setApprovalForAll(buyer, true);\n        safeTransferFrom(originalOwner, msg.sender, 1, amount, \"\");\n        (bool sent, bytes memory data) = originalOwner.call{value: msg.value}(\"\");\n\n        emit NFTSplitSold(originalOwner, msg.sender, amount, piecePrice);\n        require(sent, \"Failed to send Ether\");\n    }\n\n    /**\n     * @dev this method will burn all the NFT pieces and it will transfer the original NFT to the new owner.\n     * This method can only be executed if the address owns all the pieces.\n     *\n     */\n   // event log(address currentOwner, uint amount);\n    function withdrawOriginalNFT() public ownsAllPieces {\n\n        //require(pieces == ownedPieces, 'NFTSplitter: you should own all pieces to withdraw the original NFT');\n        uint256 amount = ERC1155(originalNFT).balanceOf(address(this), tokenId);\n        ERC1155(originalNFT).safeTransferFrom(\n            address(this),\n            msg.sender,\n            tokenId,\n            amount,\n            \"\"\n        );\n        //burn pieces\n        _burn(msg.sender, 1, pieces);\n        emit NFTWithdraw(originalNFT, msg.sender, amount);\n\n    }\n\n    function onERC1155Received(\n        address, /*_operator*/\n        address, /*_from*/\n        uint256 _id,\n        uint256, /*_amount*/\n        bytes calldata /*_data*/\n    ) external override returns (bytes4) {\n        return this.onERC1155Received.selector;\n    }\n\n    function onERC1155BatchReceived(\n        address, /*_operator*/\n        address, /*_from*/\n        uint256[] memory, /*_ids*/\n        uint256[] memory, /*_values*/\n        bytes memory /*_data*/\n    ) public pure override returns (bytes4) {\n         return this.onERC1155BatchReceived.selector;\n    }\n\n    // Function to receive Ether. msg.data must be empty\n    receive() external payable {}\n\n    // Fallback function is called when msg.data is not empty\n    fallback() external payable {}\n\n    function getBalance() public view returns (uint256) {\n        return address(this).balance;\n    }\n\n    /// @notice Withdraw any contract funds\n    /// @dev Only the original nft  owner execute call this function\n    function withdraw() public onlyOriginalNFTOwner{\n        //TODO: implement and create test for this scenario\n    }\n}\n",
  "sourcePath": "/home/dtutila/src/bootcamp/blockchain-developer-bootcamp-final-project/contracts/contracts/NFTSplitter.sol",
  "compiler": {
    "name": "solc",
    "version": "0.8.3+commit.8d00100c.Emscripten.clang"
  },
  "schemaVersion": "3.4.3",
  "updatedAt": "2021-11-25T20:49:55.030Z",
  "networkType": "ethereum",
  "devdoc": {
    "kind": "dev",
    "methods": {
      "balanceOf(address,uint256)": {
        "details": "See {IERC1155-balanceOf}. Requirements: - `account` cannot be the zero address."
      },
      "balanceOfBatch(address[],uint256[])": {
        "details": "See {IERC1155-balanceOfBatch}. Requirements: - `accounts` and `ids` must have the same length."
      },
      "buyBackPieces(address,uint256)": {
        "details": "method used by the original NFT to buy back any piece that was sold"
      },
      "buyPiecesFromOwner(uint256)": {
        "details": "method used to buy a piece of the original NFT from the original Owner"
      },
      "isApprovedForAll(address,address)": {
        "details": "See {IERC1155-isApprovedForAll}."
      },
      "safeBatchTransferFrom(address,address,uint256[],uint256[],bytes)": {
        "details": "See {IERC1155-safeBatchTransferFrom}."
      },
      "safeTransferFrom(address,address,uint256,uint256,bytes)": {
        "details": "See {IERC1155-safeTransferFrom}."
      },
      "setApprovalForAll(address,bool)": {
        "details": "See {IERC1155-setApprovalForAll}."
      },
      "uri(uint256)": {
        "details": "this method will return the NFT uri",
        "returns": {
          "_0": "Original NFT uri"
        }
      },
      "withdraw()": {
        "details": "Only the original nft  owner execute call this function"
      },
      "withdrawOriginalNFT()": {
        "details": "this method will burn all the NFT pieces and it will transfer the original NFT to the new owner. This method can only be executed if the address owns all the pieces."
      }
    },
    "version": 1
  },
  "userdoc": {
    "kind": "user",
    "methods": {
      "withdraw()": {
        "notice": "Withdraw any contract funds"
      }
    },
    "version": 1
  }
}