{
  "contractName": "NFTSplitterFactory",
  "abi": [
    {
      "inputs": [
        {
          "internalType": "address",
          "name": "_settings",
          "type": "address"
        }
      ],
      "stateMutability": "nonpayable",
      "type": "constructor"
    },
    {
      "anonymous": false,
      "inputs": [
        {
          "indexed": true,
          "internalType": "address",
          "name": "nft",
          "type": "address"
        },
        {
          "indexed": true,
          "internalType": "address",
          "name": "proxyAddress",
          "type": "address"
        },
        {
          "indexed": true,
          "internalType": "address",
          "name": "NFTOwner",
          "type": "address"
        }
      ],
      "name": "ProxyCreated",
      "type": "event"
    },
    {
      "inputs": [
        {
          "internalType": "address",
          "name": "_nft",
          "type": "address"
        },
        {
          "internalType": "uint256",
          "name": "_tokenId",
          "type": "uint256"
        }
      ],
      "name": "createNFTSplitter",
      "outputs": [
        {
          "internalType": "contract NFTSplitterProxy",
          "name": "prx",
          "type": "address"
        }
      ],
      "stateMutability": "payable",
      "type": "function",
      "payable": true
    },
    {
      "inputs": [],
      "name": "getNFTSplitterBase",
      "outputs": [
        {
          "internalType": "address",
          "name": "",
          "type": "address"
        }
      ],
      "stateMutability": "view",
      "type": "function",
      "constant": true
    },
    {
      "inputs": [],
      "name": "getNFTSplitters",
      "outputs": [
        {
          "internalType": "address[]",
          "name": "",
          "type": "address[]"
        }
      ],
      "stateMutability": "view",
      "type": "function",
      "constant": true
    }
  ],
  "bytecode": "0x608060405234801561001057600080fd5b5060405161181c38038061181c833981810160405281019061003291906101ae565b336000806101000a81548173ffffffffffffffffffffffffffffffffffffffff021916908373ffffffffffffffffffffffffffffffffffffffff16021790555080600160006101000a81548173ffffffffffffffffffffffffffffffffffffffff021916908373ffffffffffffffffffffffffffffffffffffffff160217905550600160009054906101000a900473ffffffffffffffffffffffffffffffffffffffff1673ffffffffffffffffffffffffffffffffffffffff1663aaf10f426040518163ffffffff1660e01b815260040160206040518083038186803b15801561011b57600080fd5b505afa15801561012f573d6000803e3d6000fd5b505050506040513d601f19601f8201168201806040525081019061015391906101ae565b600260006101000a81548173ffffffffffffffffffffffffffffffffffffffff021916908373ffffffffffffffffffffffffffffffffffffffff16021790555050610220565b6000815190506101a881610209565b92915050565b6000602082840312156101c057600080fd5b60006101ce84828501610199565b91505092915050565b60006101e2826101e9565b9050919050565b600073ffffffffffffffffffffffffffffffffffffffff82169050919050565b610212816101d7565b811461021d57600080fd5b50565b6115ed8061022f6000396000f3fe608060405260043610620000385760003560e01c8063abc725c9146200003d578063e92a42ce1462000073578063f8b4543114620000a3575b600080fd5b6200005b6004803603810190620000559190620004bd565b620000d3565b6040516200006a919062000720565b60405180910390f35b3480156200008057600080fd5b506200008b620003b0565b6040516200009a919062000640565b60405180910390f35b348015620000b057600080fd5b50620000bb620003da565b604051620000ca9190620006fc565b60405180910390f35b6000600160009054906101000a900473ffffffffffffffffffffffffffffffffffffffff1673ffffffffffffffffffffffffffffffffffffffff1663b187bd266040518163ffffffff1660e01b815260040160206040518083038186803b1580156200013e57600080fd5b505afa15801562000153573d6000803e3d6000fd5b505050506040513d601f19601f82011682018060405250810190620001799190620004fe565b15620001bc576040517f08c379a0000000000000000000000000000000000000000000000000000000008152600401620001b3906200073d565b60405180910390fd5b828233600260009054906101000a900473ffffffffffffffffffffffffffffffffffffffff16600160009054906101000a900473ffffffffffffffffffffffffffffffffffffffff1660405162000213906200046a565b620002239594939291906200068a565b604051809103906000f08015801562000240573d6000803e3d6000fd5b509050600160009054906101000a900473ffffffffffffffffffffffffffffffffffffffff1673ffffffffffffffffffffffffffffffffffffffff1663c667a82184836040518363ffffffff1660e01b8152600401620002a29291906200065d565b600060405180830381600087803b158015620002bd57600080fd5b505af1158015620002d2573d6000803e3d6000fd5b505050506003819080600181540180825580915050600190039060005260206000200160009091909190916101000a81548173ffffffffffffffffffffffffffffffffffffffff021916908373ffffffffffffffffffffffffffffffffffffffff1602179055503373ffffffffffffffffffffffffffffffffffffffff168173ffffffffffffffffffffffffffffffffffffffff168473ffffffffffffffffffffffffffffffffffffffff167f5983cdcaa370320b76fe01a3a32a0430e6a13b9f47a55e806afb13b5aef95a1260405160405180910390a492915050565b6000600260009054906101000a900473ffffffffffffffffffffffffffffffffffffffff16905090565b606060038054806020026020016040519081016040528092919081815260200182805480156200046057602002820191906000526020600020905b8160009054906101000a900473ffffffffffffffffffffffffffffffffffffffff1673ffffffffffffffffffffffffffffffffffffffff168152602001906001019080831162000415575b5050505050905090565b610ceb80620008cd83390190565b60008135905062000489816200087e565b92915050565b600081519050620004a08162000898565b92915050565b600081359050620004b781620008b2565b92915050565b60008060408385031215620004d157600080fd5b6000620004e18582860162000478565b9250506020620004f485828601620004a6565b9150509250929050565b6000602082840312156200051157600080fd5b600062000521848285016200048f565b91505092915050565b600062000538838362000544565b60208301905092915050565b6200054f81620007ba565b82525050565b6200056081620007ba565b82525050565b600062000573826200076f565b6200057f818562000787565b93506200058c836200075f565b8060005b83811015620005c3578151620005a788826200052a565b9750620005b4836200077a565b92505060018101905062000590565b5085935050505092915050565b620005db8162000804565b82525050565b6000620005f0602583620007a9565b9150620005fd826200082c565b604082019050919050565b60006200061760008362000798565b915062000624826200087b565b600082019050919050565b6200063a81620007fa565b82525050565b600060208201905062000657600083018462000555565b92915050565b600060408201905062000674600083018562000555565b62000683602083018462000555565b9392505050565b600060c082019050620006a1600083018862000555565b620006b060208301876200062f565b620006bf604083018662000555565b620006ce606083018562000555565b620006dd608083018462000555565b81810360a0830152620006f08162000608565b90509695505050505050565b6000602082019050818103600083015262000718818462000566565b905092915050565b6000602082019050620007376000830184620005d0565b92915050565b600060208201905081810360008301526200075881620005e1565b9050919050565b6000819050602082019050919050565b600081519050919050565b6000602082019050919050565b600082825260208201905092915050565b600082825260208201905092915050565b600082825260208201905092915050565b6000620007c782620007da565b9050919050565b60008115159050919050565b600073ffffffffffffffffffffffffffffffffffffffff82169050919050565b6000819050919050565b6000620008118262000818565b9050919050565b60006200082582620007da565b9050919050565b7f4e465453706c6974746572466163746f72793a20466163746f7279206973207060008201527f6175736564000000000000000000000000000000000000000000000000000000602082015250565b50565b6200088981620007ba565b81146200089557600080fd5b50565b620008a381620007ce565b8114620008af57600080fd5b50565b620008bd81620007fa565b8114620008c957600080fd5b5056fe608060405260405162000ceb38038062000ceb83398181016040528101906200002991906200032c565b81600560006101000a81548173ffffffffffffffffffffffffffffffffffffffff021916908373ffffffffffffffffffffffffffffffffffffffff16021790555082600860006101000a81548173ffffffffffffffffffffffffffffffffffffffff021916908373ffffffffffffffffffffffffffffffffffffffff1602179055506040518060400160405280600581526020017f70726f787900000000000000000000000000000000000000000000000000000081525060069080519060200190620000f8929190620001dc565b506040518060400160405280600381526020017f50525800000000000000000000000000000000000000000000000000000000008152506007908051906020019062000146929190620001dc565b5083600460006101000a81548173ffffffffffffffffffffffffffffffffffffffff021916908373ffffffffffffffffffffffffffffffffffffffff16021790555085600360006101000a81548173ffffffffffffffffffffffffffffffffffffffff021916908373ffffffffffffffffffffffffffffffffffffffff16021790555084600281905550505050505050620005bd565b828054620001ea90620004ae565b90600052602060002090601f0160209004810192826200020e57600085556200025a565b82601f106200022957805160ff19168380011785556200025a565b828001600101855582156200025a579182015b82811115620002595782518255916020019190600101906200023c565b5b5090506200026991906200026d565b5090565b5b80821115620002885760008160009055506001016200026e565b5090565b6000620002a36200029d8462000404565b620003db565b905082815260208101848484011115620002bc57600080fd5b620002c984828562000478565b509392505050565b600081519050620002e28162000589565b92915050565b600082601f830112620002fa57600080fd5b81516200030c8482602086016200028c565b91505092915050565b6000815190506200032681620005a3565b92915050565b60008060008060008060c087890312156200034657600080fd5b60006200035689828a01620002d1565b96505060206200036989828a0162000315565b95505060406200037c89828a01620002d1565b94505060606200038f89828a01620002d1565b9350506080620003a289828a01620002d1565b92505060a087015167ffffffffffffffff811115620003c057600080fd5b620003ce89828a01620002e8565b9150509295509295509295565b6000620003e7620003fa565b9050620003f58282620004e4565b919050565b6000604051905090565b600067ffffffffffffffff82111562000422576200042162000549565b5b6200042d8262000578565b9050602081019050919050565b600062000447826200044e565b9050919050565b600073ffffffffffffffffffffffffffffffffffffffff82169050919050565b6000819050919050565b60005b83811015620004985780820151818401526020810190506200047b565b83811115620004a8576000848401525b50505050565b60006002820490506001821680620004c757607f821691505b60208210811415620004de57620004dd6200051a565b5b50919050565b620004ef8262000578565b810181811067ffffffffffffffff8211171562000511576200051062000549565b5b80604052505050565b7f4e487b7100000000000000000000000000000000000000000000000000000000600052602260045260246000fd5b7f4e487b7100000000000000000000000000000000000000000000000000000000600052604160045260246000fd5b6000601f19601f8301169050919050565b62000594816200043a565b8114620005a057600080fd5b50565b620005ae816200046e565b8114620005ba57600080fd5b50565b61071e80620005cd6000396000f3fe6080604052600436106100955760003560e01c806385b4bb531161005957806385b4bb531461018557806395d89b41146101b0578063e06174e4146101db578063e73faa2d14610206578063f1fffdcb14610231576100a4565b806304e9da5a146100ae57806306fdde03146100d9578063176740361461010457806317d70f7c1461012f5780631d3d81d61461015a576100a4565b366100a4576100a261025c565b005b6100ac61025c565b005b3480156100ba57600080fd5b506100c3610276565b6040516100d09190610571565b60405180910390f35b3480156100e557600080fd5b506100ee610298565b6040516100fb919061054f565b60405180910390f35b34801561011057600080fd5b50610119610326565b60405161012691906105a7565b60405180910390f35b34801561013b57600080fd5b50610144610337565b604051610151919061058c565b60405180910390f35b34801561016657600080fd5b5061016f61033d565b60405161017c9190610534565b60405180910390f35b34801561019157600080fd5b5061019a610363565b6040516101a79190610534565b60405180910390f35b3480156101bc57600080fd5b506101c561038d565b6040516101d2919061054f565b60405180910390f35b3480156101e757600080fd5b506101f061041b565b6040516101fd9190610534565b60405180910390f35b34801561021257600080fd5b5061021b610441565b604051610228919061058c565b60405180910390f35b34801561023d57600080fd5b50610246610447565b6040516102539190610534565b60405180910390f35b61026461046d565b61027461026f61046f565b610499565b565b600060019054906101000a90046fffffffffffffffffffffffffffffffff1681565b600680546102a590610676565b80601f01602080910402602001604051908101604052809291908181526020018280546102d190610676565b801561031e5780601f106102f35761010080835404028352916020019161031e565b820191906000526020600020905b81548152906001019060200180831161030157829003601f168201915b505050505081565b60008054906101000a900460ff1681565b60025481565b600360009054906101000a900473ffffffffffffffffffffffffffffffffffffffff1681565b6000600560009054906101000a900473ffffffffffffffffffffffffffffffffffffffff16905090565b6007805461039a90610676565b80601f01602080910402602001604051908101604052809291908181526020018280546103c690610676565b80156104135780601f106103e857610100808354040283529160200191610413565b820191906000526020600020905b8154815290600101906020018083116103f657829003601f168201915b505050505081565b600560009054906101000a900473ffffffffffffffffffffffffffffffffffffffff1681565b60015481565b600460009054906101000a900473ffffffffffffffffffffffffffffffffffffffff1681565b565b6000600860009054906101000a900473ffffffffffffffffffffffffffffffffffffffff16905090565b3660008037600080366000845af43d6000803e80600081146104ba573d6000f35b3d6000fd5b6104c8816105de565b82525050565b60006104d9826105c2565b6104e381856105cd565b93506104f3818560208601610643565b6104fc816106d7565b840191505092915050565b610510816105f0565b82525050565b61051f8161062c565b82525050565b61052e81610636565b82525050565b600060208201905061054960008301846104bf565b92915050565b6000602082019050818103600083015261056981846104ce565b905092915050565b60006020820190506105866000830184610507565b92915050565b60006020820190506105a16000830184610516565b92915050565b60006020820190506105bc6000830184610525565b92915050565b600081519050919050565b600082825260208201905092915050565b60006105e98261060c565b9050919050565b60006fffffffffffffffffffffffffffffffff82169050919050565b600073ffffffffffffffffffffffffffffffffffffffff82169050919050565b6000819050919050565b600060ff82169050919050565b60005b83811015610661578082015181840152602081019050610646565b83811115610670576000848401525b50505050565b6000600282049050600182168061068e57607f821691505b602082108114156106a2576106a16106a8565b5b50919050565b7f4e487b7100000000000000000000000000000000000000000000000000000000600052602260045260246000fd5b6000601f19601f830116905091905056fea2646970667358221220fb3bd6fb920c2a1d52866ac728bd3dfae6c99440b7adc522ea487c9705b6d94d64736f6c63430008030033a26469706673582212203100d67d7198fdf47086d2c584b6f86c0ee5630097fd2d919cf427b8ff57d6f364736f6c63430008030033",
  "immutableReferences": {},
  "source": "// SPDX-License-Identifier: MIT\npragma solidity >=0.4.22 <0.9.0;\nimport \"./NFTSplitterAdmin.sol\";\nimport \"./NFTSplitterProxy.sol\";\n\ncontract NFTSplitterFactory {\n  address private owner;\n  address private settings;\n  address private NFTSplitterBase;\n  address[] private splitters;\n\n  //is the app in pause state??\n  modifier isNotPaused(){\n    require (!NFTSplitterAdmin(settings).isPaused(), 'NFTSplitterFactory: Factory is paused');\n    _;\n  }\n    /**\n     * @dev emitted everytime a splitter proxy is created\n     */\n    event ProxyCreated(\n        address indexed nft,\n        address indexed proxyAddress,\n        address indexed NFTOwner\n    );\n\n  constructor(address _settings) {\n    owner = msg.sender; // factory owner\n    settings = _settings; // admin contract address\n    NFTSplitterBase = NFTSplitterAdmin(settings).getImplementation(); //logic implementation\n  }\n\n  /**\n   * @dev function that creates a new splitter proxy contract\n   *\n   */\n  function createNFTSplitter(address _nft, uint _tokenId) public payable isNotPaused returns (NFTSplitterProxy prx){\n    prx = new NFTSplitterProxy (_nft, _tokenId, msg.sender, NFTSplitterBase, settings, \"\");\n    NFTSplitterAdmin(settings).registerProxy(_nft,  address(prx));\n    splitters.push(address(prx));\n    emit ProxyCreated(_nft, address(prx), msg.sender);\n    return prx;\n  }\n\n  function getNFTSplitterBase() external view returns (address) {\n    return NFTSplitterBase;\n  }\n\n  //returns all the proxies created\n  function getNFTSplitters() external view returns ( address[] memory ) {\n    return splitters;\n  }\n  \n}\n",
  "sourcePath": "/home/dtutila/src/bootcamp/blockchain-developer-bootcamp-final-project/contracts/contracts/NFTSplitterFactory.sol",
  "compiler": {
    "name": "solc",
    "version": "0.8.3+commit.8d00100c.Emscripten.clang"
  },
  "schemaVersion": "3.4.3",
  "updatedAt": "2021-11-26T17:27:41.293Z",
  "networkType": "ethereum",
  "devdoc": {
    "events": {
      "ProxyCreated(address,address,address)": {
        "details": "emitted everytime a splitter proxy is created"
      }
    },
    "kind": "dev",
    "methods": {
      "createNFTSplitter(address,uint256)": {
        "details": "function that creates a new splitter proxy contract"
      }
    },
    "version": 1
  },
  "userdoc": {
    "kind": "user",
    "methods": {},
    "version": 1
  }
}